:100000004CC0000067C0000065C0000063C0000075
:1000100061C000005FC000005DC000005BC0000068
:1000200059C0000057C0000055C0000053C0000078
:1000300051C000004FC000004DC000004BC0000088
:1000400049C0000047C0000045C0000043C0000098
:1000500041C000003FC000003DC000003BC00000A8
:1000600039C0000037C0000036C0000033C00000B7
:1000700031C000002FC000002DC000002BC00000C8
:1000800029C0000027C0000025C0000076017801CB
:100090008A019C01AE01C001EA0111241FBECFEF0D
:1000A000D0E4DEBFCDBF11E0A0E0B1E0EEE7F7E0C5
:1000B00000E00BBF02C007900D92A430B107D9F742
:1000C00021E0A4E0B1E001C01D92A830B207E1F741
:1000D000B4D153C395CF1F920F920FB60F92112434
:1000E0000BB60F928F939F93EF93FF932998299AC2
:1000F00029988091B900887F883AA1F4109207016D
:10010000109206018091060190910701E09104018F
:10011000F0910501E80FF91F80818093BB0085EC09
:100120008093BC008091B900887F883BC9F480919E
:10013000060190910701E0910401F0910501E80F9B
:10014000F91F80818093BB00809106019091070187
:100150000196909307018093060185EC8093BC0083
:100160008091B900887F803C19F485EC8093BC00B5
:100170008091B900887F803639F485EC8093BC008B
:1001800010920701109206018091B900887F803893
:10019000C9F48091060190910701E0910401F0916A
:1001A0000501E80FF91F8091BB0080838091060153
:1001B000909107010196909307018093060185ECC9
:1001C0008093BC008091B900887F803A19F485EC57
:1001D0008093BC00FF91EF919F918F910F900BBE88
:1001E0000F900FBE0F901F9018958093BA0085EC6A
:1001F0008093BC002898289A2898089514BC1092DF
:10020000B000089521E824BD2093B0001816190607
:1002100014F4129A04C012989195819591091616BA
:10022000170614F4119A04C011987195619571091B
:100230008093B30067BD0895BC01E4CF0895919504
:1002400081959109BC01DECF089566277727681B49
:10025000790BD8CF0895BC01919581959109D2CFA2
:10026000089511B88FEF84B98AB981E884BD80936D
:10027000B00092E095BD84E687BD9093B100809375
:10028000B30016BC1092B200E0E8F0E08081826A10
:100290008083E1E8F0E080818B61808387E893E1EF
:1002A00090938700809386008AB180638AB9109208
:1002B00085001092840008958F929F92AF92BF9212
:1002C000CF92DF92EF92FF92CF93FC01818161ED9B
:1002D000680FC281CF528081805390E087309105B2
:1002E00008F0A0C0FC01EA5BFF4F41C287DF9BC062
:1002F00070E080E090E04CD120E030E044EA51E44E
:10030000D3D120E030E048E452E4ABD00ED1CB01B1
:1003100093DF89C070E080E090E03AD120E030E0E7
:1003200044EA51E4C1D120E030E048E452E499D0FD
:10033000FCD0CB0184DF77C070E080E090E028D172
:1003400020E030E044EA51E4AFD120E030E048E47E
:1003500052E487D0EAD0CB0178DF65C070E080E05E
:1003600090E016D120E030E044EA51E49DD120E055
:1003700030E048E452E475D0D8D0CB016CDF53C0F4
:1003800070E080E090E004D120E030E044EA51E405
:100390008BD120E030E048E452E463D06B017C0173
:1003A0006C2F70E080E090E0F3D020E030E044EA91
:1003B00051E47AD19B01AC01C701B60151D0B5D04F
:1003C0004B015C01C701B601B0D0DC01CB01B40127
:1003D00019DF29C070E080E090E0DAD020E030E062
:1003E00044EA51E461D120E030E048E452E439D0FD
:1003F0006B017C019AD04B015C016C2F70E080E0B6
:1004000090E0C6D020E030E044EA51E44DD19B01B9
:10041000AC01C701B60124D088D0DC01CB01B40106
:10042000F1DE01C0EBDECF91FF90EF90DF90CF9037
:10043000BF90AF909F908F90089513DF80E091E080
:10044000909305018093040182E0CFDE7894289890
:10045000289A289880910401909105012DDFFACF08
:100460005058BB27AA270ED0E5C0D6D030F0DBD03D
:1004700020F031F49F3F11F41EF4CBC00EF4E09550
:10048000E7FBC1C0E92FE7D080F3BA176207730713
:100490008407950718F071F49EF5FFC00EF4E095FF
:1004A0000B2EBA2FA02D0B01B90190010C01CA012E
:1004B000A0011124FF27591B99F0593F50F4503ED9
:1004C00068F11A16F040A22F232F342F4427585FCB
:1004D000F3CF469537952795A795F0405395C9F7E3
:1004E0007EF41F16BA0B620B730B840BBAF091509B
:1004F000A1F0FF0FBB1F661F771F881FC2F70EC03A
:10050000BA0F621F731F841F48F48795779567950C
:10051000B795F7959E3F08F0B3CF9395880F08F0F5
:100520009927EE0F97958795089504D06894B11197
:10053000B5C0089598D088F09F5790F0B92F9927AB
:10054000B751A0F0D1F0660F771F881F991F1AF0DE
:10055000BA95C9F712C0B13081F09FD0B1E00895CB
:100560009CC0672F782F8827B85F39F0B93FCCF34C
:10057000869577956795B395D9F73EF490958095D4
:10058000709561957F4F8F4F9F4F0895E89409C0F4
:1005900097FB3EF490958095709561957F4F8F4FB6
:1005A0009F4F9923A9F0F92F96E9BB279395F695CC
:1005B000879577956795B795F111F8CFFAF4BB0F4A
:1005C00011F460FF1BC06F5F7F4F8F4F9F4F16C0AE
:1005D000882311F096E911C0772321F09EE8872F38
:1005E000762F05C0662371F096E8862F70E060E0F4
:1005F0002AF09A95660F771F881FDAF7880F96956D
:10060000879597F9089597F99F6780E870E060E013
:1006100008959FEF80EC089500240A94161617069B
:1006200018060906089500240A94121613061406E3
:1006300005060895092E0394000C11F4882352F046
:10064000BB0F40F4BF2B11F460FF04C06F5F7F4FFE
:100650008F4F9F4F089557FD9058440F551F59F0E5
:100660005F3F71F04795880F97FB991F61F09F3F9F
:1006700079F087950895121613061406551FF2CFC8
:100680004695F1DF08C0161617061806991FF1CF18
:1006900086957105610508940895E894BB2766273F
:1006A0007727CB0197F908950BD0C4CFB5DF28F099
:1006B000BADF18F0952309F0A6CFABCF1124EECF07
:1006C000CADFA0F3959FD1F3950F50E0551F629FAD
:1006D000F001729FBB27F00DB11D639FAA27F00D9B
:1006E000B11DAA1F649F6627B00DA11D661F829FC2
:1006F0002227B00DA11D621F739FB00DA11D621FA7
:10070000839FA00D611D221F749F3327A00D611DC3
:10071000231F849F600D211D822F762F6A2F1124A5
:100720009F5750408AF0E1F088234AF0EE0FFF1FF8
:10073000BB1F661F771F881F91505040A9F79E3F2F
:10074000510570F060CFAACF5F3FECF3983EDCF329
:10075000869577956795B795F795E7959F5FC1F76C
:10076000FE2B880F911D9695879597F90895EE0FAA
:0E077000FF1F0590F491E02D0994F894FFCF3F
:04077E0030303000E7
:00000001FF
