:1000000059C0000075C0000073C0000071C000003E
:100010006FC000006DC000006BC0000069C0000030
:1000200067C0000065C0000063C0000061C0000040
:100030005FC000005DC000005BC0000059C0000050
:1000400057C0000055C0000053C0000051C0000060
:100050004FC000004DC000004BC0000049C0000070
:1000600047C0000045C0000044C0000041C000007F
:100070003FC000003DC000003BC0000039C0000090
:10008000C1C5000035C0000033C000001A012901BD
:100090002E0139013E0149014E0159015E016901FC
:1000A0006E017301780197069D06B206A306DA0673
:1000B000C106D40611241FBECFEFD0E4DEBFCDBFF2
:1000C00011E0A0E0B1E0E6E9F1E100E00BBF02C021
:1000D00007900D92AA30B107D9F722E0AAE0B1E06B
:1000E00001C01D92A53DB207E1F7F7D50C94C908F0
:1000F00087CF1F920F920FB60F9211240BB60F925B
:100100002F933F934F935F936F937F938F939F931F
:10011000AF93BF93EF93FF938091B900887F883AA4
:10012000A1F410920F0110920E0180910E01909196
:100130000F01E0910C01F0910D01E80FF91F808192
:100140008093BB0085EC8093BC008091B900887FD0
:10015000883BC9F480910E0190910F01E0910C0150
:10016000F0910D01E80FF91F80818093BB00809111
:100170000E0190910F01019690930F0180930E0153
:1001800085EC8093BC008091B900887F803C19F495
:1001900085EC8093BC008091B900887F803639F46B
:1001A00085EC8093BC0010920F0110920E0180919B
:1001B000B900887F8038A1F48091BB0060910E0166
:1001C00070910F0190E02DD080910E0190910F0160
:1001D000019690930F0180930E0185EC8093BC00F3
:1001E0008091B900887F803A19F485EC8093BC0037
:1001F000FF91EF91BF91AF919F918F917F916F91FF
:100200005F914F913F912F910F900BBE0F900FBEBA
:100210000F901F9018958093BA0085EC8093BC00D6
:100220000895FB013297ED30F10508F065C0EA5BF7
:10023000FF4FA9C786FB992790F99093CD021092A2
:10024000CE0285FB882780F98093C5021092C602F2
:1002500008951092CF028093D00208952091CF028A
:100260003091D002820F931F9093D0028093CF02DF
:1002700008951092C7028093C80208952091C70282
:100280003091C802820F931F9093C8028093C702D7
:1002900008951092BD028093BE0208952091BD0280
:1002A0003091BE02820F931F9093BE028093BD02D5
:1002B00008951092C9028093CA0208952091C9023C
:1002C0003091CA02820F931F9093CA028093C90291
:1002D00008959093C4028093C30208959093D2022C
:1002E0008093D10208959093BC028093BB0208953D
:1002F0009093D4028093D3020895161617069CF4A7
:10030000E82FF92F80E090E09A01082E02C0359581
:1003100027950A94E2F721703327219331930196B0
:100320008617970789F70895CF92DF92EF92FF9291
:100330000F931F93CF93DF93CDB7DEB78B01CDB66D
:10034000DEB69B01220F331F4DB75EB7421B530B26
:100350000FB6F8945EBF0FBE4DBF2DB73EB72F5FEF
:100360003F4F7901AC01C901C8DF11239CF0F801AE
:100370003196EE0FFF1FEE0DFF1D2898289A289842
:1003800092918291019719F42998299A29980150FC
:10039000110998F70FB6F894DEBE0FBECDBEDF91FF
:1003A000CF911F910F91FF90EF90DF90CF90089524
:1003B00014BC1092B000089521E824BD2093B00031
:1003C0001816190614F4129A04C012989195819582
:1003D00091091616170614F4119A04C01198719514
:1003E000619571098093B30067BD0895BC01E4CFA6
:1003F000089566277727681B790BDECF0895BC0127
:10040000919581959109D8CF089583E790E09093D5
:1004100031018093300111B88FEF84B98AB981E836
:1004200084BD8093B00092E095BD84E687BD909333
:10043000B1008093B30016BC1092B20008958130D1
:1004400039F0882339F0823039F0833039F008955B
:1004500080E0089581E0089583E0089582E00895A2
:10046000811103C08091320108951092320191E010
:1004700090933201813029F0823029F0833029F0C5
:10048000089580E0089583E0089582E00895E8DF0C
:10049000809332010895CF92DF92EF92FF920F93F3
:1004A0001F93CF93DF93D82EE62EF42E20913701A1
:1004B000309138018091330190913401F901EE0FB0
:1004C000FF1F220F331F220F331F220F331FE20F94
:1004D000F31FE80FF91FEE0FFF1FE55CFE4F808151
:1004E0009181892BE9F02091370130913801809179
:1004F000330190913401F901EE0FFF1F220F331FDA
:10050000220F331F220F331FE20FF31FE80FF91FD3
:10051000EE0FFF1FE55CFE4FC081D181C12C1FC0D3
:10052000809137019091380120913301309134014D
:10053000FC01EE0FFF1F880F991F880F991F880F6E
:10054000991FE80FF91FE20FF31FEE0FFF1FE55C85
:10055000FE4FC0E0D0E0D183C083CC24C394E091AF
:1005600032018091350190913601F0E0EE0FFF1FCE
:10057000EC0FFD1F91838083E0913201809139015E
:1005800090913A01F0E03496EE0FFF1FEC0FFD1F43
:100590009183808300913501109136018091320161
:1005A0004EDF90E0880F991FF801E80FF91FD18303
:1005B000C0830091350110913601809132013FDFF7
:1005C00090E02091390130913A010496880F991FEB
:1005D000F801E80FF91F31832083CC2061F1DD2081
:1005E00069F082E03DDFE82FF0E03496EE0FFF1F68
:1005F000EC0FFD1F81E090E091838083EE2069F095
:1006000080E02EDFE82FF0E03496EE0FFF1FEC0FB6
:10061000FD1F81E090E091838083FF2061F083E003
:100620001FDF90E00496880F991FC80FD91F81E043
:1006300090E09983888310923A0110923901DF91FA
:10064000CF911F910F91FF90EF90DF90CF90089581
:10065000AF92BF92CF92DF92EF92FF920F931F93D0
:10066000CF93DF93EC017B016A018901D9D15C0151
:100670009801A601B701CE01B4D1EC01B5018827DC
:1006800077FD8095982F68D46B017C01BE01882787
:1006900077FD8095982F60D42DEC3CEC4CEC5FE31B
:1006A0000FD59B01AC01C701B601BBD320E030E000
:1006B00040E251E405D51DD4CB01DF91CF911F91CC
:1006C0000F91FF90EF90DF90CF90BF90AF90089583
:1006D0002091B8023091B902409104015091050176
:1006E000821B930B9C0122F422273327281B390BF2
:1006F0004217530734F082E0CADE84E08093B702E9
:100700000895809130019091310173CE0895209128
:10071000B8023091B9024091040150910501821B49
:10072000930B9C0122F422273327281B390B4217F5
:10073000530734F083E0ABDE83E08093B702089583
:1007400080913001909131015ACE0895CF92DF927D
:10075000EF92FF92CF93DF936B017C01EA016091EE
:100760000A0170910B01882777FD8095982FF4D3AB
:100770009B01AC01C701B60153D320E030E040E457
:1007800050E4B3D3181684F082E08093B702CE0110
:10079000825F9E4F893621E0920714F0885691407F
:1007A0009093B9028093B802DF91CF91FF90EF90C0
:1007B000DF90CF9008952091B8023091B902409116
:1007C000040150910501821B930B9C0122F4222706
:1007D0003327281B390B4217530744F083E057DEB9
:1007E00083E055DE85E08093B70208958091300163
:1007F0009091310104CE08952091020130910301BE
:10080000281739075CF4209102013091030181E03F
:1008100090E02617370724F080E0089580E090E00C
:1008200008952091020130910301821793075CF42F
:10083000209102013091030181E090E0621773077B
:1008400024F080E0089580E090E00895EADF892BAD
:1008500019F085E08093B7020895E3DF892B19F042
:1008600085E08093B7020895209102013091030141
:10087000281739075CF4209102013091030181E0CF
:1008800090E02617370724F480E0089580E090E098
:1008900008952F923F924F925F926F927F928F9224
:1008A0009F92AF92BF92CF92DF92EF92FF920F93FF
:1008B0001F93CF93DF9300D000D01F92CDB7DEB748
:1008C0009D838C834B012A013901B901CA0194DF50
:1008D0009B838A83B4018C819D818EDF1C0121E082
:1008E0002983093111050CF41982B4018C819D8191
:1008F000BBDF9D838C83B301C201B6DF2091000171
:1009000030910101232849F021E0892B09F420E0EE
:10091000498161E0822FBFDD15C08981082F10E079
:10092000EA81FB81EF2B09F43FC0992493948C81D9
:100930009D81892B09F4912C4981692D81E0ABDDE2
:100940009920A9F120E030E044E951E4C701B60163
:1009500068D2CFD270930B0160930A0186E0809336
:10096000B70227C0C501865A9F4F8936E1E09E072E
:1009700014F0885691409093B9028093B80281E0B8
:100980008093B70216C0C5018C549F4F8936F1E0A1
:100990009F0714F0885691409093B9028093B80253
:1009A00087E08093B70205C0012B69F302C0012BD9
:1009B000C9F20F900F900F900F900F90DF91CF9191
:1009C0001F910F91FF90EF90DF90CF90BF90AF906D
:1009D0009F908F907F906F905F904F903F902F905F
:1009E00008958D3391051CF44D33510524F0C90150
:1009F000861B970B08952D3331051CF46D3371055B
:100A00001CF0841B950B0895841B950B261B370B3C
:100A1000820F931F99230CF401969595879508955D
:100A20008D3391051CF44D3351052CF088E190E095
:100A3000861B970B08952D3331051CF46D3371051A
:100A40003CF028E130E0A901481B590BCA01089588
:100A5000821B930B9C0112F42F5F3F4FF901F59518
:100A6000E795461B570B9A0112F42F5F3F4FC901C0
:100A7000959587958E0F9F1F99230CF40196959558
:100A8000879508954F925F926F927F928F929F9277
:100A9000AF92BF92CF92DF92EF92FF922091BB0272
:100AA0003091BC024091D3025091D4026091C302B4
:100AB0007091C4028091D1029091D202C9DD5C0193
:100AC000BC01882777FD8095982F46D26B017C0169
:100AD00068E070E0C50128DC20E030E0A901C70132
:100AE000B60103D288230CF03AC0609030017090B8
:100AF0003101B301882777FD8095982F2DD24B01C6
:100B00005C01A70196018CD120E030E04FE753E46F
:100B1000D3D2181654F4B3016F5F7109882777FD9B
:100B20008095982F19D26B017C01A7019601C50110
:100B3000B40176D1DED12B013C012AE939E949E93A
:100B40005EE3C701B601BCD29B01AC01C501B40193
:100B500068D1CFD1DC01CB01B2012EDC3AC060906C
:100B6000300170903101B301882777FD8095982F6F
:100B7000F3D14B015C01A701960153D120E030E095
:100B80004FE753E499D218165CF46FEF70E06619E2
:100B90007709882777FD8095982FDED16B017C013E
:100BA0002AE939E949E95EE3C701B60189D29B0127
:100BB000AC01C501B40134D19CD12B013C01A5018C
:100BC0009401C701B6012DD194D1DC01CB01B20152
:100BD000F3DBFF90EF90DF90CF90BF90AF909F90AE
:100BE0008F907F906F905F904F900895E1E7F0E0D5
:100BF0008081826080830895E1E7F0E080818D7FCD
:100C0000808308951F920F920FB60F9211240BB696
:100C10000F922F933F934F935F936F937F938F9395
:100C20009F93AF93BF93EF93FF938091CB029091EB
:100C3000CC020197B1F421EE3AE744E55FE360911D
:100C4000BF027091C0028091C1029091C202E9D0AE
:100C50006093BF027093C0028093C1029093C2025E
:100C600015C020E030E040E85FE36091BF02709182
:100C7000C0028091C1029091C202D3D06093BF02A2
:100C80007093C0028093C1029093C202FF91EF91D2
:100C9000BF91AF919F918F917F916F915F914F9194
:100CA0003F912F910F900BBE0F900FBE0F901F9092
:100CB0001895E1E9F0E080818C60808382E0809388
:100CC00099008DE3809398001092BF021092C002A9
:100CD0001092C1021092C202089597DBEADF86E00B
:100CE00091E090930D0180930C0182E094DA81E011
:100CF00090E09093CC028093CB02789485E080932F
:100D0000B70256DB2FE683E09DE221508040904001
:100D1000E1F700C000008091B70290E0FC0131973C
:100D2000E730F10508F068C0ED5AFF4F2CC2809102
:100D3000C7029091C802CCDC5FC08091C70290913D
:100D4000C802E5DC59C06091D3027091D402809151
:100D5000D1029091D2027ADD8091300190913101DF
:100D600045DB4AC06091BB027091BC028091C30216
:100D70009091C40272DD809130019091310136DB97
:100D80003BC04091C7025091C8026091BF02709170
:100D9000C0028091C1029091C202D8DC80913001E2
:100DA0009091310123DB28C08091C7029091C80245
:100DB00002DD22C0A090C702B090C802C090BF025E
:100DC000D090C002E090C102F090C2020091BD023A
:100DD0001091BE022091D3023091D4024091D102F1
:100DE0005091D2026091BB027091BC028091C3020B
:100DF0009091C4024EDD46DE8091B702853061F0ED
:100E00008091B702863041F08091B702843021F0A2
:100E10008091B702833011F4E9DE7DCFEDDE7BCF28
:100E20005058BB27AA270ED00DC1FED030F003D1F9
:100E300020F031F49F3F11F41EF4F3C00EF4E0955E
:100E4000E7FBE9C0E92F0FD180F3BA1762077307F8
:100E50008407950718F071F49EF527C10EF4E0950C
:100E60000B2EBA2FA02D0B01B90190010C01CA0164
:100E7000A0011124FF27591B99F0593F50F4503E0F
:100E800068F11A16F040A22F232F342F4427585F01
:100E9000F3CF469537952795A795F0405395C9F719
:100EA0007EF41F16BA0B620B730B840BBAF09150D1
:100EB000A1F0FF0FBB1F661F771F881FC2F70EC070
:100EC000BA0F621F731F841F48F487957795679543
:100ED000B795F7959E3F08F0B3CF9395880F08F02C
:100EE0009927EE0F97958795089571D008F481E0C2
:100EF000089504D06894B111D9C00895BCD088F089
:100F00009F5790F0B92F9927B751A0F0D1F0660FF5
:100F1000771F881F991F1AF0BA95C9F712C0B13010
:100F200081F0C3D0B1E00895C0C0672F782F882723
:100F3000B85F39F0B93FCCF3869577956795B3954F
:100F4000D9F73EF490958095709561957F4F8F4FBE
:100F50009F4F0895E89409C097FB3EF490958095C3
:100F6000709561957F4F8F4F9F4F9923A9F0F92F6F
:100F700096E9BB279395F695879577956795B795ED
:100F8000F111F8CFFAF4BB0F11F460FF1BC06F5FD3
:100F90007F4F8F4F9F4F16C0882311F096E911C0E5
:100FA000772321F09EE8872F762F05C0662371F006
:100FB00096E8862F70E060E02AF09A95660F771F1A
:100FC000881FDAF7880F9695879597F90895990FF6
:100FD0000008550FAA0BE0E8FEEF16161706E80703
:100FE000F907C0F012161306E407F50798F0621B24
:100FF000730B840B950B39F40A2661F0232B242BF9
:10100000252B21F408950A2609F4A140A6958FEF17
:10101000811D811D089597F99F6780E870E060E069
:1010200008959FEF80EC089500240A941616170681
:1010300018060906089500240A94121613061406C9
:1010400005060895092E0394000C11F4882352F02C
:10105000BB0F40F4BF2B11F460FF04C06F5F7F4FE4
:101060008F4F9F4F089557FD9058440F551F59F0CB
:101070005F3F71F04795880F97FB991F61F09F3F85
:1010800079F087950895121613061406551FF2CFAE
:101090004695F1DF08C0161617061806991FF1CFFE
:1010A00086957105610508940895E894BB27662725
:1010B0007727CB0197F908958ADF08F48FEF089519
:1010C0000BD0C0CFB1DF28F0B6DF18F0952309F0C0
:1010D000A2CFA7CF1124EACFC6DFA0F3959FD1F30B
:1010E000950F50E0551F629FF001729FBB27F00DD6
:1010F000B11D639FAA27F00DB11DAA1F649F66272B
:10110000B00DA11D661F829F2227B00DA11D621F79
:10111000739FB00DA11D621F839FA00D611D221F33
:10112000749F3327A00D611D231F849F600D211D17
:10113000822F762F6A2F11249F5750408AF0E1F0BA
:1011400088234AF0EE0FFF1FBB1F661F771F881F03
:1011500091505040A9F79E3F510570F05CCFA6CF4B
:101160005F3FECF3983EDCF3869577956795B795EE
:10117000F795E7959F5FC1F7FE2B880F911D969518
:10118000879597F90895EE0FFF1F0590F491E02DD4
:061190000994F894FFCF62
:0A119600120039000F003030300065
:00000001FF
