S0180000537479726D6F64756C5F365F322831292E7372656391
S113000065C0000082C0000080C000007EC0000007
S11300107CC000007AC0000078C0000076C00000F8
S113002074C0000072C0000070C000006EC0000008
S11300306CC000006AC0000068C0000066C0000018
S113004064C0000062C0000060C000005EC0000028
S11300505CC000005AC0000058C0000056C0000038
S113006054C0000052C0000051C000004EC0000047
S11300704CC000004AC0000048C0000046C0000058
S11300800C94790F42C0000040C0000037014801C1
S11300904F015A0161016C0173017E0185019001D8
S11300A095019A019F0197029902AF02C502DB02F2
S11300B0F1022303510E570E5D0E940E890EA50E08
S11300C0630E760E9F0E3B0EEE0EF90E11241FBE2C
S11300D0CFEFD0E4DEBFCDBF11E0A0E0B1E0E0EEB1
S11300E0F3E200E00BBF02C007900D92AA30B10703
S11300F0D9F723E0AAE0B1E001C01D92A232B20711
S1130100E1F70E94D00D0C94EE117ACF1F920F925A
S11301100FB60F9211240BB60F922F933F934F9368
S11301205F936F937F938F939F93AF93BF93EF935B
S1130130FF938091B900887F883AA1F41092180146
S1130140109217018091170190911801E091150107
S1130150F0911601E80FF91F80818093BB0085ECB4
S11301608093BC008091B900887F883BC9F480915A
S1130170170190911801E0911501F0911601E80F13
S1130180F91F80818093BB00809117019091180121
S11301900196909318018093170185EC8093BC001D
S11301A08091B900887F803C19F485EC8093BC0071
S11301B08091B900887F803639F485EC8093BC0047
S11301C010921801109217018091B900887F80382D
S11301D0F9F48091BB002091170130911801E0914E
S11301E01501F0911601E20FF31F8083609117014E
S11301F07091180190E031D080911701909118010D
S11302000196909318018093170185EC8093BC00AC
S11302108091B900887F803A19F485EC8093BC0002
S1130220FF91EF91BF91AF919F918F917F916F91CA
S11302305F914F913F912F910F900BBE0F900FBE86
S11302400F901F9018958093BA0085EC8093BC00A2
S11302501092200110921F010895FB013297ED3096
S1130260F10508F070C0EA5BFF4F0C94E81186FBBF
S1130270442740F950E0509344014093430185FBE7
S1130280222720F930E030931C0120931B010895AC
S1130290982F8827909346018093450108952091D3
S11302A0450130914601820F931F9093460180933C
S11302B045010895982F882790931E0180931D016E
S11302C0089520911D0130911E01820F931F909378
S11302D01E0180931D010895982F8827909314017F
S11302E08093130108952091130130911401820F1A
S11302F0931F90931401809313010895982F8827D6
S113030090934201809341010895209141013091DD
S11303104201820F931F90934201809341010895FB
S113032090931A0180931901089590934801809342
S113033047010895909312018093110108959093B9
S11303404A01809349010895161617069CF4E82F74
S1130350F92F80E090E09A01082E02C03595279588
S11303600A94E2F72170332721933193019686177B
S1130370970789F70895CF92DF92EF92FF920F9338
S11303801F93CF93DF93CDB7DEB78B01CDB6DEB627
S11303909B01220F331F4DB75EB7421B530B0FB6A1
S11303A0F8945EBF0FBE4DBF2DB73EB72F5F3F4FD2
S11303B07901AC01C901C8DF11239CF0F801319621
S11303C0EE0FFF1FEE0DFF1D2898289A2898929192
S11303D08291019719F42998299A299801501109B1
S11303E098F70FB6F894DEBE0FBECDBEDF91CF9165
S11303F01F910F91FF90EF90DF90CF90089590930D
S11304008900809388000895559A1092850010926F
S113041084008FEF91E19093870080938600E0E859
S1130420F0E0808182688083E1E8F0E080818B6184
S113043080838EE591E090938900809388000895ED
S113044014BC1092B000089521E824BD2093B0009C
S11304501816190614F4129A04C0129891958195ED
S113046091091616170614F4119A04C0119871957F
S1130470619571098093B30067BD0895BC01E4CF11
S11304800895919581959109BC01DECF0895662761
S11304907727681B790BD8CF0895BC019195819576
S11304A09109D2CF08958EE690E090934E01809307
S11304B04D0184E690E090934C0180934B0111B878
S11304C08FEF84B98AB981E884BD8093B00092E04B
S11304D095BD84E687BD9093B1008093B30016BCAC
S11304E01092B20008958F929F92AF92BF92CF92D2
S11304F0DF92EF92FF92CF93FC01808185FB22274C
S113050020F930E030931C0120931B01828161EDBE
S1130510680FC381CF528181805390E08730910569
S113052008F0C1C0FC01ED5AFF4F0C94E81188DFBC
S1130530BBC070E080E090E00E94D11020E030E089
S113054044EA51E40E94851120E030E048E452E49A
S11305500E9436100E949E10CB0190DFA5C070E06F
S113056080E090E00E94D11020E030E044EA51E4C1
S11305700E94851120E030E048E452E40E943610E5
S11305800E949E10CB017DDF8FC070E080E090E080
S11305900E94D11020E030E044EA51E40E94851129
S11305A020E030E048E452E40E9436100E949E109D
S11305B0CB016DDF79C070E080E090E00E94D11043
S11305C020E030E044EA51E40E94851120E030E06C
S11305D048E452E40E9436100E949E10CB015DDF75
S11305E063C070E080E090E00E94D11020E030E031
S11305F044EA51E40E94851120E030E048E452E4EA
S11306000E9436106B017C016C2F70E080E090E05A
S11306100E94D11020E030E044EA51E40E948511A8
S11306209B01AC01C701B6010E9435100E949E10C7
S11306304B015C01C701B6010E949E10DC01CB0195
S1130640B40102DF31C070E080E090E00E94D1107C
S113065020E030E044EA51E40E94851120E030E0DB
S113066048E452E40E9436106B017C010E949E1003
S11306704B015C016C2F70E080E090E00E94D1108F
S113068020E030E044EA51E40E9485119B01AC0172
S1130690C701B6010E9435100E949E10DC01CB01F7
S11306A0B401D2DE01C0CCDECF91FF90EF90DF9099
S11306B0CF90BF90AF909F908F90089540E050E00E
S11306C0B0E0A0E00FC0F901E80FF91FEC5AFD4FAC
S11306D0108201968A309105B1F74F5F5F4F433125
S11306E0510579F08B2F9A2F9A01220F331F220F75
S11306F0331F220F331FBA01660F771F260F371FD0
S1130700E2CF89E090E09093200280931F02109240
S113071052011092510110924F0183E08093A5027F
S11307208093AF0284E08093B0020895813041F059
S1130730882341F0823041F0833041F482E008950F
S113074080E0089581E0089583E0089584E00895A9
S1130750811103C080914F01089590914F01992315
S1130760A1F190914F01913039F48130D9F0823068
S1130770D9F08330B1F41AC090914F01923039F41A
S11307808130B1F08230B1F0833059F415C09091CA
S11307904F01933099F4813099F0823099F083308D
S11307A099F0089580E0089583E0089582E0089523
S11307B083E0089581E0089580E0089584E0089539
S11307C082E0089580E0089581E00895089590916D
S11307D04F01811103C0892FA9DF982F91110BC0FC
S11307E020915101309152012F5F3F4F30935201BC
S11307F02093510118C0913051F48091510190918E
S113080052010197909352018093510108959230BF
S113081051F480911F02909120020197909320023D
S113082080931F020895933049F480911F029091A0
S1130830200201969093200280931F02089588DF7E
S113084080934F01089541111CC06F5F7F4F6A3040
S113085071050CF069C08331910508F067C0FC0193
S1130860EE0FFF1F880F991F880F991F880F991F7C
S11308708E0F9F1F680F791FFB01EC5AFD4F80817B
S113088008954330D9F40196833191050CF050C09A
S11308906930710508F04EC0FC01EE0FFF1F880F90
S11308A0991F880F991F880F991F8E0F9F1F680F1C
S11308B0791FFB01EC5AFD4F808108954230C1F449
S11308C001979923CCF169307105C0F5FC01EE0F55
S11308D0FF1F880F991F880F991F880F991F8E0F6C
S11308E09F1F680F791FFB01EC5AFD4F808108950B
S11308F04130C9F461507109772314F183319105B2
S113090008F5FC01EE0FFF1F880F991F880F991F30
S1130910880F991F8E0F9F1F680F791FFB01EC5AD8
S1130920FD4F80810895089580E0089580E0089542
S113093080E0089580E0089580E0089580E00895BF
S113094080E0089580E00895EF92FF920F931F9343
S1130950CF93DF930197EFEFFFEF00E010E06150DA
S11309607109EE24EA94FF24FA941CC083319105A2
S113097068F44A30510550F4ED01C40FD51FCC5A28
S1130980DD4FC881CC2311F00F5F1F4F2F5F3F4F06
S11309904F5F5F4F2230310549F731960196E230BF
S11309A0F10581F0AB012E2D3F2DDC01EC01CC0FC4
S11309B0DD1FAA0FBB1FAA0FBB1FAA0FBB1FAC0FC3
S11309C0BD1FD4CF81E0033011050CF480E0DF912A
S11309D0CF911F910F91FF90EF9008957F928F9286
S11309E09F92AF92BF92CF92DF92EF92FF920F93BA
S11309F01F93CF93DF93C0E0D0E0E12CF12C6894F7
S1130A00772471F80F2EF1E2CF2EF2E0DF2EF02DD5
S1130A1099249394A12C0F2EF3E08F2EF02DBB2458
S1130A20B39458C123EC8FE796E121508040904065
S1130A30E1F700C0000088EC90E0E1DCE7EEFFEFB6
S1130A4028E0E150F0402040E1F700C0000080E9D8
S1130A5091E0D5DC87EE9FEFE8E081509040E040E4
S1130A60E1F700C00000FE01EE0FFF1FEE0FFF1FB5
S1130A70E95AFE4F208131818E010F5F1F4FF8012B
S1130A80EE0FFF1FEE0FFF1FE95AFE4F8081918189
S1130A9028173907B1F5FE01EE0FFF1FEE0FFF1FF8
S1130AA0E95AFE4F22813381F801EE0FFF1FEE0F4A
S1130AB0FF1FE95AFE4F8281938101972817390756
S1130AC001F5E114F10409F404C1F701E05EFD4FFE
S1130AD0808181110EC0CC0FDD1FCC0FDD1FC95AE0
S1130AE0DE4F6A817B81888199812EDF882309F416
S1130AF0F0C0F701EF5DFD4F1082FFEFEF1AFF0A20
S1130B00E8C0FE01EE0FFF1FEE0FFF1FE95AFE4F74
S1130B1020813181F801EE0FFF1FEE0FFF1FE95A0C
S1130B20FE4F8081918128173907C9F5FE01EE0F28
S1130B30FF1FEE0FFF1FE95AFE4F22813381F80198
S1130B40EE0FFF1FEE0FFF1FE95AFE4F82819381C4
S1130B5001962817390719F5E114F10421F4F60177
S1130B60B082E92CFA2CF701E05EFD4F80818130E0
S1130B7071F4CC0FDD1FCC0FDD1FC95ADE4F6A8123
S1130B807B8188819981E0DE882309F4A2C0F70182
S1130B90EF5DFD4FB082FFEFEF1AFF0A9AC0FE012E
S1130BA0EE0FFF1FEE0FFF1FE95AFE4F2081318128
S1130BB0F801EE0FFF1FEE0FFF1FE95AFE4F808171
S1130BC09181019728173907C1F5FE01EE0FFF1F28
S1130BD0EE0FFF1FE95AFE4F22813381F801EE0F19
S1130BE0FF1FEE0FFF1FE95AFE4F828193812817E2
S1130BF0390719F5E114F10421F4F6018082E92C96
S1130C00FA2CF701E05EFD4F8081833071F4CC0F44
S1130C10DD1FCC0FDD1FC95ADE4F6A817B818881BD
S1130C20998192DE882309F454C0F701EF5DFD4FEA
S1130C308082FFEFEF1AFF0A4CC0FE01EE0FFF1F88
S1130C40EE0FFF1FE95AFE4F20813181F801EE0FAC
S1130C50FF1FEE0FFF1FE95AFE4F8081918101961D
S1130C6028173907B1F5FE01EE0FFF1FEE0FFF1F26
S1130C70E95AFE4F22813381F801EE0FFF1FEE0F78
S1130C80FF1FE95AFE4F828193812817390709F51E
S1130C90E114F10421F4F6017082E92CFA2CF70135
S1130CA0E05EFD4F8081823069F4CC0FDD1FCC0FF4
S1130CB0DD1FC95ADE4F6A817B818881998144DEB8
S1130CC0882339F0F701EF5DFD4F7082FFEFEF1AD3
S1130CD0FF0AE80180915301909154010197C817CC
S1130CE0D9070CF49FCEDF91CF911F910F91FF9004
S1130CF0EF90DF90CF90BF90AF909F908F907F90B8
S1130D0008956230710511F40197089563307105F7
S1130D1009F4019608956130710511F4019708955D
S1130D20672B09F4019608952F923F924F925F9298
S1130D306F927F928F929F92AF92BF92CF92DF92E7
S1130D40EF92FF920F931F93CF93DF93CDB7DEB74C
S1130D50C75FDE440FB6F894DEBF0FBECDBFC950E7
S1130D60D14B8883C75FDE44FE01EF5DF14B88EC15
S1130D70DF011D928A95E9F789E090E090932002C3
S1130D8080931F0282E090E090935201809351017E
S1130D9000E010E0412C512CEE24E394F12C0F2EB2
S1130DA0F8ECBF2EF02D60915101709152018091A9
S1130DB01F0290912002402F46DD833059F5F20145
S1130DC0EE0FFF1F21E23EE42C0F3D1FE20FF31F45
S1130DD0F182E08280911F0290912002B80191DF9C
S1130DE0B49C6001B59CD00C112441E050E04C0F40
S1130DF05D1FC40ED51ED6018D939C938091510125
S1130E0090915201B80187DFF60193838283FFEF4B
S1130E104F1A5F0A0F5F1F4F0430110521F6141497
S1130E2015040CF00FC2CF5DD14B28813981C1521A
S1130E30DE44F9013197EE0FFF1FEE0FFF1F41E073
S1130E4050E04C0F5D1FE40FF51F808191814281BA
S1130E505381FC01EE0FFF1F880F991F880F991F04
S1130E60880F991FE80FF91FE40FF51FEC5AFD4F87
S1130E708081C950D14B5881C75FDE44851709F47E
S1130E80BDC0CE018D5D914BC351D14B99838883F5
S1130E90CD5EDE44DE011196C151D14BB983A883E6
S1130EA0CF5EDE44CF50D14B19821882C15FDE443D
S1130EB0212C312C32015DC0F80120813181C351D4
S1130EC0D14B48815981CD5EDE444E5F5F4FC351A3
S1130ED0D14B59834883CD5EDE44C901019752E367
S1130EE0529DF001539DF00D1124E80FF91FEE0FF0
S1130EF0FF1FEE0FFF1F81E090E08C0F9D1FE80F96
S1130F00F91F8081918142815381BC01660F771F53
S1130F10FC01EE0FFF1FEE0FFF1FEE0FFF1FE60F8A
S1130F20F71FE40FF51FEC5AFD4F8081C151D14BDF
S1130F30A881B981CF5EDE44A853BF4FC151D14BC4
S1130F40B983A883CF5EDE44CF50D14BE881F981C9
S1130F50C15FDE44F296CF50D14BF983E883C15F81
S1130F60DE44C950D14BF881C75FDE448F1709F4C2
S1130F7047C000E010E0C351D14B2881CD5EDE4470
S1130F80C551D14B2883CB5EDE44C251D14B38814D
S1130F90CE5EDE44C451D14B3883CC5EDE44C351B3
S1130FA0D14B48815981CD5EDE4442505109C7512D
S1130FB0D14B59834883C95EDE4452E3529D2001DC
S1130FC0539D500C1124C151D14B8881CF5EDE4416
S1130FD0CB50D14B8883C55FDE44C051D14B98813F
S1130FE0C05FDE44CA50D14B9883C65FDE44CD5007
S1130FF0D14B39822882C35FDE4430C0212C312C8E
S1131000121613062CF588EC829DF001839DF00DD9
S11310101124A1E0B0E0AC0FBD1FEA0FFB1F80E07C
S113102090E040815181DC01AA0FBB1FAA0FBB1FB6
S1131030A95ABE4F11965C934E93428153811396E5
S11310405C934E931297019634968217930749F74F
S11310503093540120935301C1DCF4C0C551D14BEA
S11310602880CB5EDE44C451D14B3880CC5EDE4454
S1131070C751D14BE881F981C95EDE44E080F1803B
S11310804701F1E08F1A9108F201E80DF91DEE0F06
S1131090FF1FEE0FFF1F21E030E02C0F3D1FE20F7A
S11310A0F31FA280B380C080D180402FB501C60158
S11310B0CADB882309F4B2C0402FB501C601C3DBE3
S11310C0823009F4ABC033E0E316F1047CF1B801DB
S11310D0C60117DE670143E0C41AD108F201EC0D22
S11310E0FD1DEE0FFF1FEE0FFF1FA1E0B0E0AC0FE0
S11310F0BD1FEA0FFB1F2081318182179307B1F4D2
S1131100B801C50108DEC40CD51CF601EE0FFF1FA3
S1131110EE0FFF1F21E030E02C0F3D1FE20FF31F05
S1131120228133818217930709F478C01E141F04A7
S1131130A4F538EC369DD001379DB00D112441E063
S113114050E04C0F5D1FA40FB51FCF50D14B288129
S11311503981C15FDE442E0D3F1D220F331F220F44
S1131160331F240F351FCB50D14BE881C55FDE44BC
S1131170CA50D14BF881C65FDE44808191811196BB
S11311809C938E938281938113969C938E93129752
S113119034961496E217F30781F7840C951C880C97
S11311A0991C880C991C81E090E08C0F9D1F880E7F
S11311B0991EB801D4018D919C91A3DDB2E3B69D33
S11311C06001B79DD00C1124CE0CDF1CCC0CDD1CAF
S11311D0CC0CDD1CE1E0F0E0EC0FFD1FCE0EDF1EB9
S11311E0D6018D939C93B801F4018281938193DDA0
S11311F0D60113969C938E931297F301EE0FFF1F63
S113120021E23EE42C0F3D1FE20FF31F3FEFE31AF0
S1131210F30AF182E0824FEF641A740A0F5F1F4FE2
S11312200430110509F01ACF8101CD50D14B28802B
S11312303980C35FDE445FEF251A350A261437046C
S11312400CF43ACEC950D14B0FB6F894DEBF0FBEA2
S1131250CDBFDF91CF911F910F91FF90EF90DF9061
S1131260CF90BF90AF909F908F907F906F905F9042
S11312704F903F902F9008956BDAE0915501F091D3
S11312805601EF5DFD4F208191E0281390E0892FF6
S11312900895FC0164177507E4F480E090E0A1E090
S11312A0B0E09D01062E02C0220F331F0A94E2F71C
S11312B02E233F23062E02C0359527950A94E2F784
S11312C0232B09F001966F5F7F4F6417750749F769
S11312D0089580E090E008954BE050E060E070E015
S11312E0D8DF21E002970CF020E0822F0895CF93FD
S11312F0DF93EC0180910A01811110C082E390E038
S1131300BDD827E081E89DE0215080409040E1F77E
S113131000C0000081E080930A0131C04BE050E03E
S113132060E070E0CE01B5DF049724F089E080939B
S1131330120325C046E050E065E070E0CE01A9DF6D
S1131340892B21F082E390E099D819C04BE050E05A
S113135066E070E0CE019DDF1816190624F486E4D9
S113136090E095D80CC045E050E060E070E0CE011C
S113137090DF181619061CF486E490E08ED8DF91ED
S1131380CF910895AF92BF92CF92DF92EF92FF92E6
S11313900F931F93CF93DF93EC018B017A016901C3
S11313A0F8D25C019601A701B801CE01ADD28A0D35
S11313B09B1D9C01220F331F220F331F220F331F4B
S11313C0820F931FDF91CF911F910F91FF90EF90A8
S11313D0DF90CF90BF90AF900895CF92DF92EF92BD
S11313E0FF926091000170910101C0901C03D090A4
S11313F01D03E0901E03F0901F03882777FD80955E
S1131400982FCFD6A701960195D6882334F482E08D
S113141016DA84E08093120305C080914B01909109
S11314204C0135D8FF90EF90DF90CF900895CF9284
S1131430DF92EF92FF926091000170910101C090E0
S11314401C03D0901D03E0901E03F0901F03882717
S113145077FD8095982FA5D6A70196016BD6882392
S113146034F483E0ECD983E08093120305C08091C7
S11314704B0190914C0111D8FF90EF90DF90CF90E9
S11314800895CF92DF92EF92FF92609100017091E4
S11314900101C0901C03D0901D03E0901E03F09046
S11314A01F03660F771F882777FD8095982F79D6BD
S11314B0A70196013FD6882334F481E0C0D985E0A2
S11314C08093120306C080914B0190914C010E94BD
S11314D04D02FF90EF90DF90CF900895883621E081
S11314E0920734F088569140883621E09207D4F769
S11314F0992324F488599E4F9923E4F30895CF92B5
S1131500DF92EF92FF920F931F93CF93DF936B01C0
S11315107C01EA01890160910D0170910E01882717
S113152077FD8095982F3DD6A701960103D6882391
S11315301CF0093111055CF4CE01825F9E4FCEDFB1
S1131540909318038093170382E080931203DF9132
S1131550CF911F910F91FF90EF90DF90CF9008955E
S1131560CF92DF92EF92FF920F931F93CF93DF936B
S11315706B017C01EA01890160910D0170910E01FA
S1131580882777FD8095982F0CD6A7019601D2D590
S113159088231CF0093111055CF4CE01865A9F4F53
S11315A09DDF909318038093170381E080931203C7
S11315B0DF91CF911F910F91FF90EF90DF90CF902B
S11315C008958C549F4F8ADF9093180380931703D8
S11315D088E0809312030895209102013091030161
S11315E0281739075CF4209102013091030181E04E
S11315F090E02617370724F080E0089580E090E01B
S113160008956F927F928F929F92AF92BF92CF92E2
S1131610DF92EF92FF920F931F93CF93DF93EC012E
S11316204B01CA013801B901D7DF8C01B401CE01E5
S1131630D3DF0115110519F4892B19F453C0892B33
S1131640F9F083E019DE8823C9F020E030E044E9B2
S113165051E4C701B6010AD571D570930E016093A8
S11316600D0186E0809312038091550190915601FB
S11316700196909356018093550143C0012BE9F0E4
S113168082E0FADD8823C9F020E030E044E951E447
S1131690C701B601EBD452D570930E0160930D01CE
S11316A087E0809312038091550190915601019631
S11316B0909356018093550124C08AE16816710401
S11316C004F180E0D9DD8823E1F08BE080931203FC
S11316D08091550190915601019690935601809303
S11316E055010FC081E0C8DD882359F0C50169DFC9
S11316F080915501909156010196909356018093E3
S11317005501DF91CF911F910F91FF90EF90DF90E2
S1131710CF90BF90AF909F908F907F906F900895DF
S11317202091020130910301821793075CF4209108
S113173002013091030181E090E06217730724F005
S113174080E0089580E090E00895CB01E9DF892BE3
S113175019F085E0809312030895E2DF892B19F0D4
S113176085E0809312030895DBDF892B19F085E06F
S1131770809312030895D4DF892B19F085E08093B8
S113178012030895209102013091030128173907AB
S11317905CF4209102013091030181E090E026176E
S11317A0370724F480E0089580E090E008952F92B4
S11317B03F924F925F926F927F928F929F92AF92DD
S11317C0BF92CF92DF92EF92FF920F931F93CF932A
S11317D0DF9300D000D0CDB7DEB79C838B834B0161
S11317E02A013901B901CA01F7DE9A838983B40158
S11317F08B819C81F1DE1C01093111053CF01092B2
S11318000C0110920B0101E010E014C080910B0157
S113181090910C01019690930C0180930B0180919F
S11318200B0190910C0131E020E0C3970CF030E003
S1131830032F122FB4018B819C81A4DF4C01B301CF
S1131840C201A0DF2114310441F429813A81232B00
S113185009F441C0892809F43BC041E0012B09F493
S113186040E061E0232809F460E031E0892B09F4C9
S113187030E020E0832F0E94E60320E030E044E9DA
S113188051E4C701B601F2D359D470930E016093A9
S11318900D0186E08093120320C020E040E060E068
S11318A081E00E94E603C501865A9F4F17DE90939C
S11318B018038093170381E0809312030EC020E085
S11318C040E060E080E00E94E603C5017ADE05C0E6
S11318D0012B19F302C0012B91F30F900F900F907D
S11318E00F90DF91CF911F910F91FF90EF90DF90B8
S11318F0CF90BF90AF909F908F907F906F905F90AC
S11319004F903F902F900895FC01E60FF71FFC972E
S11319108CF4FA01E20FF31FFC9764F4841B950B1B
S1131920261B370B820F931F99230CF40196959570
S113193087950895E0910401F0910501E817F907EE
S11319403CF4E0910401F0910501E617F707C4F0B7
S11319508617970754F4209104013091050142172A
S113196053078CF4841B950B089580910401909186
S113197005012817390754F4C901861B970B0895EC
S113198080E090E0089580E090E0089580E090E0A9
S11319900895FC01E60FF71FFC974CF5FA01E20FDE
S11319A0F31FFC97D4F4821B930B9C0112F42F5F5A
S11319B03F4FF901F595E795461B570B9A0112F431
S11319C02F5F3F4FC901959587958E0F9F1F9923D0
S11319D00CF40196959587950895861B970B9C01A9
S11319E012F42F5F3F4FC901959587950895FA0129
S11319F0E20FF31FFC974CF4421B530BCA019923CB
S1131A000CF40196959587950895209104013091E1
S1131A100501281739073CF4209104013091050190
S1131A2026173707C4F08617970754F444979C0188
S1131A30992314F42F5F3F4FC90195958795089515
S1131A4024E130E0261B370BC90199230CF40196DD
S1131A5095958795089580E090E00895CF92DF9260
S1131A60EF92FF92CF93DF932091110130911201F5
S1131A704091490150914A016091190170911A01F4
S1131A8080914701909148017DDCEC01BC018827DD
S1131A9077FD8095982F85D36B017C0168E070E019
S1131AA0CE010E94BB0120E030E0A901C701B601CC
S1131AB041D388230CF037C060914D0170914E01E1
S1131AC0882777FD8095982F6CD3A7019601CDD2F6
S1131AD020E030E04FE753E414D418166CF460911E
S1131AE04D0170914E016F5F7109882777FD8095D4
S1131AF0982F57D36B017C01C0914D01D0914E01B9
S1131B0060914D0170914E01882777FD8095982F43
S1131B1048D3A7019601AAD211D3DC01CB01BE019F
S1131B200E94240236C060914D0170914E018827B5
S1131B3077FD8095982F35D3A701960197D220E0A1
S1131B4030E04FE753E4DDD318167CF480914D0167
S1131B5090914E016FEF70E0681B790B882777FD39
S1131B608095982F1ED36B017C0160914D0170917B
S1131B704E01C0914D01D0914E01882777FD80958B
S1131B80982F0FD3A701960170D2D8D2CE010E940C
S1131B902402DF91CF91FF90EF90DF90CF900895D2
S1131BA00E94530236D20E9404020E945E0386E021
S1131BB091E0909316018093150182E00E94230125
S1131BC081E090E0909321038093200378940E9415
S1131BD02002109256011092550110925302109255
S1131BE0500185E0809312032FE683E09DE22150AB
S1131BF080409040E1F700C00000D4E0C5E080914F
S1131C001B0190911C01892B39F080911501909151
S1131C1016010E947302F3CF809143019091440115
S1131C20892B09F463C1809145019091460154DBED
S1131C30811116C080911203853091F48091530272
S1131C40843071F081E08093500121E040E060E055
S1131C5080E00E94E6031092120381E00E94E703F1
S1131C608091120390E08C30910508F0CCC0FC0107
S1131C70E65AFF4FADC30E9420022FEA80E099E0AC
S1131C80215080409040E1F700C00000D0935302FF
S1131C9083E04AD8C0931203109256011092550162
S1131CA0B2C0809145019091460121DBACC0809186
S1131CB01D0190911E0191DBA6C080911D019091A0
S1131CC01E01B5DBA0C02091130130911401409195
S1131CD01D0150911E0160911303709114038091B2
S1131CE01503909116030BDCB9DE8DC0209113010E
S1131CF03091140140911D0150911E016091130314
S1131D0070911403809115039091160329DCA6DECB
S1131D107AC06091490170914A0180914701909184
S1131D20480113DD9BDE6FC06091110170911201B7
S1131D308091190190911A0110DD90DE64C08091A8
S1131D401D0190911E019DDB5EC080915302843081
S1131D5011F5A0901D01B0901E01C0901303D09006
S1131D601403E0901503F0901603009113011091F1
S1131D7014012091490130914A0140914701509149
S1131D8048016091110170911201809119019091A3
S1131D901A0137DC21C0A0901D01B0901E01C09033
S1131DA01303D0901403E0901503F09016030091F0
S1131DB01301109114012091490130914A0140917D
S1131DC04701509148016091110170911201809175
S1131DD0190190911A01EBDC41DE15C060911101EB
S1131DE0709112018091190190911A01BDDC36DEC7
S1131DF00AC06091110170911201809119019091B2
S1131E001A01B9DC2BDE80911203853061F08091D8
S1131E101203863041F080911203843021F08091C6
S1131E2012038330C9F513D11DD110921C031092F3
S1131E301D0310921E0310921F03609113037091EF
S1131E401403809115039091160320E030E04FE2D3
S1131E5053E457D218160CF0D2CE81E00E94E70367
S1131E6060911303709114038091150390911603EC
S1131E7020E030E04FE253E4F8D060931303709312
S1131E801403809315039093160320E041E060E06F
S1131E9080E00E94E603B3CE80911203813041F0CA
S1131EA080911203823021F080911203883059F41A
S1131EB0D5D0D1D0109213031092140310921503AD
S1131EC0109216039CCEC7D01092130310921403E1
S1131ED01092150310921603C5D010921C03109291
S1131EE01D0310921E0310921F0389CE0E9420022C
S1131EF086CE1F920F920FB60F9211240BB60F923B
S1131F002F933F934F935F936F937F938F939F93FD
S1131F10AF93BF93EF93FF9380911001882379F1DE
S1131F20809153028430B1F06091130370911403D3
S1131F30809115039091160320E030E040E85FE3C0
S1131F4095D06093130370931403809315039093B7
S1131F50160315C060911303709114038091150347
S1131F609091160320E030E040E05FE37FD060937F
S1131F7013037093140380931503909316038091B5
S1131F800F018823B1F060911C0370911D038091AF
S1131F901E0390911F0320E030E040E85FE366D029
S1131FA060931C0370931D0380931E0390931F037F
S1131FB014C060911C0370911D0380911E039091C5
S1131FC01F0320E030E0A90151D060931C037093FB
S1131FD01D0380931E0390931F0380911903909116
S1131FE01A03019690931A0380931903FF91EF91BA
S1131FF0BF91AF919F918F917F916F915F914F911D
S11320003F912F910F900BBE0F900FBE0F901F901A
S11320101895E1E9F0E080818C60808382E0809310
S113202099009DE39093980080937100109213039C
S113203010921403109215031092160310921C03AD
S113204010921D0310921E0310921F03089581E045
S113205080931001089510921001089581E08093F7
S11320600F01089510920F0108955058BB27AA2715
S11320700ED00DC1FED030F003D120F031F49F3FDB
S113208011F41EF4F3C00EF4E095E7FBE9C0E92F68
S11320900FD180F3BA17620773078407950718F006
S11320A071F49EF527C10EF4E0950B2EBA2FA02DE6
S11320B00B01B90190010C01CA01A0011124FF27F1
S11320C0591B99F0593F50F4503E68F11A16F040EC
S11320D0A22F232F342F4427585FF3CF46953795EB
S11320E02795A795F0405395C9F77EF41F16BA0BB0
S11320F0620B730B840BBAF09150A1F0FF0FBB1F5E
S1132100661F771F881FC2F70EC0BA0F621F731FA6
S1132110841F48F4879577956795B795F7959E3F03
S113212008F0B3CF9395880F08F09927EE0F979591
S11321308795089571D008F481E0089504D06894D7
S1132140B111D9C00895BCD088F09F5790F0B92F31
S11321509927B751A0F0D1F0660F771F881F991FF8
S11321601AF0BA95C9F712C0B13081F0C3D0B1E00A
S11321700895C0C0672F782F8827B85F39F0B93F1A
S1132180CCF3869577956795B395D9F73EF49095FA
S11321908095709561957F4F8F4F9F4F0895E89478
S11321A009C097FB3EF490958095709561957F4F9B
S11321B08F4F9F4F9923A9F0F92F96E9BB27939549
S11321C0F695879577956795B795F111F8CFFAF459
S11321D0BB0F11F460FF1BC06F5F7F4F8F4F9F4F8A
S11321E016C0882311F096E911C0772321F09EE8E8
S11321F0872F762F05C0662371F096E8862F70E04E
S113220060E02AF09A95660F771F881FDAF7880F27
S11322109695879597F90895990F0008550FAA0B7D
S1132220E0E8FEEF16161706E807F907C0F01216E5
S11322301306E407F50798F0621B730B840B950BE8
S113224039F40A2661F0232B242B252B21F408953D
S11322500A2609F4A140A6958FEF811D811D0895DA
S113226097F99F6780E870E060E008959FEF80EC45
S1132270089500240A9416161706180609060895E8
S113228000240A9412161306140605060895092E4E
S11322900394000C11F4882352F0BB0F40F4BF2BBD
S11322A011F460FF04C06F5F7F4F8F4F9F4F0895FD
S11322B057FD9058440F551F59F05F3F71F04795F3
S11322C0880F97FB991F61F09F3F79F087950895D8
S11322D0121613061406551FF2CF4695F1DF08C0F7
S11322E0161617061806991FF1CF86957105610514
S11322F008940895E894BB2766277727CB0197F9BC
S113230008958ADF08F48FEF08950BD0C0CFB1DFB2
S113231028F0B6DF18F0952309F0A2CFA7CF112437
S1132320EACFC6DFA0F3959FD1F3950F50E0551F78
S1132330629FF001729FBB27F00DB11D639FAA2716
S1132340F00DB11DAA1F649F6627B00DA11D661F65
S1132350829F2227B00DA11D621F739FB00DA11D86
S1132360621F839FA00D611D221F749F3327A00D40
S1132370611D231F849F600D211D822F762F6A2FDC
S113238011249F5750408AF0E1F088234AF0EE0F61
S1132390FF1FBB1F661F771F881F91505040A9F76E
S11323A09E3F510570F05CCFA6CF5F3FECF3983EA3
S11323B0DCF3869577956795B795F795E7959F5FD5
S11323C0C1F7FE2B880F911D9695879597F908956F
S11323D0EE0FFF1F0590F491E02D0994F894FFCFC0
S10D23E05F003200280030303000A6
S9030000FC
