S0180000537479726D6F64756C5F365F322832292E7372656390
S113000065C0000082C0000080C000007EC0000007
S11300107CC000007AC0000078C0000076C00000F8
S113002074C0000072C0000070C000006EC0000008
S11300306CC000006AC0000068C0000066C0000018
S113004064C0000062C0000060C000005EC0000028
S11300505CC000005AC0000058C0000056C0000038
S113006054C0000052C0000051C000004EC0000047
S11300704CC000004AC0000048C0000046C0000058
S11300800C94730F42C0000040C0000045014E01B3
S11300905501600167017201790184018B019601A8
S11300A09B01A001A501430245025B027102870284
S11300B09D02CF023E0E440E510E8D0E820E9E0EF8
S11300C05C0E6F0E980E1F0EEB0EF60E11241FBE63
S11300D0CFEFD0E4DEBFCDBF11E0A0E0B1E0EAEDA8
S11300E0F3E200E00BBF02C007900D92AC30B10701
S11300F0D9F723E0ACE0B1E001C01D92A532B2070C
S1130100E1F70E94A60D0C94EB117ACF1F920F9287
S11301100FB60F9211240BB60F922F933F934F9368
S11301205F936F937F938F939F93AF93BF93EF935B
S1130130FF938091B900887F883AA1F410921A0144
S1130140109219018091190190911A01E0911701FF
S1130150F0911801E80FF91F80818093BB0085ECB2
S11301608093BC008091B900887F883BC9F480915A
S1130170190190911A01E0911701F0911801E80F0B
S1130180F91F80818093BB008091190190911A011D
S1130190019690931A018093190185EC8093BC0019
S11301A08091B900887F803C19F485EC8093BC0071
S11301B08091B900887F803639F485EC8093BC0047
S11301C010921A01109219018091B900887F803829
S11301D069F58091BB002091190130911A012430F6
S11301E0310594F420911D0130911E01232B91F0CF
S11301F02091190130911A01E0911701F091180131
S1130200E20FF31F808306C06091190170911A01F7
S113021090E031D08091190190911A010196909348
S11302201A018093190185EC8093BC008091B90078
S1130230887F803A19F485EC8093BC00FF91EF919C
S1130240BF91AF919F918F917F916F915F914F91EA
S11302503F912F910F900BBE0F900FBE0F901F90E8
S113026018958093BA0085EC8093BC00109222010B
S1130270109221010895FB013297ED30F10508F049
S113028068C0EA5BFF4F0C94E21186FB222720F939
S113029030E030934601209345010895982F882734
S11302A0909348018093470108952091470130912C
S11302B04801820F931F909348018093470108954A
S11302C0982F88279093200180931F0108952091EF
S11302D01F0130912001820F931F9093200180937E
S11302E01F010895982F8827909316018093150174
S11302F008952091150130911601820F931F909358
S11303001601809315010895982F8827909344012E
S11303108093430108952091430130914401820F59
S1130320931F9093440180934301089590931C017B
S113033080931B01089590934A0180934901089585
S113034090934C0180934B010895909314018093F2
S11303501301089590938900809388000895559A15
S113036010928500109284008FEF91E190938700A2
S113037080938600E0E8F0E0808182688083E1E891
S1130380F0E080818B6180838EE591E09093890019
S113039080938800089514BC1092B000089521E859
S11303A024BD2093B0001816190614F4129A04C040
S11303B012989195819591091616170614F4119ABD
S11303C004C011987195619571098093B30067BD5C
S11303D00895BC01E4CF0895919581959109BC01DC
S11303E0DECF089566277727681B790BD8CF089549
S11303F0BC01919581959109D2CF08958EE690E044
S11304009093500180934F0184E690E090934E01C5
S113041080934D0111B88FEF84B98AB981E884BD06
S11304208093B00092E095BD84E687BD9093B100BF
S11304308093B30016BC1092B20008958F929F92DD
S1130440AF92BF92CF92DF92EF92FF92CF93FC01D3
S1130450808183FB222720F930E030931E01209312
S11304601D0162816F52C381CF528181E0EDE80F9B
S11304708E2F90E08730910508F0C1C0FC01ED5A41
S1130480FF4F0C94E21187DFBBC070E080E090E086
S11304900E94CB1020E030E044EA51E40E947F1136
S11304A020E030E048E452E40E9430100E949810AA
S11304B0CB018FDFA5C070E080E090E00E94CB10FC
S11304C020E030E044EA51E40E947F1120E030E073
S11304D048E452E40E9430100E949810CB017CDF63
S11304E08FC070E080E090E00E94CB1020E030E00C
S11304F044EA51E40E947F1120E030E048E452E4F1
S11305000E9430100E949810CB016CDF79C070E01B
S113051080E090E00E94CB1020E030E044EA51E417
S11305200E947F1120E030E048E452E40E94301041
S11305300E949810CB015CDF63C070E080E090E023
S11305400E94CB1020E030E044EA51E40E947F1185
S113055020E030E048E452E40E9430106B017C015A
S11305606C2F70E080E090E00E94CB1020E030E03F
S113057044EA51E40E947F119B01AC01C701B6011A
S11305800E942F100E9498104B015C01C701B60114
S11305900E949810DC01CB01B40101DF31C070E08E
S11305A080E090E00E94CB1020E030E044EA51E487
S11305B00E947F1120E030E048E452E40E943010B1
S11305C06B017C010E9498104B015C016C2F70E060
S11305D080E090E00E94CB1020E030E044EA51E457
S11305E00E947F119B01AC01C701B6010E942F102C
S11305F00E949810DC01CB01B401D1DE01C0CBDE36
S1130600CF91FF90EF90DF90CF90BF90AF909F90ED
S11306108F90089540E050E0B0E0A0E00FC0F901F1
S1130620E80FF91FE95AFD4F108201968A309105AF
S1130630B1F74F5F5F4F4331510579F08B2F9A2FFC
S11306409A01220F331F220F331F220F331FBA01C7
S1130650660F771F260F371FE2CF89E090E0909353
S1130660220280932102109254011092530110929D
S1130670510183E08093A8028093B20284E08093C6
S1130680B3020895813041F0882341F0823041F073
S1130690833041F084E0089580E0089581E0089576
S11306A083E0089582E00895811103C0809151018F
S11306B00895909151019923A1F1909151019130A4
S11306C039F48130D9F08230D9F08330B1F41AC0D2
S11306D090915101923039F48130B1F08230B1F00F
S11306E0833059F415C090915101933099F48130BD
S11306F099F0823099F0833099F0089580E008955C
S113070083E0089582E0089583E0089581E00895E8
S113071080E0089584E0089582E0089580E00895DB
S113072081E00895089590915101811103C0892FAA
S1130730A9DF982F91110BC02091530130915401DE
S11307402F5F3F4F309354012093530118C09130D1
S113075051F4809153019091540101979093540165
S1130760809353010895923051F480912102909125
S113077022020197909322028093210208959330DC
S113078049F48091210290912202019690932202D1
S113079080932102089588DF8093510108954111C7
S11307A01CC06F5F7F4F6A3071050CF067C08331E6
S11307B0910508F065C09C01220F331F880F991F13
S11307C0880F991F880F991F820F931F680F791F35
S11307D0FB01E95AFD4F808108954330D9F4019615
S11307E0833191050CF04EC06930710508F04CC09E
S11307F0FC01EE0FFF1F880F991F880F991F880FA8
S1130800991FE80FF91F6E0F7F1FFB01E95AFD4F77
S1130810808108954230B9F40197C2F169307105BD
S1130820B8F5FC01EE0FFF1F880F991F880F991F61
S1130830880F991FE80FF91F6E0F7F1FFB01E95AFC
S1130840FD4F808108954130C1F46150710912F166
S11308508331910508F59C01220F331F880F991FDE
S1130860880F991F880F991F820F931F680F791F94
S1130870FB01E95AFD4F80810895089580E00895B1
S113088080E0089580E0089580E0089580E0089570
S113089080E0089580E0089580E008950F931F9309
S11308A0CF93DF93FC013197029600E010E0EB0157
S11308B021976E5F7F4F19C0E331F10568F42A3048
S11308C0310550F4DA01A20FB31FA95ABD4FAC9100
S11308D0AA2311F00F5F1F4F2F5F3F4F26173707D3
S11308E059F73196E817F90771F09E01AF01DF015E
S11308F0AA0FBB1F440F551F440F551F440F551F0C
S11309004A0F5B1FD9CF81E0033011050CF480E05E
S1130910DF91CF911F910F9108957F928F929F92B3
S1130920AF92BF92CF92DF92EF92FF920F931F93F9
S1130930CF93DF93C0E0D0E0E12CF12C68947724CE
S113094071F80F2EF4E2CF2EF2E0DF2EF02D992471
S11309509394A12C0F2EF3E08F2EF02DBB24B3948F
S113096058C123EC8FE796E1215080409040E1F795
S113097000C0000088EC90E0EDDCE7EEFFEF28E03B
S1130980E150F0402040E1F700C0000080E991E030
S1130990E1DC87EE9FEFE8E081509040E040E1F732
S11309A000C00000FE01EE0FFF1FEE0FFF1FE75A0D
S11309B0FE4F208131818E010F5F1F4FF801EE0F32
S11309C0FF1FEE0FFF1FE75AFE4F8081918128170A
S11309D03907B1F5FE01EE0FFF1FEE0FFF1FE75AB7
S11309E0FE4F22813381F801EE0FFF1FEE0FFF1F30
S11309F0E75AFE4F8281938101972817390701F541
S1130A00E114F10409F404C1F701ED5DFD4F8081A7
S1130A1081110EC0CC0FDD1FCC0FDD1FC75ADE4F76
S1130A206A817B818881998139DF882309F4F0C048
S1130A30F701EC5DFD4F1082FFEFEF1AFF0AE8C0EB
S1130A40FE01EE0FFF1FEE0FFF1FE75AFE4F20813E
S1130A503181F801EE0FFF1FEE0FFF1FE75AFE4F23
S1130A608081918128173907C9F5FE01EE0FFF1F18
S1130A70EE0FFF1FE75AFE4F22813381F801EE0F7C
S1130A80FF1FEE0FFF1FE75AFE4F828193810196ED
S1130A902817390719F5E114F10421F4F601B0829D
S1130AA0E92CFA2CF701ED5DFD4F8081813071F462
S1130AB0CC0FDD1FCC0FDD1FC75ADE4F6A817B814F
S1130AC088819981EBDE882309F4A2C0F701EC5DEB
S1130AD0FD4FB082FFEFEF1AFF0A9AC0FE01EE0F3E
S1130AE0FF1FEE0FFF1FE75AFE4F20813181F801EF
S1130AF0EE0FFF1FEE0FFF1FE75AFE4F808191811B
S1130B00019728173907C1F5FE01EE0FFF1FEE0FFD
S1130B10FF1FE75AFE4F22813381F801EE0FFF1FBA
S1130B20EE0FFF1FE75AFE4F828193812817390782
S1130B3019F5E114F10421F4F6018082E92CFA2C70
S1130B40F701ED5DFD4F8081833071F4CC0FDD1F23
S1130B50CC0FDD1FC75ADE4F6A817B818881998162
S1130B609DDE882309F454C0F701EC5DFD4F8082BB
S1130B70FFEFEF1AFF0A4CC0FE01EE0FFF1FEE0F4E
S1130B80FF1FE75AFE4F20813181F801EE0FFF1F4E
S1130B90EE0FFF1FE75AFE4F8081918101962817BF
S1130BA03907B1F5FE01EE0FFF1FEE0FFF1FE75AE5
S1130BB0FE4F22813381F801EE0FFF1FEE0FFF1F5E
S1130BC0E75AFE4F828193812817390709F5E1140A
S1130BD0F10421F4F6017082E92CFA2CF701ED5DA1
S1130BE0FD4F8081823069F4CC0FDD1FCC0FDD1FF7
S1130BF0C75ADE4F6A817B81888199814FDE8823C1
S1130C0039F0F701EC5DFD4F7082FFEFEF1AFF0A38
S1130C10E80180915501909156010197C817D907B1
S1130C200CF49FCEDF91CF911F910F91FF90EF9025
S1130C30DF90CF90BF90AF909F908F907F9008955A
S1130C406230710511F4019708956330710509F458
S1130C50019608956130710511F401970895672B89
S1130C6009F4019608952F923F924F925F926F92EA
S1130C707F928F929F92AF92BF92CF92DF92EF9228
S1130C80FF920F931F93CF93DF93CDB7DEB7C75F68
S1130C90DE440FB6F894DEBF0FBECDBFC950D14BB2
S1130CA08883C75FDE44FE01EF5DF14B88ECDF0112
S1130CB01D928A95E9F789E090E09093220280934F
S1130CC0210282E090E0909354018093530100E06C
S1130CD010E0412C512CEE24E394F12C0F2EF8EC6F
S1130CE0BF2EF02D60915301709154018091210227
S1130CF090912202402F53DD833059F5F201EE0F1B
S1130D00FF1F21E23EE42C0F3D1FE20FF31FF1828F
S1130D10E0828091210290912202B80191DFB49C7B
S1130D206001B59CD00C112441E050E04C0F5D1FD4
S1130D30C40ED51ED6018D939C938091530190913E
S1130D405401B80187DFF60193838283FFEF4F1AC2
S1130D505F0A0F5F1F4F0430110521F614141504A8
S1130D600CF013C2CF5DD14B28813981C152DE44CE
S1130D70F9013197EE0FFF1FEE0FFF1F41E050E026
S1130D804C0F5D1FE40FF51F808191810280F38178
S1130D90E02DAC01440F551F880F991F880F991F30
S1130DA0880F991F840F951F8E0F9F1FFC01E95A0E
S1130DB0FD4F8081C950D14B5881C75FDE448517F0
S1130DC009F4BBC0CE018D5D914BC151D14B9983C8
S1130DD08883CF5EDE44DE011196CF50D14BB983B8
S1130DE0A883C15FDE44CD50D14B19821882C35F02
S1130DF0DE44212C312C62C0C751D14BE881F981EA
S1130E00C95EDE4420813181C151D14B4881598171
S1130E10CF5EDE444E5F5F4FC151D14B598348834F
S1130E20CF5EDE44C901019752E3529DF001539D08
S1130E30F00D1124E80FF91FEE0FFF1FEE0FFF1F37
S1130E4081E090E08C0F9D1FE80FF91F8081918154
S1130E5042815381BC01660F771F880F991F880F49
S1130E60991F880F991F860F971F840F951FFC01E8
S1130E70E95AFD4F8081CF50D14BA881B981C15F20
S1130E80DE44A853BF4FCF50D14BB983A883C15F71
S1130E90DE44CD50D14BE881F981C35FDE44F29644
S1130EA0CD50D14BF983E883C35FDE44C950D14BA5
S1130EB0F881C75FDE448F1709F441C000E010E0F9
S1130EC0C151D14B2881CF5EDE44C351D14B28831D
S1130ED0CD5EDE44C051D14B3881C05FDE44C25187
S1130EE0D14B3883CE5EDE44C151D14B4881598108
S1130EF0CF5EDE4442505109C551D14B59834883DA
S1130F00CB5EDE4452E3529D3001539D700C11249C
S1130F10CF50D14B8881C15FDE44CB50D14B888305
S1130F20C55FDE44CE50D14B9881C25FDE44CA50C7
S1130F30D14B9883C65FDE4430C0212C312C12166D
S1130F4013062CF588EC829DD001839DB00D1124ED
S1130F50E1E0F0E0EC0FFD1FAE0FBF1F80E090E07A
S1130F604D915C911197FC01EE0FFF1FEE0FFF1FD7
S1130F70E75AFE4F5183408312964D915C9113972B
S1130F8053834283019614968217930749F730934B
S1130F90560120935501C1DCF8C0C351D14BF881EF
S1130FA0CD5EDE44C751D14BF883C95EDE44C251E5
S1130FB0D14B2881CE5EDE44C651D14B2883CA5E14
S1130FC0DE44C551D14BA881B981CB5EDE44ED909E
S1130FD0FC906701B1E0CB1AD108F301EC0DFD1DC3
S1130FE0EE0FFF1FEE0FFF1F21E030E02C0F3D1F1F
S1130FF0E20FF31F82809380A080B180402FB40160
S1131000C501CDDB882309F4B3C0402FB401C50169
S1131010C6DB823009F4ACC033E0E316F1047CF1A2
S1131020B801C5010DDE570143E0A41AB108F3016C
S1131030EA0DFB1DEE0FFF1FEE0FFF1FA1E0B0E056
S1131040AC0FBD1FEA0FFB1F20813181821793076C
S1131050B1F4B801C401FEDDF301EA0DFB1DEE0F8E
S1131060FF1FEE0FFF1F21E030E02C0F3D1FE20FAA
S1131070F31F228133818217930709F479C01E1468
S11310801F04A4F538EC349DD001359DB00D112416
S113109041E050E04C0F5D1FA40FB51FCD50D14B64
S11310A028813981C35FDE442E0D3F1D220F331F7B
S11310B0220F331F240F351FCB50D14BE881C55F5E
S11310C0DE44CA50D14BF881C65FDE4480819181F1
S11310D011969C938E938281938113969C938E9305
S11310E0129734961496E217F30781F75301AC0C68
S11310F0BD1CAA0CBB1CAA0CBB1C81E090E08C0F8D
S11311009D1FA80EB91EB801D5018D919C9198DD43
S1131110B2E3B49D6001B59DD00C1124CE0CDF1C4C
S1131120CC0CDD1CCC0CDD1CE1E0F0E0EC0FFD1F71
S1131130CE0EDF1ED6018D939C93B801F5018281FA
S1131140938188DDD60113969C938E931297F201B6
S1131150EE0FFF1F21E23EE42C0F3D1FE20FF31FB1
S11311603FEFE31AF30AF182E0824FEF441A540A84
S11311700F5F1F4F0430110509F00FCF5FEF251AE1
S1131180350A241435040CF437CEC950D14B0FB6AC
S1131190F894DEBF0FBECDBFDF91CF911F910F91A9
S11311A0FF90EF90DF90CF90BF90AF909F908F9083
S11311B07F906F905F904F903F902F90089574DAD6
S11311C0E0915701F0915801EC5DFD4F208191E0D1
S11311D0281390E0892F0895FC0164177507E4F43F
S11311E080E090E0A1E0B0E09D01062E02C0220F55
S11311F0331F0A94E2F72E233F23062E02C03595AF
S113120027950A94E2F7232B09F001966F5F7F4F2D
S11312106417750749F7089580E090E008954BE05E
S113122050E060E070E0D8DF21E003970CF020E0AC
S1131230822F0895CF93DF93EC0180910C018111EB
S113124010C082E390E0C5D827E081E89DE02150FA
S113125080409040E1F700C0000081E080930C01E1
S11312603BC049E050E068E070E0CE01B5DF1816FD
S113127019066CF445E050E064E070E0CE01ACDFA8
S11312801816190624F489E08093150325C046E056
S113129050E065E070E0CE019FDF892B21F082E30E
S11312A090E097D819C04BE050E066E070E0CE01C2
S11312B093DF1816190624F486E490E093D80CC042
S11312C045E050E060E070E0CE0186DF18161906B4
S11312D01CF486E490E08CD8DF91CF910895AF920E
S11312E0BF92CF92DF92EF92FF920F931F93CF930F
S11312F0DF93EC017B016A0159012BD38C01950129
S1131300A601B701CE01DED2EC01B801110F880BA2
S1131310990B41D76B017C01BE01DD0F880B990B42
S11313203AD720E030E040E250E4E9D79B01AC0139
S1131330C701B60195D620E030E040E850E4DFD79D
S1131340F7D6CB01DF91CF911F910F91FF90EF90D2
S1131350DF90CF90BF90AF900895CF92DF92EF923D
S1131360FF926091000170910101C0901F03D09021
S11313702003E0902103F0902203072E000C880B39
S1131380990B09D7A7019601CFD6882334F482E0BC
S113139002DA84E08093150305C080914D01909199
S11313A04E0120D8FF90EF90DF90CF900895CF9218
S11313B0DF92EF92FF926091000170910101C09061
S11313C01F03D0902003E0902103F0902203072E06
S11313D0000C880B990BDFD6A7019601A5D68823AC
S11313E034F483E0D8D983E08093150306C0809158
S11313F04D0190914E010E94F801FF90EF90DF9013
S1131400CF900895CF92DF92EF92FF926091000106
S113141070910101C0901F03D0902003E09021033C
S1131420F0902203660F771F072E000C880B990B90
S1131430B2D6A701960178D6882334F481E0ABD9DB
S113144085E08093150306C080914D0190914E0173
S11314500E94F801FF90EF90DF90CF9008958836B6
S113146021E0920734F088569140883621E09207B3
S1131470D4F799231CF488599E4FEAF308958F9268
S11314809F92AF92BF92EF92FF920F931F93CF93CD
S1131490DF934B015C01EA01790100910F01109186
S11314A01001B801110F880B990B75D6A501940191
S11314B03BD6882324F089E1E816F1045CF4CE01DC
S11314C0825F9E4FCCDF90931B0380931A0382E0CC
S11314D080931503DF91CF911F910F91FF90EF90AF
S11314E0BF90AF909F908F9008958F929F92AF92EC
S11314F0BF92EF92FF920F931F93CF93DF934B0111
S11315005C01EA01790100910F0110911001B80109
S1131510110F880B990B3FD6A501940105D688239A
S113152024F089E1E816F1045CF4CE01865A9F4F59
S113153096DF90931B0380931A0381E08093150335
S1131540DF91CF911F910F91FF90EF90BF90AF90DB
S11315509F908F9008958C549F4F81DF90931B032D
S113156080931A0388E08093150308952091040161
S113157030910501281739075CF42091040130915A
S1131580050181E090E02617370724F080E00895F4
S113159080E090E008956F927F928F929F92AF9235
S11315A0BF92CF92DF92EF92FF920F931F93CF934C
S11315B0DF934C013B01CA01B901D8DFEC01B3014F
S11315C0C401D4DFCD2B09F068C0892B09F06EC0AB
S11315D054C06091020170910301072E000C880B26
S11315E0990BD9D5A70196013BD5A2D570931001CB
S11315F060930F0186E080931503809157019091C9
S113160058010196909358018093570154C082E089
S1131610D6DD8823F1F06091020170910301072E59
S1131620000C880B990BB7D5A701960119D580D565
S11316307093100160930F0187E0809315038091EC
S11316405701909158010196909358018093570146
S113165032C00A3111057CF180E0B1DD882359F1F3
S11316608BE0809315038091570190915801019666
S113167090935801809357011EC081E0A0DD882318
S1131680D1F0C50168DF809157019091580101960E
S113169090935801809357010EC0892B09F4B7CF5A
S11316A083E08DDD882309F4B2CF93CF83E087DD17
S11316B0882379F28ECFDF91CF911F910F91FF9004
S11316C0EF90DF90CF90BF90AF909F908F907F90DE
S11316D06F900895209104013091050182179307BA
S11316E05CF4209104013091050181E090E06217DF
S11316F0730724F080E0089580E090E00895CB0122
S1131700E9DF892B19F085E0809315030895E2DF62
S1131710892B19F085E0809315030895DBDF892B6D
S113172019F085E0809315030895D4DF892B19F00F
S113173085E08093150308952091040130910501FB
S1131740281739075CF4209104013091050181E0E8
S113175090E02617370724F480E0089580E090E0B5
S113176008952F923F924F925F926F927F928F9241
S11317709F92AF92BF92CF92DF92EF92FF920F931C
S11317801F93CF93DF9300D000D0CDB7DEB79C83F7
S11317908B834B015A8349831901B901C901E6DEE0
S11317A02C01B4018B819C81E1DE3C0109311105DE
S11317B03CF010920E0110920D0101E010E014C0F3
S11317C080910D0190910E01019690930E018093EA
S11317D00D0180910D0190910E0131E020E0C3973D
S11317E00CF030E0032F122FB4018B819C81A4DF15
S11317F04C01B10189819A819FDF6114710431F434
S1131800452809F446C0892809F440C041E0012B69
S113181009F440E061E0672809F460E031E0892BD5
S113182009F430E020E0832F0E94920360910201CA
S113183070910301072E000C880B990BACD4A701FF
S113184096010ED475D47093100160930F0186E055
S11318508093150320C020E040E060E081E00E9416
S11318609203C501865A9F4FFADD90931B03809320
S11318701A0381E0809315030EC020E040E060E08D
S113188080E00E949203C50166DE05C0012B19F3B6
S113189002C0012B91F30F900F900F900F90DF91E6
S11318A0CF911F910F91FF90EF90DF90CF90BF9059
S11318B0AF909F908F907F906F905F904F903F90EC
S11318C02F900895FC01E60FF71FFC979CF4FA0192
S11318D0E20FF31FFC9774F4841B950B261B370B44
S11318E0280F391F332314F42F5F3F4FC9019595F7
S11318F087950895E0910601F0910701E817F9072B
S11319003CF4E0910601F0910701E617F707C4F0F3
S11319108617970754F42091060130910701421766
S113192053078CF4841B950B0895809106019091C4
S113193007012817390754F4C901861B970B08952A
S113194080E090E0089580E090E0089580E090E0E9
S11319500895FC01E60FF71FFC9744F5FA01E20F26
S1131960F31FFC97CCF4821B930B9C0112F42F5FA2
S11319703F4FC90195958795461B570B9A0112F461
S11319802F5F3F4F35952795820F931F99230CF4B2
S113199001969595879508959C01261B370BC901DF
S11319A099230CF40196959587950895FA01E20F11
S11319B0F31FFC974CF4421B530BCA0199230CF4FC
S11319C00196959587950895209106013091070118
S11319D0281739073CF42091060130910701261796
S11319E03707C4F08617970754F49C012451310932
S11319F0C90199230CF4019695958795089524E1DE
S1131A0030E0261B370BC90199230CF401969595F8
S1131A108795089580E090E00895CF92DF92EF9249
S1131A20FF92CF93DF9320911301309114014091E1
S1131A304B0150914C0160911B0170911C018091EC
S1131A40490190914A014BDCBC01990F880B990B19
S1131A50A2D36B017C0120E030E0A90165D3882387
S1131A600CF037C060914F0170915001072E000CAB
S1131A70880B990B90D3A7019601F1D220E030E0B6
S1131A804FE753E438D418166CF460914F01709109
S1131A9050016F5F7109072E000C880B990B7BD3E3
S1131AA06B017C01C0914F01D091500160914F01B5
S1131AB070915001072E000C880B990B6CD3A70171
S1131AC09601CED235D3DC01CB01BE010E94CF01F9
S1131AD036C060914F0170915001072E000C880BA5
S1131AE0990B59D3A7019601BBD220E030E04FE710
S1131AF053E401D418167CF480914F019091500165
S1131B006FEF70E0681B790B072E000C880B990BA4
S1131B1042D36B017C0160914F0170915001C091DF
S1131B204F01D0915001072E000C880B990B33D331
S1131B30A701960194D2FCD2CE010E94CF01DF917D
S1131B40CF91FF90EF90DF90CF9008950E94FE0117
S1131B505AD20E94AF010E940A031092230288E025
S1131B6091E0909318018093170182E00E94310163
S1131B7081E090E0909324038093230378940E945F
S1131B80CB011092580110925701109256021092F4
S1131B90520185E0809315032FE683E09DE22150F6
S1131BA080409040E1F700C00000C1E0D0E06894BC
S1131BB0882482F80F2EF5E09F2EF02D189B05C087
S1131BC0D0931E01C0931D0104C010921E011092F7
S1131BD01D0180911D0190911E01019739F480919E
S1131BE01701909118010E941E02E8CF80914701CD
S1131BF09091480114DB811116C080911503853042
S1131C0091F480915602843071F081E08093520106
S1131C1021E040E060E080E00E949203109215030E
S1131C2081E00E949303E09115038E2F90E08C30A5
S1131C30910508F0E5C0FC01E65AFF4FC3C30E94BA
S1131C40CB0188EC90E00E94AA012FEA80E099E0A1
S1131C50215080409040E1F700C00000809256027D
S1131C6080912302882319F083E00E943306909226
S1131C7015031092580110925701C2C08091470178
S1131C8090914801D7DABCC080911F019091200146
S1131C9064DB80915201882309F4B2C0109252018E
S1131CA0AFC08091520181111092520180911F01A5
S1131CB0909120017CDBA4C0209115013091160184
S1131CC040911F01509120016091160370911703F8
S1131CD08091180390911903D2DB9FDE91C020916B
S1131CE015013091160140911F015091200160911E
S1131CF01603709117038091180390911903F5DB73
S1131D008CDE7EC060914B0170914C018091490141
S1131D1090914A01F4DC81DE73C0609113017091EB
S1131D20140180911B0190911C01F1DC76DE68C0E6
S1131D3080911F019091200165DB62C08091560261
S1131D40843031F580912302882311F1A0901F0182
S1131D50B0902001C0901603D0901703E0901803B0
S1131D60F0901903009115011091160120914B0177
S1131D7030914C014091490150914A016091130105
S1131D807091140180911B0190911C0104DC21C00D
S1131D90A0901F01B0902001C0901603D0901703AB
S1131DA0E0901803F09019030091150110911601A9
S1131DB020914B0130914C014091490150914A01CD
S1131DC0609113017091140180911B0190911C0189
S1131DD0C8DC23DE15C06091130170911401809159
S1131DE01B0190911C019ADC18DE0AC0609113015A
S1131DF07091140180911B0190911C0196DC0DDE01
S1131E0080911503853061F080911503863041F08F
S1131E1080911503843021F0809115038330C9F536
S1131E2010D11AD110921F03109220031092210393
S1131E301092220360911603709117038091180386
S1131E409091190320E030E04FE253E454D2181685
S1131E500CF0B4CE81E00E9493036091160370915C
S1131E601703809118039091190320E030E04FE2AA
S1131E7053E4F5D06093160370931703809318030B
S1131E809093190320E041E060E080E00E94920317
S1131E9095CE80911503813041F0809115038230F5
S1131EA021F080911503883059F4D2D0CED010920D
S1131EB016031092170310921803109219037ECE82
S1131EC0C4D01092160310921703109218031092A4
S1131ED01903C2D010921F03109220031092210301
S1131EE0109222036BCE1F920F920FB60F92112401
S1131EF00BB60F922F933F934F935F936F937F9300
S1131F008F939F93AF93BF93EF93FF9380911201AD
S1131F10882379F1809156028430B1F060911603E0
S1131F2070911703809118039091190320E030E019
S1131F3040E85FE395D06093160370931703809392
S1131F4018039093190315C0609116037091170339
S1131F50809118039091190320E030E040E05FE3A2
S1131F607FD06093160370931703809318039093A4
S1131F701903809111018823B1F060911F037091BE
S1131F802003809121039091220320E030E040E877
S1131F905FE366D060931F03709320038093210353
S1131FA09093220314C060911F03709120038091C9
S1131FB021039091220320E030E0A90151D06093E5
S1131FC01F03709320038093210390932203809135
S1131FD01C0390911D03019690931D0380931C0391
S1131FE0FF91EF91BF91AF919F918F917F916F91ED
S1131FF05F914F913F912F910F900BBE0F900FBEA9
S11320000F901F901895E1E9F0E080818C60808347
S113201082E0809399009DE39093980080937100EF
S113202010921603109217031092180310921903BA
S113203010921F0310922003109221031092220386
S1132040089581E080931201089510921201089579
S113205081E0809311010895109211010895505860
S1132060BB27AA270ED00DC1FED030F003D120F03B
S113207031F49F3F11F41EF4F3C00EF4E095E7FB36
S1132080E9C0E92F0FD180F3BA17620773078407F9
S1132090950718F071F49EF527C10EF4E0950B2E08
S11320A0BA2FA02D0B01B90190010C01CA01A001A6
S11320B01124FF27591B99F0593F50F4503E68F101
S11320C01A16F040A22F232F342F4427585FF3CF42
S11320D0469537952795A795F0405395C9F77EF413
S11320E01F16BA0B620B730B840BBAF09150A1F05C
S11320F0FF0FBB1F661F771F881FC2F70EC0BA0FE2
S1132100621F731F841F48F4879577956795B79569
S1132110F7959E3F08F0B3CF9395880F08F0992761
S1132120EE0F97958795089571D008F481E008958E
S113213004D06894B111D9C00895BCD088F09F57D9
S113214090F0B92F9927B751A0F0D1F0660F771FFF
S1132150881F991F1AF0BA95C9F712C0B13081F0DF
S1132160C3D0B1E00895C0C0672F782F8827B85F27
S113217039F0B93FCCF3869577956795B395D9F740
S11321803EF490958095709561957F4F8F4F9F4F4A
S11321900895E89409C097FB3EF490958095709556
S11321A061957F4F8F4F9F4F9923A9F0F92F96E99F
S11321B0BB279395F695879577956795B795F11114
S11321C0F8CFFAF4BB0F11F460FF1BC06F5F7F4FB1
S11321D08F4F9F4F16C0882311F096E911C07723C3
S11321E021F09EE8872F762F05C0662371F096E8CC
S11321F0862F70E060E02AF09A95660F771F881F9B
S1132200DAF7880F9695879597F90895990F00083E
S1132210550FAA0BE0E8FEEF16161706E807F907B4
S1132220C0F012161306E407F50798F0621B730B4F
S1132230840B950B39F40A2661F0232B242B252BD0
S113224021F408950A2609F4A140A6958FEF811D73
S1132250811D089597F99F6780E870E060E0089514
S11322609FEF80EC089500240A94161617061806AA
S11322700906089500240A94121613061406050686
S11322800895092E0394000C11F4882352F0BB0F17
S113229040F4BF2B11F460FF04C06F5F7F4F8F4F7A
S11322A09F4F089557FD9058440F551F59F05F3FB5
S11322B071F04795880F97FB991F61F09F3F79F064
S11322C087950895121613061406551FF2CF4695E6
S11322D0F1DF08C0161617061806991FF1CF869568
S11322E07105610508940895E894BB27662777274C
S11322F0CB0197F908958ADF08F48FEF08950BD086
S1132300C0CFB1DF28F0B6DF18F0952309F0A2CFD3
S1132310A7CF1124EACFC6DFA0F3959FD1F3950F81
S113232050E0551F629FF001729FBB27F00DB11D55
S1132330639FAA27F00DB11DAA1F649F6627B00DE5
S1132340A11D661F829F2227B00DA11D621F739FCE
S1132350B00DA11D621F839FA00D611D221F749FDC
S11323603327A00D611D231F849F600D211D822F23
S1132370762F6A2F11249F5750408AF0E1F088236A
S11323804AF0EE0FFF1FBB1F661F771F881F915077
S11323905040A9F79E3F510570F05CCFA6CF5F3F38
S11323A0ECF3983EDCF3869577956795B795F795AA
S11323B0E7959F5FC1F7FE2B880F911D9695879532
S11323C097F90895EE0FFF1F0024001C0BBE079021
S10D23D0F691E02D0994F894FFCF74
S10F23DA5A000F003200280030303000A0
S9030000FC
