:1000000065C0000082C0000080C000007EC000000B
:100010007CC000007AC0000078C0000076C00000FC
:1000200074C0000072C0000070C000006EC000000C
:100030006CC000006AC0000068C0000066C000001C
:1000400064C0000062C0000060C000005EC000002C
:100050005CC000005AC0000058C0000056C000003C
:1000600054C0000052C0000051C000004EC000004B
:100070004CC000004AC0000048C0000046C000005C
:100080000C94870F42C0000040C000003A014B01B1
:1000900052015D0164016F017601810188019301C4
:1000A00098019D01A20194029602AC02C202D802FC
:1000B000EE0220035F0E650E6B0EA20E970EB30EBE
:1000C000710E840EAD0E490EFC0E070F11241FBEDB
:1000D000CFEFD0E4DEBFCDBF11E0A0E0B1E0E2E0C1
:1000E000F4E200E00BBF02C007900D92AA30B10706
:1000F000D9F723E0AAE0B1E001C01D92A032B20717
:10010000E1F70E94DD0D0C94FF117ACF1F920F9240
:100110000FB60F9211240BB60F922F933F934F936C
:100120005F936F937F938F939F93AF93BF93EF935F
:10013000FF938091B900887F883AA1F4109218014A
:10014000109217018091170190911801E09115010B
:10015000F0911601E80FF91F80818093BB0085ECB8
:100160008093BC008091B900887F883BC9F480915E
:10017000170190911801E0911501F0911601E80F17
:10018000F91F80818093BB00809117019091180125
:100190000196909318018093170185EC8093BC0021
:1001A0008091B900887F803C19F485EC8093BC0075
:1001B0008091B900887F803639F485EC8093BC004B
:1001C00010921801109217018091B900887F803831
:1001D00031F58091BB002091170130911801233037
:1001E00031055CF42091170130911801E09115015F
:1001F000F0911601E20FF31F808360911701709157
:10020000180190E02DD0809117019091180101966E
:10021000909318018093170185EC8093BC00809126
:10022000B900887F803A19F485EC8093BC00FF9177
:10023000EF91BF91AF919F918F917F916F915F915E
:100240004F913F912F910F900BBE0F900FBE0F90CB
:100250001F9018958093BA0085EC8093BC00089598
:10026000FB013297ED30F10508F070C0EA5BFF4FFB
:100270000C94F61186FB442740F950E0509342015C
:100280004093410185FB222720F930E030931C0187
:1002900020931B010895982F882790934401809301
:1002A000430108952091430130914401820F931F2F
:1002B00090934401809343010895982F8827909349
:1002C0001E0180931D01089520911D0130911E0192
:1002D000820F931F90931E0180931D010895982F04
:1002E000882790931401809313010895209113019E
:1002F00030911401820F931F909314018093130186
:100300000895982F88279093400180933F01089586
:1003100020913F0130914001820F931F9093400143
:1003200080933F01089590931A01809319010895D5
:100330009093460180934501089590931201809314
:10034000110108959093480180934701089516166E
:1003500017069CF4E82FF92F80E090E09A01082E10
:1003600002C0359527950A94E2F72170332721932F
:10037000319301968617970789F70895AF92BF9238
:10038000CF92DF92EF92FF920F931F93CF93DF9361
:10039000CDB7DEB78B01CDB6DEB67B01EE0CFF1C10
:1003A0002DB73EB72E193F090FB6F8943EBF0FBECA
:1003B0002DBF2F5F3F4F5901AC01C901C8DF112389
:1003C0009CF032E0E30EF11CF501EE0DFF1D2898C4
:1003D000289A289892918291019719F42998299A3C
:1003E00029980150110998F70FB6F894DEBE0FBE98
:1003F000CDBEDF91CF911F910F91FF90EF90DF90D5
:10040000CF90BF90AF90089590938900809388001B
:100410000895559A10928500109284008FEF91E113
:100420009093870080938600E0E8F0E08081826806
:100430008083E1E8F0E080818B6180838EE591E04C
:100440009093890080938800089514BC1092B000A6
:10045000089521E824BD2093B0001816190614F45D
:10046000129A04C012989195819591091616170653
:1004700014F4119A04C011987195619571098093D3
:10048000B30067BD0895BC01E4CF089591958195AF
:100490009109BC01DECF089566277727681B790B89
:1004A000D8CF0895BC01919581959109D2CF089537
:1004B0008EE690E090934C0180934B0184E690E0AF
:1004C00090934A018093490111B88FEF84B98AB99A
:1004D00081E884BD8093B00092E095BD84E687BD3D
:1004E0009093B1008093B30016BC1092B2000895AF
:1004F0008F929F92AF92BF92CF92DF92EF92FF9234
:10050000CF93FC0161816F52C281CF528081E0EDB7
:10051000E80F8E2F90E08730910508F0C1C0FC01F4
:10052000ED5AFF4F0C94F61190DFBBC070E080E0F5
:1005300090E00E94DF1020E030E044EA51E40E94A5
:10054000931120E030E048E452E40E9444100E94FD
:10055000AC10CB0198DFA5C070E080E090E00E9475
:10056000DF1020E030E044EA51E40E94931120E0E3
:1005700030E048E452E40E9444100E94AC10CB01E9
:1005800085DF8FC070E080E090E00E94DF1020E007
:1005900030E044EA51E40E94931120E030E048E466
:1005A00052E40E9444100E94AC10CB0175DF79C068
:1005B00070E080E090E00E94DF1020E030E044EA4C
:1005C00051E40E94931120E030E048E452E40E949C
:1005D00044100E94AC10CB0165DF63C070E080E086
:1005E00090E00E94DF1020E030E044EA51E40E94F5
:1005F000931120E030E048E452E40E9444106B0183
:100600007C016C2F70E080E090E00E94DF1020E021
:1006100030E044EA51E40E9493119B01AC01C70110
:10062000B6010E9443100E94AC104B015C01C7014F
:10063000B6010E94AC10DC01CB01B4010ADF31C06D
:1006400070E080E090E00E94DF1020E030E044EABB
:1006500051E40E94931120E030E048E452E40E940B
:1006600044106B017C010E94AC104B015C016C2FAB
:1006700070E080E090E00E94DF1020E030E044EA8B
:1006800051E40E9493119B01AC01C701B6010E9485
:1006900043100E94AC10DC01CB01B401DADE01C0D2
:1006A000D4DECF91FF90EF90DF90CF90BF90AF90CE
:1006B0009F908F90089540E050E0B0E0A0E00FC020
:1006C000F901E80FF91FEE5AFD4F108201968A30AA
:1006D0009105B1F74F5F5F4F4331510579F08B2F93
:1006E0009A2F9A01220F331F220F331F220F331F1D
:1006F000BA01660F771F260F371FE2CF89E090E01F
:1007000090931E0280931D021092500110924F018F
:1007100010924D0183E08093A3028093AD0284E0A8
:100720008093AE020895813041F0882341F08230F9
:1007300041F0833041F084E0089580E0089581E045
:10074000089583E0089582E00895811103C08091A7
:100750004D01089590914D019923A1F190914D0182
:10076000913039F48130D9F08230D9F08330B1F44E
:100770001AC090914D01923039F48130B1F082303D
:10078000B1F0833059F415C090914D01933099F434
:10079000813099F0823099F0833099F0089580E0AB
:1007A000089583E0089582E0089583E0089581E04C
:1007B000089580E0089584E0089582E0089580E03F
:1007C000089581E00895089590914D01811103C02D
:1007D000892FA9DF982F91110BC020914F013091E3
:1007E00050012F5F3F4F3093500120934F0118C0AD
:1007F000913051F480914F01909150010197909365
:10080000500180934F010895923051F480911D0260
:1008100090911E02019790931E0280931D020895ED
:10082000933049F480911D0290911E02019690939D
:100830001E0280931D02089588DF80934D01089564
:1008400041111CC06F5F7F4F6A3071050CF067C0AB
:100850008331910508F065C09C01220F331F880F7A
:10086000991F880F991F880F991F820F931F680F78
:10087000791FFB01EE5AFD4F808108954330D9F472
:100880000196833191050CF04EC06930710508F076
:100890004CC0FC01EE0FFF1F880F991F880F991F96
:1008A000880F991FE80FF91F6E0F7F1FFB01EE5A8B
:1008B000FD4F808108954230B9F40197C2F169304B
:1008C0007105B8F5FC01EE0FFF1F880F991F880F07
:1008D000991F880F991FE80FF91F6E0F7F1FFB01EB
:1008E000EE5AFD4F808108954130C1F46150710985
:1008F00012F18331910508F59C01220F331F880FF7
:10090000991F880F991F880F991F820F931F680FD7
:10091000791FFB01EE5AFD4F80810895089580E014
:10092000089580E0089580E0089580E0089580E0D3
:10093000089580E0089580E0089580E008950F9381
:100940001F93CF93DF93FC013197029600E010E0F4
:10095000EB0121976E5F7F4F19C0E331F10568F419
:100960002A30310550F4DA01A20FB31FAE5ABD4F41
:10097000AC91AA2311F00F5F1F4F2F5F3F4F261737
:10098000370759F73196E817F90771F09E01AF0163
:10099000DF01AA0FBB1F440F551F440F551F440F03
:1009A000551F4A0F5B1FD9CF81E0033011050CF4AE
:1009B00080E0DF91CF911F910F9108957F928F92E8
:1009C0009F92AF92BF92CF92DF92EF92FF920F93DE
:1009D0001F93CF93DF93C0E0D0E0E12CF12C68941B
:1009E000772471F80F2EFFE1CF2EF2E0DF2EF02DED
:1009F00099249394A12C0F2EF3E08F2EF02DBB247D
:100A0000B39458C123EC8FE796E121508040904089
:100A1000E1F700C0000088EC90E0F6DCE7EEFFEFC5
:100A200028E0E150F0402040E1F700C0000080E9FC
:100A300091E0EADC87EE9FEFE8E081509040E040F3
:100A4000E1F700C00000FE01EE0FFF1FEE0FFF1FD9
:100A5000EB5AFE4F208131818E010F5F1F4FF8014D
:100A6000EE0FFF1FEE0FFF1FEB5AFE4F80819181AB
:100A700028173907B1F5FE01EE0FFF1FEE0FFF1F1C
:100A8000EB5AFE4F22813381F801EE0FFF1FEE0F6C
:100A9000FF1FEB5AFE4F8281938101972817390778
:100AA00001F5E114F10409F404C1F701E25EFD4F20
:100AB000808181110EC0CC0FDD1FCC0FDD1FCB5A02
:100AC000DE4F6A817B818881998139DF882309F42F
:100AD000F0C0F701E15EFD4F1082FFEFEF1AFF0A51
:100AE000E8C0FE01EE0FFF1FEE0FFF1FEB5AFE4F97
:100AF00020813181F801EE0FFF1FEE0FFF1FEB5A2F
:100B0000FE4F8081918128173907C9F5FE01EE0F4C
:100B1000FF1FEE0FFF1FEB5AFE4F22813381F801BA
:100B2000EE0FFF1FEE0FFF1FEB5AFE4F82819381E6
:100B300001962817390719F5E114F10421F4F6019B
:100B4000B082E92CFA2CF701E25EFD4F8081813002
:100B500071F4CC0FDD1FCC0FDD1FCB5ADE4F6A8145
:100B60007B8188819981EBDE882309F4A2C0F7019B
:100B7000E15EFD4FB082FFEFEF1AFF0A9AC0FE015F
:100B8000EE0FFF1FEE0FFF1FEB5AFE4F208131814A
:100B9000F801EE0FFF1FEE0FFF1FEB5AFE4F808193
:100BA0009181019728173907C1F5FE01EE0FFF1F4C
:100BB000EE0FFF1FEB5AFE4F22813381F801EE0F3B
:100BC000FF1FEE0FFF1FEB5AFE4F82819381281704
:100BD000390719F5E114F10421F4F6018082E92CBA
:100BE000FA2CF701E25EFD4F8081833071F4CC0F67
:100BF000DD1FCC0FDD1FCB5ADE4F6A817B818881E0
:100C000099819DDE882309F454C0F701E15EFD4F10
:100C10008082FFEFEF1AFF0A4CC0FE01EE0FFF1FAC
:100C2000EE0FFF1FEB5AFE4F20813181F801EE0FCE
:100C3000FF1FEE0FFF1FEB5AFE4F8081918101963F
:100C400028173907B1F5FE01EE0FFF1FEE0FFF1F4A
:100C5000EB5AFE4F22813381F801EE0FFF1FEE0F9A
:100C6000FF1FEB5AFE4F828193812817390709F540
:100C7000E114F10421F4F6017082E92CFA2CF70159
:100C8000E25EFD4F8081823069F4CC0FDD1FCC0F16
:100C9000DD1FCB5ADE4F6A817B81888199814FDECF
:100CA000882339F0F701E15EFD4F7082FFEFEF1A04
:100CB000FF0AE80180915101909152010197C817F4
:100CC000D9070CF49FCEDF91CF911F910F91FF9028
:100CD000EF90DF90CF90BF90AF909F908F907F90DC
:100CE00008956230710511F401970895633071051C
:100CF00009F4019608956130710511F40197089582
:100D0000672B09F4019608952F923F924F925F92BC
:100D10006F927F928F929F92AF92BF92CF92DF920B
:100D2000EF92FF920F931F93CF93DF93CDB7DEB770
:100D3000C75FDE440FB6F894DEBF0FBECDBFC9500B
:100D4000D14B8883C75FDE44FE01EF5DF14B88EC39
:100D5000DF011D928A95E9F789E090E090931E02E9
:100D600080931D0282E090E09093500180934F01A8
:100D700000E010E0412C512CEE24E394F12C0F2ED6
:100D8000F8ECBF2EF02D60914F01709150018091D1
:100D90001D0290911E02402F53DD833069F5F20150
:100DA000EE0FFF1F21E23EE42C0F3D1FE20FF31F69
:100DB000F182E08280911D0290911E02B80191DFC4
:100DC000B49C6001B59CD00C1124A1E0B0E0AC0F44
:100DD000BD1FCA0EDB1EF6019183808380914F01F7
:100DE00090915001B80187DFD60113969C938E93A2
:100DF0001297BFEF4B1A5B0A0F5F1F4F04301105AC
:100E000009F0C1CF141415040CF01BC2CF5DD14BF7
:100E100068817981C152DE448B0101501109D801EA
:100E2000AA0FBB1FAA0FBB1FE1E0F0E0EC0FFD1FF4
:100E3000AE0FBF1F8D919C91119712960D90BC9192
:100E4000A02D9C01220F331F880F991F880F991F17
:100E5000880F991F820F931F8A0F9B1FDC01AE5AC8
:100E6000BD4F8C91C950D14BF881C75FDE448F17BD
:100E700009F4BAC09E012D5D314BC151D14B39836C
:100E80002883CF5EDE44CE010196CF50D14B9983AB
:100E90008883C15FDE44CD50D14B19821882C35F75
:100EA000DE44212C312C62C0C751D14BA881B981BD
:100EB000C95EDE446D917C91C151D14BE881F981CD
:100EC000CF5EDE443296C151D14BF983E883CF5EC9
:100ED000DE448B010150110922E3229DF001239D84
:100EE000F00D1124E00FF11FEE0FFF1FEE0FFF1F9B
:100EF00081E090E08C0F9D1FE80FF91F80819181A8
:100F000022813381AC01440F551F880F991F880F30
:100F1000991F880F991F840F951F280F391FF901FA
:100F2000EE5AFD4F8081CF50D14BA881B981C15F6E
:100F3000DE44A853BF4FCF50D14BB983A883C15FC4
:100F4000DE44CD50D14BE881F981C35FDE44F29697
:100F5000CD50D14BF983E883C35FDE44C950D14BF8
:100F6000F881C75FDE448F1709F440C000E010E04D
:100F7000C151D14B2881CF5EDE44C351D14B288370
:100F8000CD5EDE44C051D14B3881C05FDE44C251DA
:100F9000D14B3883CE5EDE44C151D14B88819981DB
:100FA000CF5EDE440297C551D14B99838883CB5ED7
:100FB000DE4492E3929D3001939D700C1124CF503A
:100FC000D14BA881C15FDE44CB50D14BA883C55F14
:100FD000DE44CE50D14BB881C25FDE44CA50D14B03
:100FE000B883C65FDE4431C0212C312C161617069B
:100FF00034F528EC229DC001239D900D1124E1E0E1
:10100000F0E0EC0FFD1FE80FF91F20E030E08081D9
:101010009181D901AA0FBB1FAA0FBB1FAB5ABE4FAC
:1010200011969C938E938281938113969C938E93B9
:1010300012972F5F3F4F34962617370741F71093CB
:10104000520100935101BADCFCC0C351D14BE8817D
:10105000CD5EDE44C751D14BE883C95EDE44C25148
:10106000D14BF881CE5EDE44C651D14BF883CA5EC7
:10107000DE44C551D14BA881B981CB5EDE44ED90F1
:10108000FC906701B1E0CB1AD108F301EC0DFD1D16
:10109000EE0FFF1FEE0FFF1F21E030E02C0F3D1F72
:1010A000E20FF31F82809380A080B180402FB401B3
:1010B000C501C6DB882309F4B7C0402FB401C501C0
:1010C000BFDB823009F4B0C033E0E316F1047CF1F9
:1010D000B801C50106DE5701A3E0AA1AB108F30161
:1010E000EA0DFB1DEE0FFF1FEE0FFF1F21E030E0AA
:1010F0002C0F3D1FE20FF31F2081318182179307D0
:10110000B1F4B801C401F7DDF301EA0DFB1DEE0FE8
:10111000FF1FEE0FFF1FA1E0B0E0AC0FBD1FEA0FF5
:10112000FB1F228133818217930709F47DC01E14AF
:101130001F04C4F5E8ECE49DD001E59DB00D112439
:1011400021E030E02C0F3D1FA20FB31FCD50D14B3B
:1011500028813981C35FDE442E0D3F1D220F331FCE
:10116000220F331F81E090E08C0F9D1F280F391F45
:10117000CB50D14BE881C55FDE44CA50D14BF881DA
:10118000C65FDE448081918111969C938E9382810B
:10119000938113969C938E93129734961496E2172C
:1011A000F30781F75301AC0CBD1CAA0CBB1CAA0CA5
:1011B000BB1CA1E0B0E0AC0FBD1FAA0EBB1EB80166
:1011C000F501808191818DDDF2E3F49D6001F59D53
:1011D000D00C1124CE0CDF1CCC0CDD1CCC0CDD1C87
:1011E00021E030E02C0F3D1FC20ED31ED6018D939F
:1011F0009C93B801F501828193817DDDD601139620
:101200009C938E931297F201EE0FFF1F21E23EE4B2
:101210002C0F3D1FE20FF31F3FEFE31AF30AF18299
:10122000E0828FEF481A580A0F5F1F4F04301105F4
:1012300009F00BCF9FEF291A390A241435040CF456
:1012400033CEC950D14B0FB6F894DEBF0FBECDBF21
:10125000DF91CF911F910F91FF90EF90DF90CF9092
:10126000BF90AF909F908F907F906F905F904F90C6
:101270003F902F90089569DAE0915301F091540165
:10128000E15EFD4F208191E0281390E0892F0895C1
:10129000FC0164177507E4F480E090E0A1E0B0E0A1
:1012A0009D01062E02C0220F331F0A94E2F72E235F
:1012B0003F23062E02C0359527950A94E2F7232B8B
:1012C00009F001966F5F7F4F6417750749F708951E
:1012D00080E090E008954BE050E060E070E0D8DFFF
:1012E00021E002970CF020E0822F0895CF93DF9346
:1012F000EC0180910A01811110C082E390E0C3D813
:1013000027E081E89DE0215080409040E1F700C057
:10131000000081E080930A0131C04BE050E060E0C2
:1013200070E0CE01B5DF049724F089E080931003CC
:1013300025C046E050E065E070E0CE01A9DF892BD2
:1013400021F082E390E09FD819C04BE050E066E0C6
:1013500070E0CE019DDF1816190624F486E490E0B3
:101360009BD80CC045E050E060E070E0CE0190DF1B
:10137000181619061CF486E490E094D8DF91CF91FA
:101380000895AF92BF92CF92DF92EF92FF920F93A8
:101390001F93CF93DF938C017B016A01590108D31E
:1013A000EC019501A601B701C801BBD28C0F9D1FAE
:1013B0009C01220F331F220F331F220F331F820F76
:1013C000931FDF91CF911F910F91FF90EF90DF90CE
:1013D000CF90BF90AF900895CF92DF92EF92FF929F
:1013E0006091000170910101C0901A03D0901B031D
:1013F000E0901C03F0901D03072E000C880B990B46
:10140000DED6A7019601A4D6882334F482E014DA4C
:1014100084E08093100305C08091490190914A01B6
:101420003BD8FF90EF90DF90CF900895CF92DF925E
:10143000EF92FF926091000170910101C0901A0338
:10144000D0901B03E0901C03F0901D03072E000CAE
:10145000880B990BB4D6A70196017AD6882334F469
:1014600083E0EAD983E08093100305C080914901AD
:1014700090914A0117D8FF90EF90DF90CF90089598
:10148000CF92DF92EF92FF92609100017091010183
:10149000C0901A03D0901B03E0901C03F0901D0332
:1014A000660F771F072E000C880B990B88D6A701B3
:1014B00096014ED6882334F481E0BED985E080932E
:1014C000100306C08091490190914A010E94520286
:1014D000FF90EF90DF90CF900895883621E092073B
:1014E00034F088569140883621E09207D4F799234A
:1014F0001CF488599E4FEAF308958F929F92AF9201
:10150000BF92EF92FF920F931F93CF93DF934B0104
:101510005C01EA01790100910D0110910E01B80101
:10152000110F880B990B4BD6A501940111D6882376
:1015300024F089E1E816F1045CF4CE01825F9E4F4D
:10154000CCDF909316038093150382E08093100301
:10155000DF91CF911F910F91FF90EF90BF90AF90CF
:101560009F908F9008958F929F92AF92BF92EF922B
:10157000FF920F931F93CF93DF934B015C01EA011E
:10158000790100910D0110910E01B801110F880B26
:10159000990B15D6A5019401DBD5882324F089E1A8
:1015A000E816F1045CF4CE01865A9F4F96DF9093C3
:1015B00016038093150381E080931003DF91CF9190
:1015C0001F910F91FF90EF90BF90AF909F908F90E1
:1015D00008958C549F4F81DF9093160380931503D9
:1015E00088E0809310030895209102013091030157
:1015F000281739075CF4209102013091030181E042
:1016000090E02617370724F080E0089580E090E00E
:1016100008956F927F928F929F92AF92BF92CF92D6
:10162000DF92EF92FF920F931F93CF93DF93EC0122
:101630004B01CA01B901D8DF3C01B401CE01D4DFAE
:10164000672809F05EC0892B09F064C04AC020E019
:1016500030E044E951E4C701B60116D57DD5709359
:101660000E0160930D0186E0809310038091530179
:1016700090915401019690935401809353014FC06F
:1016800082E0F9DD8823C9F020E030E044E951E44C
:10169000C701B601F9D460D570930E0160930D01B6
:1016A00087E080931003809153019091540101963B
:1016B000909354018093530132C00A3111057CF19B
:1016C00080E0D9DD882359F18BE08093100380916D
:1016D00053019091540101969093540180935301CA
:1016E0001EC081E0C8DD8823D1F0C50172DF809182
:1016F00053019091540101969093540180935301AA
:101700000EC0892B09F4BCCF83E0B5DD882309F432
:10171000B7CF9DCF83E0AFDD882379F298CFDF91FB
:10172000CF911F910F91FF90EF90DF90CF90BF90DE
:10173000AF909F908F907F906F90089520910201BD
:1017400030910301821793075CF4209102013091DC
:10175000030181E090E06217730724F080E00895B0
:1017600080E090E00895CB01E9DF892B19F085E056
:10177000809310030895E2DF892B19F085E08093B0
:1017800010030895DBDF892B19F085E080931003A7
:101790000895D4DF892B19F085E080931003089514
:1017A0002091020130910301281739075CF4209140
:1017B00002013091030181E090E02617370724F4FD
:1017C00080E0089580E090E008952F923F924F923C
:1017D0005F926F927F928F929F92AF92BF92CF92C1
:1017E000DF92EF92FF920F931F93CF93DF9300D07E
:1017F00000D0CDB7DEB79C838B834B015A834983DE
:101800001901B901CA01F0DE2C01B4018B819C8160
:10181000EBDE3C01093111053CF010920C011092F5
:101820000B0101E010E014C080910B0190910C01BC
:10183000019690930C0180930B0180910B01909184
:101840000C0131E020E0C3970CF030E0032F122FA1
:10185000B4018B819C81A4DF4C01B10189819A8103
:101860009FDF6114710431F4452809F441C08928CF
:1018700009F43BC041E0012B09F440E061E0672836
:1018800009F460E031E0892B09F430E020E0832F97
:101890000E94E30320E030E044E951E4C701B601CF
:1018A000F3D35AD470930E0160930D0186E08093B8
:1018B000100320C020E040E060E081E00E94E303EC
:1018C000C501865A9F4F09DE909316038093150336
:1018D00081E0809310030EC020E040E060E080E0F3
:1018E0000E94E303C50175DE05C0012B19F302C098
:1018F000012B91F30F900F900F900F90DF91CF91EC
:101900001F910F91FF90EF90DF90CF90BF90AF901D
:101910009F908F907F906F905F904F903F902F900F
:101920000895FC01E60FF71FFC979CF4FA01E20F03
:10193000F31FFC9774F4841B950B261B370B280FA1
:10194000391F332314F42F5F3F4FC90195958795B5
:101950000895E0910401F0910501E817F9073CF4BE
:10196000E0910401F0910501E617F707C4F086172E
:10197000970754F420910401309105014217530751
:101980008CF4841B950B08958091040190910501BE
:101990002817390754F4C901861B970B089580E076
:1019A00090E0089580E090E0089580E090E0089550
:1019B000FC01E60FF71FFC9744F5FA01E20FF31F55
:1019C000FC97CCF4821B930B9C0112F42F5F3F4FCA
:1019D000C90195958795461B570B9A0112F42F5F05
:1019E0003F4F35952795820F931F99230CF401964D
:1019F0009595879508959C01261B370BC90199235E
:101A00000CF40196959587950895FA01E20FF31F5E
:101A1000FC974CF4421B530BCA0199230CF401961A
:101A20009595879508952091040130910501281717
:101A300039073CF42091040130910501261737073E
:101A4000C4F08617970754F49C0124513109C90149
:101A500099230CF4019695958795089524E130E03B
:101A6000261B370BC90199230CF401969595879590
:101A7000089580E090E00895CF92DF92EF92FF9278
:101A8000CF93DF93209111013091120140914701D2
:101A9000509148016091190170911A01809145019E
:101AA000909146016EDCEC01BC01990F880B990BFB
:101AB00086D36B017C0168E070E0CE010E94BE011C
:101AC00020E030E0A901C701B60142D388230CF021
:101AD00037C060914B0170914C01072E000C880BB0
:101AE000990B6DD3A7019601CED220E030E04FE7ED
:101AF00053E415D418166CF460914B0170914C01AD
:101B00006F5F7109072E000C880B990B58D36B017E
:101B10007C01C0914B01D0914C0160914B017091BF
:101B20004C01072E000C880B990B49D3A701960195
:101B3000ABD212D3DC01CB01BE010E94290236C018
:101B400060914B0170914C01072E000C880B990B92
:101B500036D3A701960198D220E030E04FE753E456
:101B6000DED318167CF480914B0190914C016FEFFD
:101B700070E0681B790B072E000C880B990B1FD3A4
:101B80006B017C0160914B0170914C01C0914B0144
:101B9000D0914C01072E000C880B990B10D3A70194
:101BA000960171D2D9D2CE010E942902DF91CF9144
:101BB000FF90EF90DF90CF9008950E94580237D2A7
:101BC0000E9409020E945B0386E091E09093160157
:101BD0008093150182E00E942A0181E090E09093B9
:101BE0001F0380931E0378940E94250210925401D3
:101BF000109253011092510210924E0185E0809391
:101C000010032FE683E09DE2215080409040E1F7F1
:101C100000C00000D4E0C5E08091410190914201F4
:101C2000892B09F471C180911B0190911C01892BB2
:101C300039F080911501909116010E947802ECCF45
:101C4000809143019091440146DB811116C080913F
:101C50001003853091F480915102843071F081E05D
:101C600080934E0121E040E060E080E00E94E303C9
:101C70001092100381E00E94E403E09110038E2F84
:101C800090E08C30910508F0CCC0FC01E65AFF4F83
:101C9000ADC30E9425022FEA80E099E021508040E8
:101CA0009040E1F700C00000D093510283E02CD8AF
:101CB000C09310031092540110925301B2C080914E
:101CC00043019091440112DBACC080911D019091C1
:101CD0001E0182DBA6C080911D0190911E01A6DB32
:101CE000A0C0209113013091140140911D01509129
:101CF0001E01609111037091120380911303909162
:101D00001403FBDBB9DE8DC0209113013091140167
:101D100040911D0150911E016091110370911203B9
:101D200080911303909114031EDCA6DE7AC06091AB
:101D3000470170914801809145019091460113DD62
:101D40009BDE6FC0609111017091120180911901A9
:101D500090911A0110DD90DE64C080911D01909178
:101D60001E018EDB5EC080915102843011F5A0907F
:101D70001D01B0901E01C0901103D0901203E0909D
:101D80001303F0901403009113011091140120919A
:101D900047013091480140914501509146016091C1
:101DA0001101709112018091190190911A0131DC99
:101DB00021C0A0901D01B0901E01C0901103D090D1
:101DC0001203E0901303F09014030091130110919B
:101DD00014012091470130914801409145015091F3
:101DE0004601609111017091120180911901909149
:101DF0001A01EBDC41DE15C06091110170911201F6
:101E00008091190190911A01BDDC36DE0AC0609103
:101E10001101709112018091190190911A01B9DCA0
:101E20002BDE80911003853061F0809110038630A5
:101E300041F080911003843021F0809110038330B1
:101E4000C9F513D11DD110921A0310921B031092E1
:101E50001C0310921D036091110370911203809175
:101E600013039091140320E030E04FE253E457D283
:101E700018160CF0D1CE81E00E94E40360911103AA
:101E800070911203809113039091140320E030E0CD
:101E90004FE253E4F8D060931103709312038093E0
:101EA00013039093140320E041E060E080E00E947F
:101EB000E303B2CE80911003813041F08091100392
:101EC000823021F080911003883059F4D5D0D1D0E0
:101ED0001092110310921203109213031092140324
:101EE0009BCEC7D0109211031092120310921303CD
:101EF00010921403C5D010921A0310921B03109273
:101F00001C0310921D0388CE0E94250285CE1F92CD
:101F10000F920FB60F9211240BB60F922F933F938F
:101F20004F935F936F937F938F939F93AF93BF93E1
:101F3000EF93FF9380911001882379F180915102F2
:101F40008430B1F0609111037091120380911303FA
:101F50009091140320E030E040E85FE395D0609377
:101F6000110370931203809313039093140315C00D
:101F700060911103709112038091130390911403E7
:101F800020E030E040E05FE37FD060931103709386
:101F90001203809313039093140380910F018823FD
:101FA000B1F060911A0370911B0380911C03909112
:101FB0001D0320E030E040E85FE366D060931A0341
:101FC00070931B0380931C0390931D0314C06091B6
:101FD0001A0370911B0380911C0390911D0320E054
:101FE00030E0A90151D060931A0370931B038093D2
:101FF0001C0390931D038091170390911803019681
:102000009093180380931703FF91EF91BF91AF91C5
:102010009F918F917F916F915F914F913F912F9100
:102020000F900BBE0F900FBE0F901F901895E1E917
:10203000F0E080818C60808382E0809399009DE352
:1020400090939800809371001092110310921203E4
:10205000109213031092140310921A0310921B0390
:1020600010921C0310921D03089581E080931001CB
:10207000089510921001089581E080930F01089552
:1020800010920F0108955058BB27AA270ED00DC1FA
:10209000FED030F003D120F031F49F3F11F41EF454
:1020A000F3C00EF4E095E7FBE9C0E92F0FD180F310
:1020B000BA17620773078407950718F071F49EF545
:1020C00027C10EF4E0950B2EBA2FA02D0B01B901FC
:1020D00090010C01CA01A0011124FF27591B99F09E
:1020E000593F50F4503E68F11A16F040A22F232FAA
:1020F000342F4427585FF3CF469537952795A795FA
:10210000F0405395C9F77EF41F16BA0B620B730BA0
:10211000840BBAF09150A1F0FF0FBB1F661F771F11
:10212000881FC2F70EC0BA0F621F731F841F48F4C6
:10213000879577956795B795F7959E3F08F0B3CF4C
:102140009395880F08F09927EE0F97958795089536
:1021500071D008F481E0089504D06894B111D9C019
:102160000895BCD088F09F5790F0B92F9927B751A8
:10217000A0F0D1F0660F771F881F991F1AF0BA954B
:10218000C9F712C0B13081F0C3D0B1E00895C0C02A
:10219000672F782F8827B85F39F0B93FCCF3869541
:1021A00077956795B395D9F73EF49095809570959E
:1021B00061957F4F8F4F9F4F0895E89409C097FB1B
:1021C0003EF490958095709561957F4F8F4F9F4F0E
:1021D0009923A9F0F92F96E9BB279395F695879552
:1021E00077956795B795F111F8CFFAF4BB0F11F415
:1021F00060FF1BC06F5F7F4F8F4F9F4F16C08823BC
:1022000011F096E911C0772321F09EE8872F762FF1
:1022100005C0662371F096E8862F70E060E02AF032
:102220009A95660F771F881FDAF7880F969587951E
:1022300097F90895990F0008550FAA0BE0E8FEEFF3
:1022400016161706E807F907C0F012161306E4077A
:10225000F50798F0621B730B840B950B39F40A2673
:1022600061F0232B242B252B21F408950A2609F451
:10227000A140A6958FEF811D811D089597F99F6755
:1022800080E870E060E008959FEF80EC08950024FE
:102290000A941616170618060906089500240A94CB
:1022A00012161306140605060895092E0394000C51
:1022B00011F4882352F0BB0F40F4BF2B11F460FFE0
:1022C00004C06F5F7F4F8F4F9F4F089557FD905809
:1022D000440F551F59F05F3F71F04795880F97FBEA
:1022E000991F61F09F3F79F08795089512161306A4
:1022F0001406551FF2CF4695F1DF08C016161706D3
:102300001806991FF1CF8695710561050894089507
:10231000E894BB2766277727CB0197F908958ADFD2
:1023200008F48FEF08950BD0C0CFB1DF28F0B6DFEF
:1023300018F0952309F0A2CFA7CF1124EACFC6DF6A
:10234000A0F3959FD1F3950F50E0551F629FF001C8
:10235000729FBB27F00DB11D639FAA27F00DB11D21
:10236000AA1F649F6627B00DA11D661F829F2227AA
:10237000B00DA11D621F739FB00DA11D621F839F31
:10238000A00D611D221F749F3327A00D611D231F07
:10239000849F600D211D822F762F6A2F11249F5755
:1023A00050408AF0E1F088234AF0EE0FFF1FBB1F78
:1023B000661F771F881F91505040A9F79E3F510517
:1023C00070F05CCFA6CF5F3FECF3983EDCF38695D0
:1023D00077956795B795F795E7959F5FC1F7FE2BC2
:1023E000880F911D9695879597F90895EE0FFF1F19
:1023F0000024001C0BBE0790F691E02D0994F89480
:02240000FFCF0C
:0A2402005F00320028003030300087
:00000001FF
