:1000000045C0000060C000005EC000005CC0000091
:100010005AC0000058C0000056C0000054C0000084
:1000200052C0000050C000004EC000004CC0000094
:100030004AC0000048C0000046C0000044C00000A4
:1000400042C0000040C000003EC000003CC00000B4
:1000500043C0000038C0000036C0000034C00000BB
:1000600032C0000030C00000ADC000002CC0000055
:100070002AC0000028C0000026C0000024C00000E4
:1000800022C0000020C000001EC0000011241FBEBE
:10009000CFEFD0E4DEBFCDBF11E0A0E0B1E0E2E6FB
:1000A000F4E000E00BBF02C007900D92A030B10752
:1000B000D9F721E0A0E0B1E001C01D92A133B20761
:1000C000E1F78AD1CCC19CCFE0ECF0E080818823BD
:1000D000ECF78091C60008951F920F920FB60F9211
:1000E00011240BB60F922F933F934F935F936F930F
:1000F0007F938F939F93AF93BF93EF93FF93E4DF2F
:1001000090E09093070180930601DEDF90E09093EA
:100110002B0180932A01D8DF90E090932E018093E9
:100120002D018091060190910701E3E0F1E08183C8
:1001300080912A0190912B01828380912D019091D1
:100140002E018383FF91EF91BF91AF919F918F918A
:100150007F916F915F914F913F912F910F900BBEC7
:100160000F900FBE0F901F901895E0ECF0E090817B
:1001700095FFFDCF8093C6000895E3E0F1E080E3B2
:1001800080838183828388E98093C100E2ECF0E080
:100190008081826080838081846080838081877F8A
:1001A000808380818F7B808380818F778083E0EC68
:1001B000F0E080818D7F80831092C50087E080937E
:1001C000C40008951F920F920FB60F9211240BB620
:1001D0000F922F933F934F935F936F937F938F93E0
:1001E0009F93AF93BF93EF93FF938091B900887F64
:1001F000883291F128F4883069F0883199F08EC006
:10020000803509F458C0883509F484C0803409F079
:1002100085C04DC0809129018093BB0085E8809303
:10022000BC0088C080910B0190910C01E09101010C
:10023000F0910201E80FF91F80818093BB0080914B
:100240000B0190910C01019690930C0180930B018E
:1002500085E88093BC006EC020910B0130910C01A9
:100260008091090190910A0128173907D4F48091EF
:100270000B0190910C01E0910101F0910201E80F56
:10028000F91F80818093BB0080910B0190910C013C
:10029000019690930C0180930B0185E88093BC003C
:1002A00049C085E98093BC001092000143C085ECF1
:1002B0008093BC003FC0E0910B01F0910C01809154
:1002C000BB00E35FFE4F8083E0910B01F0910C01D6
:1002D000E35FFE4F808149DF80910B0190910C011B
:1002E000019690930C0180930B0120910B013091AA
:1002F0000C018091090190910A012817390724F413
:1003000085EC8093BC0016C085E88093BC008AE031
:100310002CDF10C085E98093BC000CC080910B01DC
:1003200090910C011816190614F48AE01EDF85E975
:100330008093BC00FF91EF91BF91AF919F918F91FE
:100340007F916F915F914F913F912F910F900BBED5
:100350000F900FBE0F901F901895109230011092C1
:100360002F01ECEBF0E085E0808380818068808362
:10037000E9EBF0E080818E7F808380818D7F8083B8
:100380001092000180E18093B80008958E7F8093E1
:100390002901709302016093010150930A01409377
:1003A000090110920C0110920B0185EA8093BC00A8
:1003B00008958160809329011092080110920C0128
:1003C00010920B0180E190E090930A018093090163
:1003D00085EA8093BC000895D0DEBFDF789484B1B5
:1003E0008F6784B901E0C3E0D1E018E00F2EF0E39D
:1003F000FF2EF02D189B03C000932C0102C0109219
:100400002C0184E0D6DF27E38EE392E02150804088
:100410009040E1F700C0000080912C01811107C0DD
:100420004FE050E06DE071E082E0B0DF11C0888104
:10043000873341F441E050E061E070E084E0A6DF02
:10044000F88206C0188344E050E0BE0182E09EDFDF
:100450008DE89FE80197F1F700C00000CBCFF8943A
:02046000FFCFCC
:00000001FF
