:1000000045C0000060C000005EC000005CC0000091
:100010005AC0000058C0000056C0000054C0000084
:1000200052C0000050C000004EC000004CC0000094
:100030004AC0000048C0000046C0000044C00000A4
:1000400042C0000040C000003EC000003CC00000B4
:1000500043C0000038C0000036C0000034C00000BB
:1000600032C0000030C00000B2C000002CC0000050
:100070002AC0000028C0000026C0000024C00000E4
:1000800022C0000020C000001EC0000011241FBEBE
:10009000CFEFD0E4DEBFCDBF11E0A0E0B1E0EEE2F3
:1000A000F4E000E00BBF02C007900D92A030B10752
:1000B000D9F721E0A0E0B1E001C01D92A033B20762
:1000C000E1F795D1B2C19CCFE0ECF0E080818823CC
:1000D000ECF78091C60008951F920F920FB60F9211
:1000E00011240BB60F922F933F934F935F936F930F
:1000F0007F938F939F93AF93BF93EF93FF93E4DF2F
:1001000090E09093070180930601DEDF90E09093EA
:100110002B0180932A01D8DF90E090932D018093EA
:100120002C01809106019091070180930301809139
:100130002A0190912B018093040180912C019091D0
:100140002D0180930501FF91EF91BF91AF919F9198
:100150008F917F916F915F914F913F912F910F9070
:100160000BBE0F900FBE0F901F9018952898289ADD
:100170002898E0ECF0E0908195FFFDCF8093C600D9
:10018000089580E380930301809304018093050127
:1001900088E98093C100E2ECF0E080818260808396
:1001A0008081846080838081877F808380818F7B52
:1001B000808380818F778083E0ECF0E080818D7F89
:1001C00080831092C50087E08093C40008951F9239
:1001D0000F920FB60F9211240BB60F922F933F93ED
:1001E0004F935F936F937F938F939F93AF93BF933F
:1001F000EF93FF938091B900887F8832A9F128F4AA
:10020000883069F08831B1F094C0803509F45EC05F
:10021000883509F48AC0803409F08BC050C0299811
:10022000299A2998809129018093BB0085E88093C1
:10023000BC008BC080910B0190910C01E0910101F9
:10024000F0910201E80FF91F80818093BB0080913B
:100250000B0190910C01019690930C0180930B017E
:1002600085E88093BC0071C020910B0130910C0196
:100270008091090190910A0128173907D4F48091DF
:100280000B0190910C01E0910101F0910201E80F46
:10029000F91F80818093BB0080910B0190910C012C
:1002A000019690930C0180930B0185E88093BC002C
:1002B0004CC085E98093BC001092000146C02A988A
:1002C0002A9A2A9885EC8093BC003FC0E0910B01EC
:1002D000F0910C018091BB00E35FFE4F8083E091C1
:1002E0000B01F0910C01E35FFE4F80813FDF8091B5
:1002F0000B0190910C01019690930C0180930B01DE
:1003000020910B0130910C018091090190910A011B
:100310002817390724F485EC8093BC0016C085E8C3
:100320008093BC008AE022DF10C085E98093BC0086
:100330000CC080910B0190910C011816190614F451
:100340008AE014DF85E98093BC00FF91EF91BF91B3
:10035000AF919F918F917F916F915F914F913F915D
:100360002F910F900BBE0F900FBE0F901F901895FE
:1003700010922F0110922E01ECEBF0E085E08083CB
:10038000808180688083E9EBF0E080818E7F8083CC
:1003900080818D7F80831092000180E18093B8007E
:1003A00008958E7F8093290170930201609301016B
:1003B00050930A014093090110920C0110920B0115
:1003C00085EA8093BC000895816080932901109292
:1003D000080110920C0110920B0180E190E09093C3
:1003E0000A018093090185EA8093BC000895C9DE63
:1003F000BFDF789484B18FEF84B985EB9CE10197DE
:10040000F1F700C0000084E0DFDF97E32EE382E035
:10041000915020408040E1F700C000004FE050E0E4
:0E0420006DE071E082E0BDDFE8CFF894FFCF21
:00000001FF
