:1000000045C0000061C000005FC000005DC000008E
:1000100021C70000F6C50000C9C6000055C0000099
:1000200053C000003BC300004FC000004DC00000A3
:100030004BC00000A9C6000047C0000045C000003A
:1000400043C0000041C000003FC000003DC00000B0
:100050003BC0000039C0000037C0000035C00000C0
:1000600033C0000031C0000030C000002DC00000CF
:100070002BC0000029C0000027C0000025C00000E0
:1000800023C0000021C000001FC0000011241FBEBB
:10009000CFEFD0E4DEBFCDBF11E2A0E0B1E0EAE1F6
:1000A000F4E100E00BBF02C007900D92A633B10748
:1000B000D9F721E2A6E3B1E201C01D92AB3CB20741
:1000C000E1F7C1D50C940B0A9BCF1F920F920FB68C
:1000D0000F9211240BB60F922F933F934F935F9380
:1000E0006F937F938F939F93AF93BF93EF93FF9300
:1000F0004798479A47988091B900887F883A39F5A0
:1001000081E090E090935C2180935B215898589A0D
:1001100058981092602110925F2180915F219091F8
:100120006021E0915D21F0915E21E80FF91F80814F
:100130008093BB0080915F21909160210196909304
:10014000602180935F2185EC8093BC0056C0809134
:10015000B900887F883B01F54798479A47984798A8
:10016000479A479880915F2190916021E0915D21AD
:10017000F0915E21E80FF91F80818093BB00809190
:100180005F219091602101969093602180935F217F
:1001900085EC8093BC0031C08091B900887F803CA1
:1001A00041F410925C2110925B2185EC8093BC009D
:1001B00024C08091B900887F803649F485EC809313
:1001C000BC0095D41092602110925F2116C08091DE
:1001D000B900887F803821F485EC8093BC000DC085
:1001E0008091B900887F803A21F485EC8093BC002F
:1001F00004C010925C2110925B21FF91EF91BF919E
:10020000AF919F918F917F916F915F914F913F91AE
:100210002F910F900BBE0F900FBE0F901F9018954F
:100220003F9A509A10925C2110925B218093BA0001
:10023000ECEBF0E085E480838081806880838081BE
:100240008F7D808380818F7E80830895982F907F1B
:10025000292F22602BB9E9EFF0E03197F1F700C0C8
:1002600000009BB9E9EFF0E03197F1F700C0000022
:10027000F0E18F9FC0011124982F92609BB9E9EFA4
:10028000F0E03197F1F700C000008BB989EF90E002
:100290000197F1F700C0000008958AB18FEF8AB985
:1002A0002FE38DE093E0215080409040E1F700C0C3
:1002B000000092E29BB9E9EFF0E03197F1F700C05E
:1002C000000080E28BB9E9EFF0E03197F1F700C070
:1002D00000009BB9E9EFF0E03197F1F700C00000B2
:1002E0008BB989EF90E00197F1F700C0000082E838
:1002F0008BB9E9EFF0E03197F1F700C0000080E83A
:100300008BB989EF90E00197F1F700C0000082E01F
:100310008BB9E9EFF0E03197F1F700C000001BB8AE
:1003200089EF90E00197F1F700C0000082EC8BB9F3
:10033000E9EFF0E03197F1F700C0000080EC8BB9F5
:1003400089EF90E00197F1F700C0000081E07EDFC7
:10035000E7EAF1E63197F1F700C000000895982F21
:10036000907F292F26602BB9E9EFF0E03197F1F764
:1003700000C0000094609BB9E9EFF0E03197F1F71D
:1003800000C00000F0E18F9FC0011124982F9660FB
:100390009BB9E9EFF0E03197F1F700C0000084600D
:1003A0008BB989EF90E00197F1F700C00000089544
:1003B000CF93DF93EC018881882329F02196CFDF4A
:1003C00089918111FCCFDF91CF910895EF92FF9237
:1003D0000F931F93CF93DF937B018A01E901BC0147
:1003E00082E491E2DED7B70182E491E2CFD7B8018F
:1003F00082E491E2CBD7BE0182E491E2C7D782E4E6
:1004000091E2DF91CF911F910F91FF90EF900895AE
:10041000CF93DF93AB01FC0101900020E9F7319706
:100420009F01281B390B60910001662301F160E2F6
:1004300070E070933D2160933C212417350774F4DC
:10044000ACE3B1E2FD0101900020E9F7319771833F
:1004500060832F5F3F4F24173507A4F3BC018CE363
:1004600091E294D7109200018CE391E222C060E205
:1004700070E070933721609336212417350784F498
:10048000C6E3D1E2A0E2B0E0FE0101900020E9F76E
:100490003197B183A0832F5F3F4F24173507A4F313
:1004A000BC0186E391E272D781E08093000186E38C
:1004B00091E2DF91CF9108956F927F928F929F92F8
:1004C000AF92BF92CF92DF92EF92FF920F931F9362
:1004D000CF93DF93CDB7DEB764970FB6F894DEBF46
:1004E0000FBECDBFFB013A014901882329F08DE4FD
:1004F00090E09A83898304C081E490E09A838983A1
:100500004AE0BE01655F7F4FCF0152D780E89EDE93
:1005100064E070E0CE010B967BDF9C0149E051E284
:10052000BE016F5F7F4F8FE091E250DF41DF4AE015
:10053000BE016F5F7F4FC3013BD74AE0BE01655FDD
:100540007F4FC40135D780EC81DE64E070E0CE01DE
:100550000B965EDF4C0163E070E0CE01019658DF40
:10056000940145E151E2BC018AE191E22FDF20DFF5
:100570004AE0BE016F5F7F4FC8011AD74AE0BE0153
:10058000655F7F4FC70114D780E960DE62E070E0ED
:10059000CE010B963DDF8C0162E070E0CE0101964A
:1005A00037DFBC0198014EE151E285E291E20EDFB6
:1005B000FFDE4AE0BE016F5F7F4FC601F9D64AE019
:1005C000BE01655F7F4FC501F3D680ED3FDE62E07F
:1005D00070E0CE010B961CDF8C0162E070E0CE0172
:1005E000019616DFBC0198014AE251E281E391E2F3
:1005F000EDDEDEDE64960FB6F894DEBF0FBECDBF33
:10060000DF91CF911F910F91FF90EF90DF90CF90EE
:10061000BF90AF909F908F907F906F900895ECE780
:10062000F0E08081877F8083808184608083808107
:100630008D7F808380818E7F8083EAE7F0E08081F8
:1006400080648083808186FDFDCFEAE7F0E08081D1
:1006500080648083808186FDFDCF80917800209129
:10066000790090E0922B0895ECE7F0E080818064BF
:10067000808380818F7780838FE080937E00EAE79C
:10068000F0E08081806880838081816080838081C8
:100690008260808380818460808308951F920F929E
:1006A0000FB60F9211240BB60F92CF92DF92EF92FA
:1006B000FF922F933F934F935F936F937F938F930B
:1006C0009F93AF93BF93CF93DF93EF93FF93A7DFF6
:1006D000909398218093972120919B2130919C2188
:1006E000EC01C21BD30BBE0122F4662777276C1BDB
:1006F0007D0B072E000C880B990B0AD520E030E00B
:1007000040E251E4B5D518160CF090C0C0905321CA
:10071000D0905421E0905521F0905621BE01DD0F7C
:10072000880B990BF5D42091050130910601409179
:1007300007015091080151D420910101309102012B
:10074000409103015091040197D59B01AC01C70171
:10075000B601DBD3609353217093542180935521CC
:10076000909356216091532170915421809155218D
:100770009091562120E030E843EB53E479D51816E8
:1007800024F56091532170915421809155219091CD
:10079000562120E030E044EB53E4B6D3609353217C
:1007A0007093542180935521909356216091532149
:1007B00070915421809155219091562120E030E88C
:1007C00043EB53E455D51816E4F260915321709130
:1007D0005421809155219091562120E030E0A901CB
:1007E000F8D388231CF56091532170915421809196
:1007F00055219091562120E030E044EB53E485D31D
:1008000060935321709354218093552190935621E6
:1008100060915321709154218091552190915621DE
:1008200020E030E0A901D5D38823ECF2FF91EF91CD
:10083000DF91CF91BF91AF919F918F917F916F91F8
:100840005F914F913F912F91FF90EF90DF90CF906C
:100850000F900BBE0F900FBE0F901F9018950F9327
:100860001F93CF93DF9389EF90E00197F1F700C0DA
:100870000000C5E0D0E000E010E089EF90E00197D3
:10088000F1F700C00000CBDE080F191F2197A9F770
:10089000C80165E070E053D570939C2160939B2163
:1008A000DF91CF911F910F910895E1EBF0E08081EE
:1008B0008460808380818260808380818160808386
:1008C000A0E7B0E08C9182608C9380818860808307
:1008D00082E38093B3000895C7DEE7CF0895ECE785
:1008E000F0E09081987F908390818370982B908323
:1008F000EAE7F0E0808180648083808186FDFDCF1F
:10090000EAE7F0E0808180648083808186FDFDCF0E
:10091000809178002091790090E0922B0895ECE787
:10092000F0E080818064808380818F7780838FEF87
:1009300080937E00EAE7F0E0808180688083808198
:1009400081608083808182608083808184608083F5
:100950000895CF93DF93F89480E0C1DFCDE9D1E231
:100960009983888381E0BBDF9B838A8382E0B7DF42
:100970009D838C8383E0B3DF9F838E837894E881AB
:10098000F981EE0FFF1FE75FF64E808180935721BC
:10099000EA81FB81EE0FFF1FE75FFE4E80818093AF
:1009A0005821EC81FD81EE0FFF1FE75FF64F80813C
:1009B00080935A21EE81FF81EE0FFF1FE75FFE4F0C
:1009C000808180935921DF91CF9108958FEF84B971
:1009D00020981092AE211092AD211092A821109271
:1009E000A7211092AC211092AB2188E592E0909360
:1009F000AA218093A9210895ECE7F0E08081877F08
:100A0000808380818460808380818D7F80838081EA
:100A100081608083EAE7F0E0808180648083808168
:100A200086FDFDCFEAE7F0E08081806480838081ED
:100A300086FDFDCF809178002091790090E0922B87
:100A40000895CF93DF93EC01880F991F806285B9D9
:100A500087E893E10197F1F700C00000CDDF209710
:100A600029F49093A8218093A72107C0CA30D1050B
:100A700021F49093AC218093AB212091A921309156
:100A8000AA2182179307A4F42091AD213091AE21C1
:100A900081E090E002C0880F991FCA95E2F7809527
:100AA0009095822393239093AE218093AD2111C022
:100AB0002091AD213091AE2181E090E002C0880FFD
:100AC000991FCA95E2F7822B932B9093AE218093C6
:100AD000AD21DF91CF910895CF93DF93CBE0D0E0AC
:100AE000CE01AFDF2197E0F7DF91CF9108952091FC
:100AF000A7213091A8218091AB219091AC21820F48
:100B0000931F99230CF40196959587959093AA21AC
:100B10008093A9210895CF93DF93E0915D21F09117
:100B20005E211082E0915D21F0915E211182C091E1
:100B30005D21D0915E219091B3218091B42140E458
:100B4000849F9001112440E2949FC0011124822BC4
:100B500080688A838091AD219091AE219B838091A2
:100B6000AD219091AE218C836091532170915421DD
:100B7000809155219091562198D27D836091532187
:100B80007091542180915521909156218ED26E837F
:100B90006091AF217091B0218091B1219091B221EB
:100BA00084D27F836091AF217091B0218091B12177
:100BB0009091B2217AD268876091B5217091B62167
:100BC0008091B7219091B82170D279876091B52139
:100BD0007091B6218091B7219091B82166D26A8731
:100BE000809159218B8780915A218C878091572140
:100BF0008D87809158218E871F86188ADF91CF912B
:100C000008951F920F920FB60F9211248F939F9306
:100C10001F9B06C09091B42181E089278093B42165
:100C20009F918F910F900FBE0F901F90189527984E
:100C3000ECE6F0E0808180688083E8E6F0E0808187
:100C40008260808308952FE784E89EE121508040F0
:100C50009040E1F700C000001092B4211092B3213F
:100C60005EDE1BDB39DE84E0DBDA48D1AFDEDFDFBE
:100C700052DF1092622110926121F1DD78943F9A47
:100C8000209A88248394189B03C08092B32102C0C9
:100C90001092B32183EC99E00197F1F700C00000B6
:100CA00058DE1ADFF894A0905721C0905821E090A8
:100CB000592100915A216090A7217090A82160913C
:100CC000AF217091B0218091B1219091B221C0915A
:100CD000A921D091AA219090B321B12CD12CF12C33
:100CE00010E0E3D19301AB01BE01892DE5DB13DFF9
:100CF0007894C9CF109285001092840087EA91E61B
:100D00009093890080938800EFE6F0E08081826014
:100D10008083E1E8F0E08081886080838081836067
:100D200080830895EDE6F0E0808180648083EBE6C7
:100D3000F0E0808180688083E8E6F0E08081856073
:100D400080830895CF93DF9300D0CDB7DEB79A8329
:100D5000898369817A81072E000C880B990BD8D181
:100D600027E137EB41ED59E387D220E030E84BEA49
:100D700053E482D220E030E040E05FE37DD20F9088
:100D80000F90DF91CF9108951F920F920FB60F929F
:100D900011248F93169A8AE68A95F1F700C0169867
:100DA0008F910F900FBE0F901F9018951F920F926A
:100DB0000FB60F9211240BB60F922F933F934F93C0
:100DC0005F936F937F938F939F93AF93BF93EF93B3
:100DD000FF93369924C08091840090918500909370
:100DE000C8218093C7218091C7219091C82120916B
:100DF000BB213091BC21821B930B9093C021809327
:100E0000BF218091BF219091C0219CDF6093AF21D1
:100E10007093B0218093B1219093B22108C080914A
:100E20008400909185009093BC218093BB21FF9119
:100E3000EF91BF91AF919F918F917F916F915F9152
:100E40004F913F912F910F900BBE0F900FBE0F90BF
:100E50001F9018951F920F920FB60F9211240BB688
:100E60000F922F933F934F935F936F937F938F9343
:100E70009F93AF93BF93EF93FF93079924C0809103
:100E80008400909185009093CA218093C92180911C
:100E9000C9219091CA212091C1213091C221821B88
:100EA000930B9093BE218093BD218091BD219091A1
:100EB000BE2148DF6093B5217093B6218093B7219E
:100EC0009093B82108C08091840090918500909300
:100ED000C2218093C121FF91EF91BF91AF919F916A
:100EE0008F917F916F915F914F913F912F910F90D3
:100EF0000BBE0F900FBE0F901F9018950E9A0F9873
:100F00003E9810DFF7CE08955058BB27AA270ED081
:100F100075C166D130F06BD120F031F49F3F11F4F0
:100F20001EF45BC10EF4E095E7FB51C1E92F77D1C8
:100F300080F3BA17620773078407950718F071F4F6
:100F40009EF58FC10EF4E0950B2EBA2FA02D0B014C
:100F5000B90190010C01CA01A0011124FF27591BFE
:100F600099F0593F50F4503E68F11A16F040A22F04
:100F7000232F342F4427585FF3CF46953795279575
:100F8000A795F0405395C9F77EF41F16BA0B620B74
:100F9000730B840BBAF09150A1F0FF0FBB1F661FBB
:100FA000771F881FC2F70EC0BA0F621F731F841FFE
:100FB00048F4879577956795B795F7959E3F08F024
:100FC000B3CF9395880F08F09927EE0F97958795E3
:100FD0000895D9D008F481E008950CD00FC107D14D
:100FE00040F0FED030F021F45F3F19F0F0C0511115
:100FF00039C1F3C014D198F39923C9F35523B1F340
:10100000951B550BBB27AA2762177307840738F077
:101010009F5F5F4F220F331F441FAA1FA9F333D0D6
:101020000E2E3AF0E0E830D091505040E695001C8A
:10103000CAF729D0FE2F27D0660F771F881FBB1F46
:10104000261737074807AB07B0E809F0BB0B802D20
:10105000BF01FF2793585F4F2AF09E3F510568F06C
:10106000B6C000C15F3FECF3983EDCF38695779500
:101070006795B795F7959F5FC9F7880F911D96956E
:10108000879597F90895E1E0660F771F881FBB1FCA
:10109000621773078407BA0720F0621B730B840B77
:1010A000BA0BEE1F88F7E095089504D06894B1114B
:1010B000D9C00895BCD088F09F5790F0B92F9927D8
:1010C000B751A0F0D1F0660F771F881F991F1AF053
:1010D000BA95C9F712C0B13081F0C3D0B1E008951C
:1010E000C0C0672F782F8827B85F39F0B93FCCF39D
:1010F000869577956795B395D9F73EF49095809549
:10110000709561957F4F8F4F9F4F0895E89409C068
:1011100097FB3EF490958095709561957F4F8F4F2A
:101120009F4F9923A9F0F92F96E9BB279395F69540
:10113000879577956795B795F111F8CFFAF4BB0FBE
:1011400011F460FF1BC06F5F7F4F8F4F9F4F16C022
:10115000882311F096E911C0772321F09EE8872FAC
:10116000762F05C0662371F096E8862F70E060E068
:101170002AF09A95660F771F881FDAF7880F9695E1
:10118000879597F90895990F0008550FAA0BE0E885
:10119000FEEF16161706E807F907C0F01216130639
:1011A000E407F50798F0621B730B840B950B39F479
:1011B0000A2661F0232B242B252B21F408950A26DF
:1011C00009F4A140A6958FEF811D811D089597F91F
:1011D0009F6780E870E060E008959FEF80EC0895DD
:1011E00000240A9416161706180609060895002406
:1011F0000A9412161306140605060895092E039480
:10120000000C11F4882352F0BB0F40F4BF2B11F4F3
:1012100060FF04C06F5F7F4F8F4F9F4F089557FD52
:101220009058440F551F59F05F3F71F04795880F54
:1012300097FB991F61F09F3F79F0879508951216EB
:1012400013061406551FF2CF4695F1DF08C0161697
:1012500017061806991FF1CF869571056105089448
:101260000895E894BB2766277727CB0197F908955F
:101270008ADF08F48FEF08950BD0C0CFB1DF28F0DC
:10128000B6DF18F0952309F0A2CFA7CF1124EACF3B
:10129000C6DFA0F3959FD1F3950F50E0551F629FD5
:1012A000F001729FBB27F00DB11D639FAA27F00DBF
:1012B000B11DAA1F649F6627B00DA11D661F829FE6
:1012C0002227B00DA11D621F739FB00DA11D621FCB
:1012D000839FA00D611D221F749F3327A00D611DE8
:1012E000231F849F600D211D822F762F6A2F1124CA
:1012F0009F5750408AF0E1F088234AF0EE0FFF1F1D
:10130000BB1F661F771F881F91505040A9F79E3F53
:10131000510570F05CCFA6CF5F3FECF3983EDCF355
:10132000869577956795B795F795E7959F5FC1F790
:10133000FE2B880F911D9695879597F9089597FB39
:10134000072E16F4009406D077FD08D00BD007FCCA
:1013500005D03EF4909581959F4F089570956195C5
:101360007F4F0895AA1BBB1B51E107C0AA1FBB1FDB
:10137000A617B70710F0A61BB70B881F991F5A9521
:10138000A9F780959095BC01CD010895FB01DC0182
:101390000D900020E9F7119701900D920020E1F7E0
:1013A0000895FB01DC0101900D920020E1F7089502
:1013B000BB274A3031F4992322F4BDE29095819500
:1013C0009F4F01C0BB27FB015527AA27880F991FF4
:1013D000AA1FA41710F0A41B83955051B9F7A05D64
:1013E000AA3308F0A95DA193009779F7B111B193E1
:1013F0001192CB0100C0DC01FC01672F71917723B2
:10140000E1F7329704C07C916D9370836291AE17BF
:0A141000BF07C8F30895F894FFCF5A
:10141A00010AD7233C6666263F5000500050005010
:10142A000050005000500050005000500050005032
:10143A000050005000500050005000500050005022
:10144A000050005000500050005000500050005012
:10145A000050005000500050005000500050005002
:10146A0000500050005000500050005000500050F2
:10147A0000500050005000500050005000500050E2
:10148A0000500050005000500050005000500050D2
:10149A0000500050005000500050005000500050C2
:1014AA0000500050005000500050005000500050B2
:1014BA0000500050005000500050005000500050A2
:1014CA000050005000500050005000500050004D95
:1014DA00004C004B004A00490048004800470046BB
:1014EA0000450044004300430042004100400040E0
:1014FA00003F003E003D003D003C003B003B003AFF
:10150A00003A003900380038003700370036003614
:10151A000035003500340034003300330032003225
:10152A000031003100300030002F002F002F002E34
:10153A00002E002D002D002D002C002C002B002B3E
:10154A00002B002A002A002A002900290029002845
:10155A000028002800270027002700270026002649
:10156A00002600250025002500250024002400244B
:10157A00002400230023002300230022002200224B
:10158A00002200210021002100210021002000204A
:10159A00002000200020001F001F001F001F001F46
:1015AA00001E001E001E001E001E001D001D001D44
:1015BA00001D001D001D001C001C001C001C001C3E
:1015CA00001C001B001B001B001B001B001B001B38
:1015DA00001A001A001A001A001A001A001A001932
:1015EA00001900190019001900190019001800182B
:1015FA000018001800180018001800180017001723
:10160A000017001700170017001700170017001619
:10161A000016001600160016001600160016001610
:10162A000015001500150015001500150015001508
:10163A0000150015001500140014001400140014FD
:10164A0000140014001400140014001400130013F2
:10165A0000130013001300130013001300130013E8
:10166A0000130013001300120012001200120012DD
:10167A0000120012001200120012001200120012D0
:10168A0000110011001100110011001100110011C8
:10169A0000110011001100110011001100110010B9
:1016AA0000100010001000100010001000100010B0
:1016BA0000100010001000100010001000100010A0
:1016CA00000F000F000F000F000F000F000F000F98
:1016DA00000F000F000F000F000F000F000F000F88
:1016EA00000F000F000F000F000E000E000E000E7C
:1016FA00000E000E000E000E000E000E000E000E70
:10170A00000E000E000E000E000E000E000E000E5F
:10171A00000E000D000D000D000D000D000D000D56
:10172A00000D000D000D000D000D000D000D000D47
:10173A00000D000D000D000D000D000D000D000D37
:10174A00000D000D000C000C000C000C000C000C2D
:10175A00000C000C000C000C000C000C000C000C1F
:10176A00000C000C000C000C000C000C000C000C0F
:10177A00000C000C000C000C000C000C000C000B00
:10178A00000B000B000B000B000B000B000B000BF7
:10179A00000B000B000B000B000B000B000B000BE7
:1017AA00000B000B000B000B000B000B000B000BD7
:1017BA00000B000B000B000B000B000B000B000BC7
:101C1A00000A000A000A000A005000500050005052
:101C2A00005000500050005000500050005000502A
:101C3A00005000500050005000500050005000501A
:101C4A00005000500050005000500050005000500A
:101C5A0000500050005000500050005000500050FA
:101C6A0000500050005000500050005000500050EA
:101C7A0000500050005000500050005000500050DA
:101C8A0000500050005000500050005000500050CA
:101C9A0000500050005000500050005000500050BA
:101CAA0000500050005000500050005000500050AA
:101CBA00005000500050005000500050005000509A
:101CCA00005000500050005000500050005000508A
:101CDA00005000500050005000500050005000507A
:101CEA00005000500050005000500050005000506A
:101CFA00004B004A0049004800470047004600459B
:101D0A000044004300430042004100400040003FBD
:101D1A00003E003E003D003C003C003B003A003AD9
:101D2A0000390039003800370037003600360035F0
:101D3A000035003400340033003300320032003101
:101D4A000031003000300030002F002F002E002E0E
:101D5A00002E002D002D002C002C002C002B002B17
:101D6A00002B002A002A002A00290029002900281D
:101D7A000028002800270027002700260026002622
:101D8A000026002500250025002400240024002424
:101D9A000023002300230023002200220022002225
:101DAA000021002100210021002100200020002024
:101DBA000020001F001F001F001F001F001E001E22
:101DCA00001E001E001E001D001D001D001D001D1E
:101DDA00001D001C001C001C001C001C001C001B19
:101DEA00001B001B001B001B001B001A001A001A14
:101DFA00001A001A001A001A00190019001900190D
:101E0A000019001900190018001800180018001805
:101E1A0000180018001800170017001700170017FD
:101E2A0000170017001700160016001600160016F5
:101E3A0000160016001600160015001500150015EC
:101E4A0000150015001500150015001500140014E2
:101E5A0000140014001400140014001400140014D8
:101E6A0000130013001300130013001300130013D0
:101E7A0000130013001300130012001200120012C4
:101E8A0000120012001200120012001200120012B8
:101E9A0000110011001100110011001100110011B0
:101EAA0000110011001100110011001100100010A2
:101EBA000010001000100010001000100010001098
:101ECA00001000100010001000100010000F000F8A
:101EDA00000F000F000F000F000F000F000F000F80
:101EEA00000F000F000F000F000F000F000F000E71
:101EFA00000E000E000E000E000E000E000E000E68
:101F0A00000E000E000E000E000E000E000E000E57
:101F1A00000E000E000E000D000D000D000D000D4C
:101F2A00000D000D000D000D000D000D000D000D3F
:101F3A00000D000D000D000D000D000D000D000D2F
:101F4A00000D000C000C000C000C000C000C000C26
:101F5A00000C000C000C000C000C000C000C000C17
:101F6A00000C000C000C000C000C000C000C000C07
:101F7A00000C000C000C000B000B000B000B000BFC
:101F8A00000B000B000B000B000B000B000B000BEF
:101F9A00000B000B000B000B000B000B000B000BDF
:101FAA00000B000B000B000B000B000B000B000BCF
:101FBA00000B000A000A000A000A000A000A000AC6
:101FCA00000A000A000A000A000A000A000A000AB7
:101FDA00000A000A000A000A000A000A000A000AA7
:101FEA00000A000A000A000A000A000A000A000A97
:101FFA00000A000A000A000A000A000A000A000A87
:10241A00000A000A000A000A00500050005000504A
:10242A000050005000500050005000500050005022
:10243A000050005000500050005000500050005012
:10244A000050005000500050005000500050005002
:10245A0000500050005000500050005000500050F2
:10246A0000500050005000500050005000500050E2
:10247A0000500050005000500050005000500050D2
:10248A0000500050005000500050005000500050C2
:10249A0000500050005000500050005000500050B2
:1024AA0000500050005000500050005000500050A2
:1024BA000050005000500050005000500050005092
:1024CA000050005000500050005000500050005082
:1024DA000050005000500050004E004D004C004B80
:1024EA00004A0049004800470046004600450044AB
:1024FA0000430042004200410040003F003F003ECE
:10250A00003D003D003C003B003B003A00390039E9
:10251A0000380038003700370036003600350035FD
:10252A00003400340033003300320032003100310D
:10253A0000300030002F002F002F002E002E002D1B
:10254A00002D002D002C002C002B002B002B002A24
:10255A00002A002A0029002900290028002800282A
:10256A00002700270027002700260026002600252E
:10257A00002500250025002400240024002400232F
:10258A00002300230023002200220022002200212F
:10259A00002100210021002100200020002000202D
:1025AA00001F001F001F001F001F001E001E001E2C
:1025BA00001E001E001E001D001D001D001D001D26
:1025CA00001C001C001C001C001C001C001B001B23
:1025DA00001B001B001B001B001B001A001A001A1C
:1025EA00001A001A001A001A001900190019001915
:1025FA00001900190019001800180018001800180E
:10260A000018001800180017001700170017001705
:10261A0000170017001700170016001600160016FC
:10262A0000160016001600160016001500150015F3
:10263A0000150015001500150015001500150014E9
:10264A0000140014001400140014001400140014E0
:10265A0000140014001300130013001300130013D6
:10266A0000130013001300130013001300120012CA
:10267A0000120012001200120012001200120012C0
:10268A0000120012001200120011001100110011B4
:10269A0000110011001100110011001100110011A8
:1026AA00001100110010001000100010001000109E
:1026BA000010001000100010001000100010001090
:1026CA00001000100010000F000F000F000F000F85
:1026DA00000F000F000F000F000F000F000F000F78
:1026EA00000F000F000F000F000F000E000E000E6B
:1026FA00000E000E000E000E000E000E000E000E60
:10270A00000E000E000E000E000E000E000E000E4F
:10271A00000E000E000D000D000D000D000D000D45
:10272A00000D000D000D000D000D000D000D000D37
:10273A00000D000D000D000D000D000D000D000D27
:10274A00000D000D000C000C000C000C000C000C1D
:10275A00000C000C000C000C000C000C000C000C0F
:10276A00000C000C000C000C000C000C000C000CFF
:10277A00000C000C000C000C000C000B000B000BF2
:10278A00000B000B000B000B000B000B000B000BE7
:10279A00000B000B000B000B000B000B000B000BD7
:1027AA00000B000B000B000B000B000B000B000BC7
:1027BA00000B000B000B000B000B000A000A000ABA
:1027CA00000A000A000A000A000A000A000A000AAF
:1027DA00000A000A000A000A000A000A000A000A9F
:1027EA00000A000A000A000A000A000A000A000A8F
:1027FA00000A000A000A000A000A000A000A000A7F
:102C1A00000A000A000A000A005000500050005042
:102C2A00005000500050005000500050005000501A
:102C3A00005000500050005000500050005000500A
:102C4A0000500050005000500050005000500050FA
:102C5A0000500050005000500050005000500050EA
:102C6A0000500050005000500050005000500050DA
:102C7A0000500050005000500050005000500050CA
:102C8A0000500050005000500050005000500050BA
:102C9A0000500050005000500050005000500050AA
:102CAA00005000500050005000500050005000509A
:102CBA00005000500050005000500050005000508A
:102CCA00005000500050005000500050005000507A
:102CDA00005000500050005000500050005000506A
:102CEA0000500050005200510050004F004E004D5D
:102CFA00004C004B004A0049004900480047004682
:102D0A0000450044004400430042004100410040A5
:102D1A00003F003F003E003D003D003C003B003BC1
:102D2A00003A003A003900380038003700370036D8
:102D3A0000360035003500340034003300330032E9
:102D4A00003200310031003100300030002F002FF6
:102D5A00002E002E002E002D002D002D002C002C00
:102D6A00002B002B002B002A002A002A0029002908
:102D7A00002900280028002800270027002700270C
:102D8A00002600260026002500250025002500240F
:102D9A00002400240024002300230023002300220F
:102DAA00002200220022002100210021002100210E
:102DBA0000200020002000200020001F001F001F0C
:102DCA00001F001F001E001E001E001E001E001D08
:102DDA00001D001D001D001D001D001C001C001C04
:102DEA00001C001C001C001B001B001B001B001BFE
:102DFA00001B001A001A001A001A001A001A001AF8
:102E0A0000190019001900190019001900190018F1
:102E1A0000180018001800180018001800180017E9
:102E2A0000170017001700170017001700170017E0
:102E3A0000160016001600160016001600160016D8
:102E4A0000160015001500150015001500150015CF
:102E5A0000150015001500140014001400140014C5
:102E6A0000140014001400140014001400130013BA
:102E7A0000130013001300130013001300130013B0
:102E8A0000130012001200120012001200120012A7
:102E9A00001200120012001200120012001100119A
:102EAA000011001100110011001100110011001190
:102EBA000011001100110011001100100010001083
:102ECA000010001000100010001000100010001078
:102EDA0000100010001000100010000F000F000F6B
:102EEA00000F000F000F000F000F000F000F000F60
:102EFA00000F000F000F000F000F000F000F000E51
:102F0A00000E000E000E000E000E000E000E000E47
:102F1A00000E000E000E000E000E000E000E000E37
:102F2A00000E000E000E000D000D000D000D000D2C
:102F3A00000D000D000D000D000D000D000D000D1F
:102F4A00000D000D000D000D000D000D000D000D0F
:102F5A00000D000D000C000C000C000C000C000C05
:102F6A00000C000C000C000C000C000C000C000CF7
:102F7A00000C000C000C000C000C000C000C000CE7
:102F8A00000C000C000C000C000B000B000B000BDB
:102F9A00000B000B000B000B000B000B000B000BCF
:102FAA00000B000B000B000B000B000B000B000BBF
:102FBA00000B000B000B000B000B000B000B000BAF
:102FCA00000A000A000A000A000A000A000A000AA7
:10341A00000A000A000A000A00204759524F004DCC
:10342A004F4445200020524546005553460020206F
:10343A0049524652004952464C00202049525252A3
:06344A00004952524C0043
:00000001FF
