S013000053656E736F726D6F64756C2E7372656376
S113000086C00000A2C00000A0C000009EC0000086
S113001000C700009AC00000A8C6000096C00000F7
S113002094C0000066C3000090C000008EC00000B1
S11300308CC0000088C6000088C0000086C0000094
S113004084C0000082C0000080C000007EC00000A8
S11300507CC000007AC0000078C0000076C00000B8
S113006074C0000072C0000071C000006EC00000C7
S11300706CC000006AC0000068C0000066C00000D8
S113008064C0000062C0000060C000000763423624
S1130090B79BD8A71A39685618AEBAAB558C1D3C15
S11300A0B7CC5763BD6DEDFD753EF6177231BF00D9
S11300B00000803F08000000BE922449123EABAA13
S11300C0AA2ABECDCCCC4C3E00000080BEABAAAA6E
S11300D0AA3E00000000BF000000803F00000000B6
S11300E000084178D3BB4387D1133D190E3CC3BDEF
S11300F04282AD2B3E68EC8276BED98FE1A93E4C9C
S113010080EFFFBE01C4FF7F3F0000000000112408
S11301101FBECFEFD0E4DEBFCDBF11E2A0E0B1E05F
S1130120E2EAF6E100E00BBF02C007900D92AA33A9
S1130130B107D9F721E2AAE3B1E201C01D92A13DC2
S1130140B207E1F751D50C944F0B5ACF1F920F927F
S11301500FB60F9211240BB60F928F939F93EF93C8
S1130160FF934798479A47988091B900887F883AC7
S113017039F581E090E090936C2180936B2158983D
S1130180589A58981092702110926F2180916F2183
S113019090917021E0916D21F0916E21E80FF91F8B
S11301A080818093BB0080916F2190917021019692
S11301B09093702180936F2185EC8093BC006BC079
S11301C08091B900887F883B01F54798479A479802
S11301D04798479A479880916F2190917021E091B8
S11301E06D21F0916E21E80FF91F80818093BB008F
S11301F080916F219091702101969093702180934A
S11302006F2185EC8093BC0046C08091B900887F43
S1130210803C41F410926C2110926B2185EC809308
S1130220BC0039C08091B900887F803641F485ECE8
S11302308093BC001092702110926F212CC0809189
S1130240B900887F8038D1F480916F21909170211A
S1130250E0916D21F0916E21E80FF91F8091BB00B0
S1130260808380916F2190917021019690937021E9
S113027080936F2185EC8093BC000DC08091B90000
S1130280887F803A21F485EC8093BC0004C01092EE
S11302906C2110926B21FF91EF919F918F910F90A0
S11302A00BBE0F900FBE0F901F9018953F9A509A57
S11302B010926C2110926B218093BA00ECEBF0E069
S11302C085E4808380818068808380818F7D8083C2
S11302D080818F7E80830895161617069CF4E82F7C
S11302E0F92F80E090E09A01082E02C035952795F9
S11302F00A94E2F7217033272193319301968617EC
S1130300970789F708950F931F93CF93DF931616DA
S11303101706CCF4082F192FEB01F8018191919164
S11303208F01019769F4BE01882777FD8095982F86
S1130330CED69B01AC0160E070E080E090E4DED7B3
S11303402197209751F7DF91CF911F910F91089535
S11303508AB18FEF8AB92FE38DE093E0215080407A
S11303609040E1F700C0000082E28BB989EF90E091
S11303700197F1F700C0000080E28BB989EF90E0AB
S11303800197F1F700C0000082E28BB989EF90E099
S11303900197F1F700C0000080E28BB989EF90E08B
S11303A00197F1F700C0000082E88BB989EF90E073
S11303B00197F1F700C0000080E88BB989EF90E065
S11303C00197F1F700C0000082E08BB989EF90E05B
S11303D00197F1F700C000001BB889EF90E0019786
S11303E0F1F700C0000082EC8BB989EF90E001972F
S11303F0F1F700C0000080EC8BB989EF90E0019721
S1130400F1F700C000000895982F907F92609BB987
S1130410E9EFF0E03197F1F700C00000982F907FEA
S11304209BB9E9EFF0E03197F1F700C00000F0E18B
S11304308F9FC0011124982F92609BB9E9EFF0E0DF
S11304403197F1F700C000008BB989EF90E0019774
S1130450F1F700C000000895982F907F292F26609F
S11304602BB9E9EFF0E03197F1F700C00000946098
S11304709BB9E9EFF0E03197F1F700C00000F0E13B
S11304808F9FC0011124982F96609BB9E9EFF0E08B
S11304903197F1F700C0000084608BB989EF90E0D8
S11304A00197F1F700C000000895CF93DF93EC01AA
S11304B08881882329F02196CFDF89918111FCCF8F
S11304C0DF91CF910895EF92FF920F931F93CF93F3
S11304D0DF937B018A01E901BC018AE391E20E9476
S11304E0150BB7018AE391E20E940A0BB8018AE373
S11304F091E20E940A0BBE018AE391E20E940A0B78
S11305008AE391E2DF91CF911F910F91FF90EF90D9
S113051008953F924F925F926F927F928F929F9233
S1130520AF92BF92CF92DF92EF92FF920F931F93FD
S1130530CF93DF93CDB7DEB764970FB6F894DEBFE1
S11305400FBECDBF382E2B013A01490181E05CDF9B
S113055087EA91E60197F1F700C00000332029F003
S113056081E490E09A83898304C08DE490E09A83C7
S113057089834AE0BE01655F7F4FC2010E941C0B64
S113058080E842DF9E01255F3F4F48E051E2BE0113
S11305906F5F7F4F8FE091E296DF87DF4AE0BE0115
S11305A06F5F7F4FC3010E941C0B4AE0BE01655F71
S11305B07F4FC4010E941C0B80EC26DF9E01255F47
S11305C03F4F45E151E2BE016F5F7F4F8BE191E206
S11305D07ADF6BDF4AE0BE016F5F7F4FC8010E9484
S11305E01C0B4AE0BE01655F7F4FC7010E941C0BD4
S11305F080E90ADF9E01255F3F4F40E251E2BE01E0
S11306006F5F7F4F87E291E25EDF4FDF4AE0BE011A
S11306106F5F7F4FC6010E941C0B4AE0BE01655FFD
S11306207F4FC5010E941C0B80EDEEDE9E01255F0D
S11306303F4F4DE251E2BE016F5F7F4F84E391E291
S113064042DF33DF64960FB6F894DEBF0FBECDBF32
S1130650DF91CF911F910F91FF90EF90DF90CF909A
S1130660BF90AF909F908F907F906F905F904F90CE
S11306703F900895ECE7F0E08081877F808380815C
S11306808460808380818D7F808380818E7F80835E
S1130690EAE7F0E0808180648083808186FDFDCF7D
S11306A0EAE7F0E0808180648083808186FDFDCF6D
S11306B0809178002091790090E0922B0895ECE7E6
S11306C0F0E080818064808380818F7780838FE0F5
S11306D080937E00EAE7F0E08081806880838081F7
S11306E08160808380818260808380818460808354
S11306F008951F920F920FB60F9211240BB60F920A
S1130700CF92DF92EF92FF922F933F934F935F9399
S11307106F937F938F939F93AF93BF93CF93DF9305
S1130720EF93FF93A7DF9093A6218093A5212091B7
S1130730A9213091AA21EC01C21BD30BBE0122F4E2
S1130740662777276C1B7D0B882777FD8095982F6C
S1130750BED420E030E040E251E469D518160CF034
S113076091C0C0904B21D0904C21E0904D21F0904D
S11307704E21BE01882777FD8095982FA8D420911B
S1130780040130910501409106015091070104D400
S11307902091000130910101409102015091030127
S11307A04AD59B01AC01C701B6018ED360934B219E
S11307B070934C2180934D2190934E2160914B2155
S11307C070914C2180914D2190914E2120E030E098
S11307D044EB53E42CD5181624F560914B21709109
S11307E04C2180914D2190914E2120E030E044EB4A
S11307F053E469D360934B2170934C2180934D2132
S113080090934E2160914B2170914C2180914D2108
S113081090914E2120E030E044EB53E408D51816C3
S1130820E4F260914B2170914C2180914D21909183
S11308304E2120E030E0A901ABD388231CF5609160
S11308404B2170914C2180914D2190914E2120E0BB
S113085030E044EB53E438D360934B2170934C2144
S113086080934D2190934E2160914B2170914C21A6
S113087080914D2190914E2120E030E0A90188D350
S11308808823ECF2FF91EF91DF91CF91BF91AF916B
S11308909F918F917F916F915F914F913F912F9194
S11308A0FF90EF90DF90CF900F900BBE0F900FBE94
S11308B00F901F9018950F931F93CF93DF9389EF99
S11308C090E00197F1F700C00000C5E0D0E000E03F
S11308D010E089EF90E00197F1F700C00000CADE54
S11308E0080F191F21972097A1F7C80165E070E050
S11308F06AD67093AA216093A921DF91CF911F91A9
S11309000F910895E1EBF0E0808184608083808121
S113091082608083808181608083A0E7B0E08C91D5
S113092082608C9380818860808382E38093B300AB
S11309300895C5DEE7CF0895ECE7F0E09081987F55
S1130940908390818370982B9083EAE7F0E0808114
S113095080648083808186FDFDCFEAE7F0E08081BA
S113096080648083808186FDFDCFE8E7F0E08081AC
S1130970A9E7B0E02C911C92108290E0922B08958C
S1130980ECE7F0E080818064808380818F778083CE
S11309908FEF80937E00EAE7F0E0808180688083B7
S11309A08081816080838081826080838081846093
S11309B0808308950F931F93CF93DF93CDB7DEB752
S11309C064970FB6F894DEBF0FBECDBFF89480E0F5
S11309D0B3DF9093AC218093AB2181E0ADDF9093A2
S11309E0AE218093AD2182E0A7DF9093B021809364
S11309F0AF2183E0A1DF9093B2218093B121789459
S1130A00EBEAF1E2A081B181AA0FBB1FA85FB64E49
S1130A108C9180934F21A091AD21B091AE21AA0F6A
S1130A20BB1FA85FBE4E8C9180935021A091AF2133
S1130A30B091B021AA0FBB1FA85FB64F8C918093D1
S1130A405221A091B121B091B221AA0FBB1FA85F7E
S1130A50BE4F8C9180935121408151816AE070E0B6
S1130A608E010F5F1F4FC80137DCFE017796C80166
S1130A702E982E9A2E98329122912130310519F414
S1130A802F982F9A2F98E817F90791F764960FB6C5
S1130A90F894DEBF0FBECDBFDF91CF911F910F91B0
S1130AA008958FEF84B92098089520916921309199
S1130AB06A21220F331F206225B9E0916921F09148
S1130AC06A2123B1822F817090E0EE0FFF1FED5A4F
S1130AD0FE4D918380838091692190916A210196D2
S1130AE090936A21809369218091692190916A2170
S1130AF00B9724F010926A21109269210895CF93E4
S1130B00DF931092BA216BE070E083E591E2FBDBA6
S1130B10E0916D21F0916E211082E0916D21F091B0
S1130B206E211182C0916D21D0916E214091BA2124
S1130B3020E4429FA00111242091B92160E2269F64
S1130B4090011124242B20682A839B838C83609139
S1130B504B2170914C2180914D2190914E2184D252
S1130B607D8360914B2170914C2180914D21909116
S1130B704E217AD26E836091B5217091B621809115
S1130B80B7219091B82170D27F836091B521709183
S1130B90B6218091B7219091B82166D2688760917F
S1130BA0BB217091BC218091BD219091BE215CD26A
S1130BB079876091BB217091BC218091BD21909176
S1130BC0BE2152D26A87809151218B878091522114
S1130BD08C8780914F218D87809150218E871F862D
S1130BE0188ADF91CF910895CF93DF9300D000D07E
S1130BF0CDB7DEB72FE784E89EE1215080409040D6
S1130C00E1F700C0000081E08093B921B9DEA0DBE8
S1130C1090DE84E04BDB51D144DF71DF4CDE78940D
S1130C203F9A279AE3ECF9E03197F1F700C000000E
S1130C30C1DE3BDFF894A0904F2120915021009118
S1130C405121809052216091BB217091BC218091EF
S1130C50BD219091BE214090B5215090B621609065
S1130C60B7217090B821C0904B21D0904C21E090D6
S1130C704D21F0904E21B12C222E312C10E0912CDC
S1130C80F3D169837A838B839C83C301B201ECD152
S1130C902B013C01C701B601E7D161017801840150
S1130CA029813A81A2018091B92133DC28DF78942B
S1130CB0B9CF109285001092840087EA91E6909350
S1130CC0890080938800EFE6F0E080818260808371
S1130CD0E1E8F0E0808188608083808183608083A4
S1130CE00895EDE6F0E0808180648083EBE6F0E037
S1130CF0808180688083E8E6F0E08081856080837D
S1130D000895CF93DF9300D0CDB7DEB79A8389835C
S1130D1069817A81882777FD8095982FD8D127E13A
S1130D2037EB41ED59E387D220E030E84BEA53E456
S1130D3082D220E030E040E05FE37DD20F900F905C
S1130D40DF91CF9108951F920F920FB60F92112445
S1130D508F93169A8AE68A95F1F700C016988F91B8
S1130D600F900FBE0F901F9018951F920F920FB601
S1130D700F9211240BB60F922F933F934F935F93CF
S1130D806F937F938F939F93AF93BF93EF93FF934F
S1130D90369924C080918400909185009093CE214F
S1130DA08093CD218091CD219091CE212091C1219C
S1130DB03091C221821B930B9093C6218093C5214D
S1130DC08091C5219091C6219CDF6093B5217093D9
S1130DD0B6218093B7219093B82108C080918400F4
S1130DE0909185009093C2218093C121FF91EF914E
S1130DF0BF91AF919F918F917F916F915F914F912F
S1130E003F912F910F900BBE0F900FBE0F901F902C
S1130E1018951F920F920FB60F9211240BB60F92D2
S1130E202F933F934F935F936F937F938F939F93EE
S1130E30AF93BF93EF93FF93079924C080918400ED
S1130E40909185009093D0218093CF218091CF21E0
S1130E509091D0212091C7213091C821821B930BFE
S1130E609093C4218093C3218091C3219091C42184
S1130E7048DF6093BB217093BC218093BD21909384
S1130E80BE2108C080918400909185009093C82170
S1130E908093C721FF91EF91BF91AF919F918F9163
S1130EA07F916F915F914F913F912F910F900BBE66
S1130EB00F900FBE0F901F9018950E9A0F983E98A2
S1130EC010DFF7CE08955058BB27AA270ED075C15E
S1130ED066D130F06BD120F031F49F3F11F41EF451
S1130EE05BC10EF4E095E7FB51C1E92F77D180F3A4
S1130EF0BA17620773078407950718F071F49EF513
S1130F008FC10EF4E0950B2EBA2FA02D0B01B90161
S1130F1090010C01CA01A0011124FF27591B99F06B
S1130F20593F50F4503E68F11A16F040A22F232F77
S1130F30342F4427585FF3CF469537952795A795C7
S1130F40F0405395C9F77EF41F16BA0B620B730B6E
S1130F50840BBAF09150A1F0FF0FBB1F661F771FDF
S1130F60881FC2F70EC0BA0F621F731F841F48F494
S1130F70879577956795B795F7959E3F08F0B3CF1A
S1130F809395880F08F09927EE0F97958795089504
S1130F90D9D008F481E008950CD00FC107D140F0F6
S1130FA0FED030F021F45F3F19F0F0C0511139C187
S1130FB0F3C014D198F39923C9F35523B1F3951BC6
S1130FC0550BBB27AA2762177307840738F09F5F66
S1130FD05F4F220F331F441FAA1FA9F333D00E2ED5
S1130FE03AF0E0E830D091505040E695001CCAF742
S1130FF029D0FE2F27D0660F771F881FBB1F261707
S113100037074807AB07B0E809F0BB0B802DBF01D9
S1131010FF2793585F4F2AF09E3F510568F0B6C0F2
S113102000C15F3FECF3983EDCF3869577956795B6
S1131030B795F7959F5FC9F7880F911D969587958A
S113104097F90895E1E0660F771F881FBB1F6217A9
S113105073078407BA0720F0621B730B840BBA0B67
S1131060EE1F88F7E095089504D06894B111D9C0B3
S11310700895BCD088F09F5790F0B92F9927B751A5
S1131080A0F0D1F0660F771F881F991F1AF0BA9548
S1131090C9F712C0B13081F0C3D0B1E00895C0C027
S11310A0672F782F8827B85F39F0B93FCCF386953E
S11310B077956795B395D9F73EF49095809570959B
S11310C061957F4F8F4F9F4F0895E89409C097FB18
S11310D03EF490958095709561957F4F8F4F9F4F0B
S11310E09923A9F0F92F96E9BB279395F69587954F
S11310F077956795B795F111F8CFFAF4BB0F11F412
S113110060FF1BC06F5F7F4F8F4F9F4F16C08823B8
S113111011F096E911C0772321F09EE8872F762FEE
S113112005C0662371F096E8862F70E060E02AF02F
S11311309A95660F771F881FDAF7880F969587951B
S113114097F90895990F0008550FAA0BE0E8FEEFF0
S113115016161706E807F907C0F012161306E40777
S1131160F50798F0621B730B840B950B39F40A2670
S113117061F0232B242B252B21F408950A2609F44E
S1131180A140A6958FEF811D811D089597F99F6752
S113119080E870E060E008959FEF80EC08950024FB
S11311A00A941616170618060906089500240A94C8
S11311B012161306140605060895092E0394000C4E
S11311C011F4882352F0BB0F40F4BF2B11F460FFDD
S11311D004C06F5F7F4F8F4F9F4F089557FD905806
S11311E0440F551F59F05F3F71F04795880F97FBE7
S11311F0991F61F09F3F79F08795089512161306A1
S11312001406551FF2CF4695F1DF08C016161706CF
S11312101806991FF1CF8695710561050894089504
S1131220E894BB2766277727CB0197F908958ADFCF
S113123008F48FEF08950BD0C0CFB1DF28F0B6DFEC
S113124018F0952309F0A2CFA7CF1124EACFC6DF67
S1131250A0F3959FD1F3950F50E0551F629FF001C5
S1131260729FBB27F00DB11D639FAA27F00DB11D1E
S1131270AA1F649F6627B00DA11D661F829F2227A7
S1131280B00DA11D621F739FB00DA11D621F839F2E
S1131290A00D611D221F749F3327A00D611D231F04
S11312A0849F600D211D822F762F6A2F11249F5752
S11312B050408AF0E1F088234AF0EE0FFF1FBB1F75
S11312C0661F771F881F91505040A9F79E3F510514
S11312D070F05CCFA6CF5F3FECF3983EDCF38695CD
S11312E077956795B795F795E7959F5FC1F7FE2BBF
S11312F0880F911D9695879597F90895FA01EE0F39
S1131300FF1F30962105310599F16115710561F4CE
S11313108038BFE39B0749F168949038810561F0F8
S11313208038BFEF9B0741F0992342F5FF3FE10569
S11313303105210511F1E8940894E795D901AA2310
S113134029F4AB2FBE2FF85FD0F310C0FF5F70F409
S1131350A695E0F7F73950F019F0FF3A38F49F7783
S11313609F930CD00F9007FC905808953EF014CF33
S113137060E070E080E89FE308954FE79F775F9314
S11313804F933F932F939ED02F913F914F915F9115
S113139052DF05C019F40EF0F9CE42CFFDCE26DFA0
S11313A0C8F39638C0F707F80F92E8942BE33AEAAB
S11313B048EB5FE74EDF0F920F920F924DB75EB787
S11313C00F92C0D0ECE8F0E016D04F915F91EF910E
S11313D0FF91E595EE1FFF1F49F0FE57E068442793
S11313E0EE0F441FFA95E1F74195550B32D00F905B
S11313F007FE26C00895DF93CF931F930F93FF92A8
S1131400EF92DF927B018C01689405C0DA2EEF0124
S11314101EDFFE01E894A5912591359145915591E2
S1131420AEF3EF0162DDFE019701A801DA9479F7CA
S1131430DF90EF90FF900F911F91CF91DF9108956E
S11314409B01AC0160E070E080E89FE3A5CD9ECEF7
S1131450ACC0CCDEE8F39923D9F3940F511DBBF350
S11314609150504094F059F0882332F0660F771F62
S1131470881F91505040C1F79E3F510544F7880F93
S1131480911D9695879597F908955F3FACF0983E26
S11314909CF0BB27869577956795B79508F4B1605E
S11314A09395C1F7BB0F58F711F460FFE8CF6F5F56
S11314B07F4F8F4F9F4FE3CFB4CE0EF076C06CCEEC
S11314C0689464CE93DEC8F39923D1F3C6F3DF9313
S11314D0CF931F930F93FF92C92FDD2788232AF000
S11314E02197660F771F881FDAF720E030E040E885
S11314F05FEB9FE3883920F0803E30F021968F77B0
S1131500E3DCE4EBF0E003C0DFDCE1EEF0E073DF0A
S11315108B01BE01EC01FB2E6F5771097595771F86
S1131520880B990BD4DD28E132E741E35FE38FDEDA
S1131530AF2D9801AE01FF900F911F91CF91DF91D4
S1131540D4DC3BCEFA01DC01AA0FBB1F9B01AC012A
S1131550BF5728F422273327442750781FC0B75198
S113156088F4AB2F0024469537952795011CA39545
S1131570D2F3002069F0220F331F441FB395DAF32E
S11315800DD0A1CC61307105A0E88A07B94630F4CA
S11315909B01AC016627772788279078309621F045
S11315A0208331834283538308959F3F31F09150C8
S11315B020F4879577956795B795880F911D969533
S11315C0879597F9089597FB072E16F4009406D093
S11315D077FD08D00BD007FC05D03EF4909581959B
S11315E09F4F0895709561957F4F0895AA1BBB1B6B
S11315F051E107C0AA1FBB1FA617B70710F0A61B0F
S1131600B70B881F991F5A95A9F780959095BC012F
S1131610CD010895FB01DC010D900020E9F711973D
S113162001900D920020E1F70895FB01DC01019087
S11316300D920020E1F70895BB274A3031F4992335
S113164022F4BDE2909581959F4F01C0BB27FB0119
S11316505527AA27880F991FAA1FA41710F0A41BA7
S113166083955051B9F7A05DAA3308F0A95DA19301
S1131670009779F7B111B1931192CB0100C0DC014D
S1131680FC01672F71917723E1F7329704C07C91B5
S11316906D9370836291AE17BF07C8F30895F894F1
S10516A0FFCF76
S11316A20AD7233C6666263F500050005000500083
S11316B250005000500050005000500050005000A4
S11316C25000500050005000500050005000500094
S11316D25000500050005000500050005000500084
S11316E25000500050005000500050005000500074
S11316F25000500050005000500050005000500064
S11317025000500050005000500050005000500053
S11317125000500050005000500050005000500043
S11317225000500050005000500050005000500033
S11317325000500050005000500050005000500023
S11317425000500050005000500050005000500013
S113175250005000500050005000500050004D0006
S11317624C004B004A00490048004800470046002C
S11317724500440043004300420041004000400051
S11317823F003E003D003D003C003B003B003A0070
S11317923A00390038003800370037003600360086
S11317A23500350034003400330033003200320097
S11317B231003100300030002F002F002F002E00A6
S11317C22E002D002D002D002C002C002B002B00B0
S11317D22B002A002A002A002900290029002800B7
S11317E228002800270027002700270026002600BB
S11317F226002500250025002500240024002400BD
S113180224002300230023002300220022002200BC
S113181222002100210021002100210020002000BB
S11318222000200020001F001F001F001F001F00B7
S11318321E001E001E001E001E001D001D001D00B5
S11318421D001D001D001C001C001C001C001C00AF
S11318521C001B001B001B001B001B001B001B00A9
S11318621A001A001A001A001A001A001A001900A3
S1131872190019001900190019001900180018009C
S11318821800180018001800180018001700170094
S1131892170017001700170017001700170016008B
S11318A21600160016001600160016001600160082
S11318B2150015001500150015001500150015007A
S11318C2150015001500140014001400140014006F
S11318D21400140014001400140014001300130064
S11318E2130013001300130013001300130013005A
S11318F2130013001300120012001200120012004F
S11319021200120012001200120012001200120041
S11319121100110011001100110011001100110039
S1131922110011001100110011001100110010002A
S11319321000100010001000100010001000100021
S11319421000100010001000100010001000100011
S11319520F000F000F000F000F000F000F000F0009
S11319620F000F000F000F000F000F000F000F00F9
S11319720F000F000F000F000E000E000E000E00ED
S11319820E000E000E000E000E000E000E000E00E1
S11319920E000E000E000E000E000E000E000E00D1
S11319A20E000D000D000D000D000D000D000D00C8
S11319B20D000D000D000D000D000D000D000D00B9
S11319C20D000D000D000D000D000D000D000D00A9
S11319D20D000D000C000C000C000C000C000C009F
S11319E20C000C000C000C000C000C000C000C0091
S11319F20C000C000C000C000C000C000C000C0081
S1131A020C000C000C000C000C000C000C000B0071
S1131A120B000B000B000B000B000B000B000B0068
S1131A220B000B000B000B000B000B000B000B0058
S1131A320B000B000B000B000B000B000B000B0048
S1131A420B000B000B000B000B000B000B000B0038
S1131A520A000A000A000A000A000A000A000A0030
S1131A620A000A000A000A000A000A000A000A0020
S1131A720A000A000A000000000000000000000042
S1131A820000000000000000000000000000000050
S1131A920000000000000000000000000000000040
S1131AA20000000000000000000000000000000030
S1131AB20000000000000000000000000000000020
S1131EA200000000000000005000500050005000EC
S1131EB2500050005000500050005000500050009C
S1131EC2500050005000500050005000500050008C
S1131ED2500050005000500050005000500050007C
S1131EE2500050005000500050005000500050006C
S1131EF2500050005000500050005000500050005C
S1131F02500050005000500050005000500050004B
S1131F12500050005000500050005000500050003B
S1131F22500050005000500050005000500050002B
S1131F32500050005000500050005000500050001B
S1131F42500050005000500050005000500050000B
S1131F5250005000500050005000500050005000FB
S1131F6250005000500050005000500050005000EB
S1131F7250005000500050005000500050005000DB
S1131F824B004A004900480047004700460045000C
S1131F9244004300430042004100400040003F002F
S1131FA23E003E003D003C003C003B003A003A004B
S1131FB23900390038003700370036003600350062
S1131FC23500340034003300330032003200310073
S1131FD231003000300030002F002F002E002E0080
S1131FE22E002D002D002C002C002C002B002B0089
S1131FF22B002A002A002A0029002900290028008F
S11320022800280027002700270026002600260093
S11320122600250025002500240024002400240095
S11320222300230023002300220022002200220096
S11320322100210021002100210020002000200095
S113204220001F001F001F001F001F001E001E0093
S11320521E001E001E001D001D001D001D001D008F
S11320621D001C001C001C001C001C001C001B008A
S11320721B001B001B001B001B001A001A001A0085
S11320821A001A001A001A0019001900190019007E
S11320921900190019001800180018001800180077
S11320A2180018001800170017001700170017006F
S11320B21700170017001600160016001600160067
S11320C2160016001600160015001500150015005E
S11320D21500150015001500150015001400140054
S11320E2140014001400140014001400140014004A
S11320F21300130013001300130013001300130042
S11321021300130013001300120012001200120035
S11321121200120012001200120012001200120029
S11321221100110011001100110011001100110021
S11321321100110011001100110011001000100013
S11321421000100010001000100010001000100009
S11321521000100010001000100010000F000F00FB
S11321620F000F000F000F000F000F000F000F00F1
S11321720F000F000F000F000F000F000F000E00E2
S11321820E000E000E000E000E000E000E000E00D9
S11321920E000E000E000E000E000E000E000E00C9
S11321A20E000E000E000D000D000D000D000D00BE
S11321B20D000D000D000D000D000D000D000D00B1
S11321C20D000D000D000D000D000D000D000D00A1
S11321D20D000C000C000C000C000C000C000C0098
S11321E20C000C000C000C000C000C000C000C0089
S11321F20C000C000C000C000C000C000C000C0079
S11322020C000C000C000B000B000B000B000B006D
S11322120B000B000B000B000B000B000B000B0060
S11322220B000B000B000B000B000B000B000B0050
S11322320B000B000B000B000B000B000B000B0040
S11322420B000A000A000A000A000A000A000A0037
S11322520A000A000A000A000A000A00000000003C
S11322620000000000000000000000000000000068
S11322720000000000000000000000000000000058
S11322820000000000000000000000000000000048
S11322920000000000000000000000000000000038
S11326A200000000000000005000500050005000E4
S11326B25000500050005000500050005000500094
S11326C25000500050005000500050005000500084
S11326D25000500050005000500050005000500074
S11326E25000500050005000500050005000500064
S11326F25000500050005000500050005000500054
S11327025000500050005000500050005000500043
S11327125000500050005000500050005000500033
S11327225000500050005000500050005000500023
S11327325000500050005000500050005000500013
S11327425000500050005000500050005000500003
S113275250005000500050005000500050005000F3
S113276250005000500050004E004D004C004B00F1
S11327724A0049004800470046004600450044001C
S1132782430042004200410040003F003F003E003F
S11327923D003D003C003B003B003A00390039005B
S11327A2380038003700370036003600350035006F
S11327B2340034003300330032003200310031007F
S11327C2300030002F002F002F002E002E002D008D
S11327D22D002D002C002C002B002B002B002A0096
S11327E22A002A002900290029002800280028009C
S11327F227002700270027002600260026002500A0
S113280225002500250024002400240024002300A0
S113281223002300230022002200220022002100A0
S1132822210021002100210020002000200020009E
S11328321F001F001F001F001F001E001E001E009D
S11328421E001E001E001D001D001D001D001D0097
S11328521C001C001C001C001C001C001B001B0094
S11328621B001B001B001B001B001A001A001A008D
S11328721A001A001A001A00190019001900190086
S1132882190019001900180018001800180018007F
S11328921800180018001700170017001700170077
S11328A2170017001700170016001600160016006E
S11328B21600160016001600160015001500150065
S11328C2150015001500150015001500150014005B
S11328D21400140014001400140014001400140052
S11328E21400140013001300130013001300130048
S11328F2130013001300130013001300120012003C
S11329021200120012001200120012001200120031
S11329121200120012001200110011001100110025
S11329221100110011001100110011001100110019
S1132932110011001000100010001000100010000F
S11329421000100010001000100010001000100001
S11329521000100010000F000F000F000F000F00F6
S11329620F000F000F000F000F000F000F000F00E9
S11329720F000F000F000F000F000E000E000E00DC
S11329820E000E000E000E000E000E000E000E00D1
S11329920E000E000E000E000E000E000E000E00C1
S11329A20E000E000D000D000D000D000D000D00B7
S11329B20D000D000D000D000D000D000D000D00A9
S11329C20D000D000D000D000D000D000D000D0099
S11329D20D000D000C000C000C000C000C000C008F
S11329E20C000C000C000C000C000C000C000C0081
S11329F20C000C000C000C000C000C000C000C0071
S1132A020C000C000C000C000C000B000B000B0063
S1132A120B000B000B000B000B000B000B000B0058
S1132A220B000B000B000B000B000B000B000B0048
S1132A320B000B000B000B000B000B000B000B0038
S1132A420B000B000B000B000B000A000A000A002B
S1132A520A000A000A000A000A000A000A000A0020
S1132A620A000A000A000A000A000A000A000A0010
S1132A720A000A000A000A000A000A000A000A0000
S1132A820000000000000000000000000000000040
S1132EA200000000000000005000500050005000DC
S1132EB2500050005000500050005000500050008C
S1132EC2500050005000500050005000500050007C
S1132ED2500050005000500050005000500050006C
S1132EE2500050005000500050005000500050005C
S1132EF2500050005000500050005000500050004C
S1132F02500050005000500050005000500050003B
S1132F12500050005000500050005000500050002B
S1132F22500050005000500050005000500050001B
S1132F32500050005000500050005000500050000B
S1132F4250005000500050005000500050005000FB
S1132F5250005000500050005000500050005000EB
S1132F6250005000500050005000500050005000DB
S1132F72500050005200510050004F004E004D00CE
S1132F824C004B004A0049004900480047004600F3
S1132F924500440044004300420041004100400017
S1132FA23F003F003E003D003D003C003B003B0033
S1132FB23A003A003900380038003700370036004A
S1132FC2360035003500340034003300330032005B
S1132FD23200310031003100300030002F002F0068
S1132FE22E002E002E002D002D002D002C002C0072
S1132FF22B002B002B002A002A002A00290029007A
S1133002290028002800280027002700270027007D
S11330122600260026002500250025002500240080
S11330222400240024002300230023002300220080
S1133032220022002200210021002100210021007F
S1133042200020002000200020001F001F001F007D
S11330521F001F001E001E001E001E001E001D0079
S11330621D001D001D001D001D001C001C001C0075
S11330721C001C001C001B001B001B001B001B006F
S11330821B001A001A001A001A001A001A001A0069
S11330921900190019001900190019001900180063
S11330A2180018001800180018001800180017005B
S11330B21700170017001700170017001700170052
S11330C2160016001600160016001600160016004A
S11330D21600150015001500150015001500150041
S11330E21500150015001400140014001400140037
S11330F2140014001400140014001400130013002C
S11331021300130013001300130013001300130021
S11331121300120012001200120012001200120018
S1133122120012001200120012001200110011000B
S11331321100110011001100110011001100110001
S113314211001100110011001100100010001000F4
S113315210001000100010001000100010001000E9
S1133162100010001000100010000F000F000F00DC
S11331720F000F000F000F000F000F000F000F00D1
S11331820F000F000F000F000F000F000F000E00C2
S11331920E000E000E000E000E000E000E000E00B9
S11331A20E000E000E000E000E000E000E000E00A9
S11331B20E000E000E000D000D000D000D000D009E
S11331C20D000D000D000D000D000D000D000D0091
S11331D20D000D000D000D000D000D000D000D0081
S11331E20D000D000C000C000C000C000C000C0077
S11331F20C000C000C000C000C000C000C000C0069
S11332020C000C000C000C000C000C000C000C0058
S11332120C000C000C000C000B000B000B000B004C
S11332220B000B000B000B000B000B000B000B0040
S11332320B000B000B000B000B000B000B000B0030
S11332420B000B000B000B000B000B000B000B0020
S11332520000000000000000000000000000000068
S11336A20000000000000000204759524F20004D46
S11336B24F444520002055535220005553462000C4
S11336C2204952465220004952464C200020495279
S10D36D2525220004952524C2000CD
S9030000FC
